{
  "abi": [
    {
      "inputs": [
        {
          "internalType": "address",
          "name": "_Area",
          "type": "address"
        }
      ],
      "stateMutability": "nonpayable",
      "type": "constructor"
    },
    {
      "anonymous": false,
      "inputs": [
        {
          "indexed": true,
          "internalType": "address",
          "name": "owner",
          "type": "address"
        },
        {
          "indexed": true,
          "internalType": "address",
          "name": "spender",
          "type": "address"
        },
        {
          "indexed": true,
          "internalType": "uint256",
          "name": "id",
          "type": "uint256"
        }
      ],
      "name": "Approval",
      "type": "event"
    },
    {
      "anonymous": false,
      "inputs": [
        {
          "indexed": true,
          "internalType": "address",
          "name": "owner",
          "type": "address"
        },
        {
          "indexed": true,
          "internalType": "address",
          "name": "operator",
          "type": "address"
        },
        {
          "indexed": false,
          "internalType": "bool",
          "name": "approved",
          "type": "bool"
        }
      ],
      "name": "ApprovalForAll",
      "type": "event"
    },
    {
      "anonymous": false,
      "inputs": [
        {
          "indexed": true,
          "internalType": "address",
          "name": "user",
          "type": "address"
        },
        {
          "indexed": true,
          "internalType": "address",
          "name": "newOwner",
          "type": "address"
        }
      ],
      "name": "OwnerUpdated",
      "type": "event"
    },
    {
      "anonymous": false,
      "inputs": [
        {
          "indexed": true,
          "internalType": "address",
          "name": "from",
          "type": "address"
        },
        {
          "indexed": true,
          "internalType": "address",
          "name": "to",
          "type": "address"
        },
        {
          "indexed": true,
          "internalType": "uint256",
          "name": "id",
          "type": "uint256"
        }
      ],
      "name": "Transfer",
      "type": "event"
    },
    {
      "inputs": [
        {
          "internalType": "address",
          "name": "spender",
          "type": "address"
        },
        {
          "internalType": "uint256",
          "name": "id",
          "type": "uint256"
        }
      ],
      "name": "approve",
      "outputs": [],
      "stateMutability": "nonpayable",
      "type": "function"
    },
    {
      "inputs": [
        {
          "internalType": "address",
          "name": "owner",
          "type": "address"
        }
      ],
      "name": "balanceOf",
      "outputs": [
        {
          "internalType": "uint256",
          "name": "",
          "type": "uint256"
        }
      ],
      "stateMutability": "view",
      "type": "function"
    },
    {
      "inputs": [
        {
          "internalType": "uint256",
          "name": "",
          "type": "uint256"
        }
      ],
      "name": "getApproved",
      "outputs": [
        {
          "internalType": "address",
          "name": "",
          "type": "address"
        }
      ],
      "stateMutability": "view",
      "type": "function"
    },
    {
      "inputs": [
        {
          "internalType": "address",
          "name": "_who",
          "type": "address"
        }
      ],
      "name": "getIdOf",
      "outputs": [
        {
          "internalType": "uint256",
          "name": "",
          "type": "uint256"
        }
      ],
      "stateMutability": "view",
      "type": "function"
    },
    {
      "inputs": [
        {
          "internalType": "address",
          "name": "",
          "type": "address"
        },
        {
          "internalType": "address",
          "name": "",
          "type": "address"
        }
      ],
      "name": "isApprovedForAll",
      "outputs": [
        {
          "internalType": "bool",
          "name": "",
          "type": "bool"
        }
      ],
      "stateMutability": "view",
      "type": "function"
    },
    {
      "inputs": [
        {
          "internalType": "address",
          "name": "_to",
          "type": "address"
        },
        {
          "internalType": "uint256",
          "name": "_id",
          "type": "uint256"
        },
        {
          "internalType": "string",
          "name": "_uri",
          "type": "string"
        }
      ],
      "name": "mintFarmer",
      "outputs": [],
      "stateMutability": "nonpayable",
      "type": "function"
    },
    {
      "inputs": [],
      "name": "name",
      "outputs": [
        {
          "internalType": "string",
          "name": "",
          "type": "string"
        }
      ],
      "stateMutability": "view",
      "type": "function"
    },
    {
      "inputs": [],
      "name": "owner",
      "outputs": [
        {
          "internalType": "address",
          "name": "",
          "type": "address"
        }
      ],
      "stateMutability": "view",
      "type": "function"
    },
    {
      "inputs": [
        {
          "internalType": "uint256",
          "name": "id",
          "type": "uint256"
        }
      ],
      "name": "ownerOf",
      "outputs": [
        {
          "internalType": "address",
          "name": "owner",
          "type": "address"
        }
      ],
      "stateMutability": "view",
      "type": "function"
    },
    {
      "inputs": [
        {
          "internalType": "address",
          "name": "from",
          "type": "address"
        },
        {
          "internalType": "address",
          "name": "to",
          "type": "address"
        },
        {
          "internalType": "uint256",
          "name": "id",
          "type": "uint256"
        }
      ],
      "name": "safeTransferFrom",
      "outputs": [],
      "stateMutability": "nonpayable",
      "type": "function"
    },
    {
      "inputs": [
        {
          "internalType": "address",
          "name": "from",
          "type": "address"
        },
        {
          "internalType": "address",
          "name": "to",
          "type": "address"
        },
        {
          "internalType": "uint256",
          "name": "id",
          "type": "uint256"
        },
        {
          "internalType": "bytes",
          "name": "data",
          "type": "bytes"
        }
      ],
      "name": "safeTransferFrom",
      "outputs": [],
      "stateMutability": "nonpayable",
      "type": "function"
    },
    {
      "inputs": [
        {
          "internalType": "address",
          "name": "operator",
          "type": "address"
        },
        {
          "internalType": "bool",
          "name": "approved",
          "type": "bool"
        }
      ],
      "name": "setApprovalForAll",
      "outputs": [],
      "stateMutability": "nonpayable",
      "type": "function"
    },
    {
      "inputs": [
        {
          "internalType": "address",
          "name": "newOwner",
          "type": "address"
        }
      ],
      "name": "setOwner",
      "outputs": [],
      "stateMutability": "nonpayable",
      "type": "function"
    },
    {
      "inputs": [
        {
          "internalType": "bytes4",
          "name": "interfaceId",
          "type": "bytes4"
        }
      ],
      "name": "supportsInterface",
      "outputs": [
        {
          "internalType": "bool",
          "name": "",
          "type": "bool"
        }
      ],
      "stateMutability": "view",
      "type": "function"
    },
    {
      "inputs": [],
      "name": "symbol",
      "outputs": [
        {
          "internalType": "string",
          "name": "",
          "type": "string"
        }
      ],
      "stateMutability": "view",
      "type": "function"
    },
    {
      "inputs": [
        {
          "internalType": "uint256",
          "name": "id",
          "type": "uint256"
        }
      ],
      "name": "tokenURI",
      "outputs": [
        {
          "internalType": "string",
          "name": "",
          "type": "string"
        }
      ],
      "stateMutability": "view",
      "type": "function"
    },
    {
      "inputs": [
        {
          "internalType": "address",
          "name": "from",
          "type": "address"
        },
        {
          "internalType": "address",
          "name": "to",
          "type": "address"
        },
        {
          "internalType": "uint256",
          "name": "id",
          "type": "uint256"
        }
      ],
      "name": "transferFrom",
      "outputs": [],
      "stateMutability": "nonpayable",
      "type": "function"
    }
  ],
  "bytecode": {
    "object": "0x60806040523480156200001157600080fd5b506040516200136f3803806200136f8339810160408190526200003491620001b0565b60408051808201825260068152652330b936b2b960d11b6020808301918252835180850190945260048452634641724d60e01b9084015281513393916200007f91600091906200010a565b508051620000959060019060208401906200010a565b5050600680546001600160a01b0319166001600160a01b0384169081179091556040519091506000907f8292fce18fa69edf4db7b94ea2e58241df0ae57f97e0a6c9b29067028bf92d76908290a350600680546001600160a01b0319166001600160a01b03929092169190911790556200021e565b8280546200011890620001e2565b90600052602060002090601f0160209004810192826200013c576000855562000187565b82601f106200015757805160ff191683800117855562000187565b8280016001018555821562000187579182015b82811115620001875782518255916020019190600101906200016a565b506200019592915062000199565b5090565b5b808211156200019557600081556001016200019a565b600060208284031215620001c357600080fd5b81516001600160a01b0381168114620001db57600080fd5b9392505050565b600181811c90821680620001f757607f821691505b6020821081036200021857634e487b7160e01b600052602260045260246000fd5b50919050565b611141806200022e6000396000f3fe608060405234801561001057600080fd5b506004361061010b5760003560e01c80636352211e116100a257806395d89b411161007157806395d89b411461025a578063a22cb46514610262578063b88d4fde14610270578063c87b56dd14610283578063e985e9c51461029657600080fd5b80636352211e1461020e57806370a08231146102215780638da5cb5b146102345780638de6e6331461024757600080fd5b806313af4035116100de57806313af4035146101a357806323b872dd146101b657806342842e0e146101c957806345377d59146101dc57600080fd5b806301ffc9a71461011057806306fdde0314610138578063081812fc1461014d578063095ea7b31461018e575b600080fd5b61012361011e366004610d21565b6102c4565b60405190151581526020015b60405180910390f35b610140610316565b60405161012f9190610d45565b61017661015b366004610d9a565b6004602052600090815260409020546001600160a01b031681565b6040516001600160a01b03909116815260200161012f565b6101a161019c366004610dca565b6103a4565b005b6101a16101b1366004610df4565b6103ea565b6101a16101c4366004610e0f565b61047f565b6101a16101d7366004610e0f565b6104f3565b6102006101ea366004610df4565b6001600160a01b03166000908152600860205290565b60405190815260200161012f565b61017661021c366004610d9a565b6105c3565b61020061022f366004610df4565b61061a565b600654610176906001600160a01b031681565b6101a1610255366004610e61565b61067d565b6101406106f5565b6101a161019c366004610f2c565b6101a161027e366004610f68565b610702565b610140610291366004610d9a565b6107c7565b6101236102a4366004611003565b600560209081526000928352604080842090915290825290205460ff1681565b60006301ffc9a760e01b6001600160e01b0319831614806102f557506380ac58cd60e01b6001600160e01b03198316145b806103105750635b5e139f60e01b6001600160e01b03198316145b92915050565b6000805461032390611036565b80601f016020809104026020016040519081016040528092919081815260200182805461034f90611036565b801561039c5780601f106103715761010080835404028352916020019161039c565b820191906000526020600020905b81548152906001019060200180831161037f57829003601f168201915b505050505081565b60405162461bcd60e51b81526020600482015260166024820152752193b2b9ba103732903830b9903837b9b9b4b136329760511b60448201526064015b60405180910390fd5b6006546001600160a01b031633146104335760405162461bcd60e51b815260206004820152600c60248201526b15539055551213d49256915160a21b60448201526064016103e1565b600680546001600160a01b0319166001600160a01b03831690811790915560405133907f8292fce18fa69edf4db7b94ea2e58241df0ae57f97e0a6c9b29067028bf92d7690600090a350565b6001600160a01b03821615158061049e57506001600160a01b03831615155b156104e35760405162461bcd60e51b8152602060048201526015602482015274526f6c65206e6f74207472616e7366657261626c6560581b60448201526064016103e1565b6104ee838383610869565b505050565b6104fe83838361047f565b6001600160a01b0382163b15806105a75750604051630a85bd0160e11b8082523360048301526001600160a01b03858116602484015260448301849052608060648401526000608484015290919084169063150b7a029060a4016020604051808303816000875af1158015610577573d6000803e3d6000fd5b505050506040513d601f19601f8201168201806040525081019061059b9190611070565b6001600160e01b031916145b6104ee5760405162461bcd60e51b81526004016103e19061108d565b6000818152600260205260409020546001600160a01b0316806106155760405162461bcd60e51b815260206004820152600a6024820152691393d517d3525395115160b21b60448201526064016103e1565b919050565b60006001600160a01b0382166106615760405162461bcd60e51b815260206004820152600c60248201526b5a45524f5f4144445245535360a01b60448201526064016103e1565b506001600160a01b031660009081526003602052604090205490565b6006546001600160a01b031633146106c65760405162461bcd60e51b815260206004820152600c60248201526b15539055551213d49256915160a21b60448201526064016103e1565b6106d08383610a30565b600082815260076020908152604090912082516106ef92840190610c6f565b50505050565b6001805461032390611036565b61070d85858561047f565b6001600160a01b0384163b15806107a45750604051630a85bd0160e11b808252906001600160a01b0386169063150b7a02906107559033908a908990899089906004016110b7565b6020604051808303816000875af1158015610774573d6000803e3d6000fd5b505050506040513d601f19601f820116820180604052508101906107989190611070565b6001600160e01b031916145b6107c05760405162461bcd60e51b81526004016103e19061108d565b5050505050565b60008181526007602052604090208054606091906107e490611036565b80601f016020809104026020016040519081016040528092919081815260200182805461081090611036565b801561085d5780601f106108325761010080835404028352916020019161085d565b820191906000526020600020905b81548152906001019060200180831161084057829003601f168201915b50505050509050919050565b6000818152600260205260409020546001600160a01b038481169116146108bf5760405162461bcd60e51b815260206004820152600a60248201526957524f4e475f46524f4d60b01b60448201526064016103e1565b6001600160a01b0382166109095760405162461bcd60e51b81526020600482015260116024820152701253959053125117d49150d25412515395607a1b60448201526064016103e1565b336001600160a01b038416148061094357506001600160a01b038316600090815260056020908152604080832033845290915290205460ff165b8061096457506000818152600460205260409020546001600160a01b031633145b6109a15760405162461bcd60e51b815260206004820152600e60248201526d1393d517d055551213d49256915160921b60448201526064016103e1565b6001600160a01b0380841660008181526003602090815260408083208054600019019055938616808352848320805460010190558583526002825284832080546001600160a01b03199081168317909155600490925284832080549092169091559251849392917fddf252ad1be2c89b69c2b068fc378daa952ba7f163c4a11628f55a4df523b3ef91a4505050565b610a3a8282610b00565b6001600160a01b0382163b1580610ae05750604051630a85bd0160e11b80825233600483015260006024830181905260448301849052608060648401526084830152906001600160a01b0384169063150b7a029060a4016020604051808303816000875af1158015610ab0573d6000803e3d6000fd5b505050506040513d601f19601f82011682018060405250810190610ad49190611070565b6001600160e01b031916145b610afc5760405162461bcd60e51b81526004016103e19061108d565b5050565b6001600160a01b0382166000908152600860209081526040808320849055600390915290205415610b5f5760405162461bcd60e51b815260206004820152600960248201526834b9903330b936b2b960b91b60448201526064016103e1565b610afc82826001600160a01b038216610bae5760405162461bcd60e51b81526020600482015260116024820152701253959053125117d49150d25412515395607a1b60448201526064016103e1565b6000818152600260205260409020546001600160a01b031615610c045760405162461bcd60e51b815260206004820152600e60248201526d1053149150511657d3525395115160921b60448201526064016103e1565b6001600160a01b038216600081815260036020908152604080832080546001019055848352600290915280822080546001600160a01b0319168417905551839291907fddf252ad1be2c89b69c2b068fc378daa952ba7f163c4a11628f55a4df523b3ef908290a45050565b828054610c7b90611036565b90600052602060002090601f016020900481019282610c9d5760008555610ce3565b82601f10610cb657805160ff1916838001178555610ce3565b82800160010185558215610ce3579182015b82811115610ce3578251825591602001919060010190610cc8565b50610cef929150610cf3565b5090565b5b80821115610cef5760008155600101610cf4565b6001600160e01b031981168114610d1e57600080fd5b50565b600060208284031215610d3357600080fd5b8135610d3e81610d08565b9392505050565b600060208083528351808285015260005b81811015610d7257858101830151858201604001528201610d56565b81811115610d84576000604083870101525b50601f01601f1916929092016040019392505050565b600060208284031215610dac57600080fd5b5035919050565b80356001600160a01b038116811461061557600080fd5b60008060408385031215610ddd57600080fd5b610de683610db3565b946020939093013593505050565b600060208284031215610e0657600080fd5b610d3e82610db3565b600080600060608486031215610e2457600080fd5b610e2d84610db3565b9250610e3b60208501610db3565b9150604084013590509250925092565b634e487b7160e01b600052604160045260246000fd5b600080600060608486031215610e7657600080fd5b610e7f84610db3565b925060208401359150604084013567ffffffffffffffff80821115610ea357600080fd5b818601915086601f830112610eb757600080fd5b813581811115610ec957610ec9610e4b565b604051601f8201601f19908116603f01168101908382118183101715610ef157610ef1610e4b565b81604052828152896020848701011115610f0a57600080fd5b8260208601602083013760006020848301015280955050505050509250925092565b60008060408385031215610f3f57600080fd5b610f4883610db3565b915060208301358015158114610f5d57600080fd5b809150509250929050565b600080600080600060808688031215610f8057600080fd5b610f8986610db3565b9450610f9760208701610db3565b935060408601359250606086013567ffffffffffffffff80821115610fbb57600080fd5b818801915088601f830112610fcf57600080fd5b813581811115610fde57600080fd5b896020828501011115610ff057600080fd5b9699959850939650602001949392505050565b6000806040838503121561101657600080fd5b61101f83610db3565b915061102d60208401610db3565b90509250929050565b600181811c9082168061104a57607f821691505b60208210810361106a57634e487b7160e01b600052602260045260246000fd5b50919050565b60006020828403121561108257600080fd5b8151610d3e81610d08565b60208082526010908201526f155394d0519157d49150d2541251539560821b604082015260600190565b6001600160a01b038681168252851660208201526040810184905260806060820181905281018290526000828460a0840137600060a0848401015260a0601f19601f8501168301019050969550505050505056fea264697066735822122041b28a3bc4b62e5d656a88c8480e8f517d23d9d46ab860b28db695de6667651364736f6c634300080d0033",
    "linkReferences": {}
  },
  "methodIdentifiers": {
    "approve(address,uint256)": "095ea7b3",
    "balanceOf(address)": "70a08231",
    "getApproved(uint256)": "081812fc",
    "getIdOf(address)": "45377d59",
    "isApprovedForAll(address,address)": "e985e9c5",
    "mintFarmer(address,uint256,string)": "8de6e633",
    "name()": "06fdde03",
    "owner()": "8da5cb5b",
    "ownerOf(uint256)": "6352211e",
    "safeTransferFrom(address,address,uint256)": "42842e0e",
    "safeTransferFrom(address,address,uint256,bytes)": "b88d4fde",
    "setApprovalForAll(address,bool)": "a22cb465",
    "setOwner(address)": "13af4035",
    "supportsInterface(bytes4)": "01ffc9a7",
    "symbol()": "95d89b41",
    "tokenURI(uint256)": "c87b56dd",
    "transferFrom(address,address,uint256)": "23b872dd"
  },
  "id": 23
}