{
  "abi": [
    {
      "inputs": [
        {
          "internalType": "address",
          "name": "_Area",
          "type": "address"
        }
      ],
      "stateMutability": "nonpayable",
      "type": "constructor"
    },
    {
      "anonymous": false,
      "inputs": [
        {
          "indexed": true,
          "internalType": "address",
          "name": "owner",
          "type": "address"
        },
        {
          "indexed": true,
          "internalType": "address",
          "name": "spender",
          "type": "address"
        },
        {
          "indexed": true,
          "internalType": "uint256",
          "name": "id",
          "type": "uint256"
        }
      ],
      "name": "Approval",
      "type": "event"
    },
    {
      "anonymous": false,
      "inputs": [
        {
          "indexed": true,
          "internalType": "address",
          "name": "owner",
          "type": "address"
        },
        {
          "indexed": true,
          "internalType": "address",
          "name": "operator",
          "type": "address"
        },
        {
          "indexed": false,
          "internalType": "bool",
          "name": "approved",
          "type": "bool"
        }
      ],
      "name": "ApprovalForAll",
      "type": "event"
    },
    {
      "anonymous": false,
      "inputs": [
        {
          "indexed": true,
          "internalType": "address",
          "name": "user",
          "type": "address"
        },
        {
          "indexed": true,
          "internalType": "address",
          "name": "newOwner",
          "type": "address"
        }
      ],
      "name": "OwnerUpdated",
      "type": "event"
    },
    {
      "anonymous": false,
      "inputs": [
        {
          "indexed": true,
          "internalType": "address",
          "name": "from",
          "type": "address"
        },
        {
          "indexed": true,
          "internalType": "address",
          "name": "to",
          "type": "address"
        },
        {
          "indexed": true,
          "internalType": "uint256",
          "name": "id",
          "type": "uint256"
        }
      ],
      "name": "Transfer",
      "type": "event"
    },
    {
      "inputs": [
        {
          "internalType": "address",
          "name": "spender",
          "type": "address"
        },
        {
          "internalType": "uint256",
          "name": "id",
          "type": "uint256"
        }
      ],
      "name": "approve",
      "outputs": [],
      "stateMutability": "nonpayable",
      "type": "function"
    },
    {
      "inputs": [
        {
          "internalType": "address",
          "name": "owner",
          "type": "address"
        }
      ],
      "name": "balanceOf",
      "outputs": [
        {
          "internalType": "uint256",
          "name": "",
          "type": "uint256"
        }
      ],
      "stateMutability": "view",
      "type": "function"
    },
    {
      "inputs": [
        {
          "internalType": "uint256",
          "name": "",
          "type": "uint256"
        }
      ],
      "name": "getApproved",
      "outputs": [
        {
          "internalType": "address",
          "name": "",
          "type": "address"
        }
      ],
      "stateMutability": "view",
      "type": "function"
    },
    {
      "inputs": [
        {
          "internalType": "address",
          "name": "",
          "type": "address"
        },
        {
          "internalType": "address",
          "name": "",
          "type": "address"
        }
      ],
      "name": "isApprovedForAll",
      "outputs": [
        {
          "internalType": "bool",
          "name": "",
          "type": "bool"
        }
      ],
      "stateMutability": "view",
      "type": "function"
    },
    {
      "inputs": [
        {
          "internalType": "address",
          "name": "_to",
          "type": "address"
        },
        {
          "internalType": "uint256",
          "name": "_id",
          "type": "uint256"
        },
        {
          "internalType": "string",
          "name": "_uri",
          "type": "string"
        }
      ],
      "name": "mintFarmer",
      "outputs": [
        {
          "internalType": "bool",
          "name": "s",
          "type": "bool"
        }
      ],
      "stateMutability": "nonpayable",
      "type": "function"
    },
    {
      "inputs": [],
      "name": "name",
      "outputs": [
        {
          "internalType": "string",
          "name": "",
          "type": "string"
        }
      ],
      "stateMutability": "view",
      "type": "function"
    },
    {
      "inputs": [],
      "name": "owner",
      "outputs": [
        {
          "internalType": "address",
          "name": "",
          "type": "address"
        }
      ],
      "stateMutability": "view",
      "type": "function"
    },
    {
      "inputs": [
        {
          "internalType": "uint256",
          "name": "id",
          "type": "uint256"
        }
      ],
      "name": "ownerOf",
      "outputs": [
        {
          "internalType": "address",
          "name": "owner",
          "type": "address"
        }
      ],
      "stateMutability": "view",
      "type": "function"
    },
    {
      "inputs": [
        {
          "internalType": "address",
          "name": "from",
          "type": "address"
        },
        {
          "internalType": "address",
          "name": "to",
          "type": "address"
        },
        {
          "internalType": "uint256",
          "name": "id",
          "type": "uint256"
        }
      ],
      "name": "safeTransferFrom",
      "outputs": [],
      "stateMutability": "nonpayable",
      "type": "function"
    },
    {
      "inputs": [
        {
          "internalType": "address",
          "name": "from",
          "type": "address"
        },
        {
          "internalType": "address",
          "name": "to",
          "type": "address"
        },
        {
          "internalType": "uint256",
          "name": "id",
          "type": "uint256"
        },
        {
          "internalType": "bytes",
          "name": "data",
          "type": "bytes"
        }
      ],
      "name": "safeTransferFrom",
      "outputs": [],
      "stateMutability": "nonpayable",
      "type": "function"
    },
    {
      "inputs": [
        {
          "internalType": "address",
          "name": "operator",
          "type": "address"
        },
        {
          "internalType": "bool",
          "name": "approved",
          "type": "bool"
        }
      ],
      "name": "setApprovalForAll",
      "outputs": [],
      "stateMutability": "nonpayable",
      "type": "function"
    },
    {
      "inputs": [
        {
          "internalType": "address",
          "name": "newOwner",
          "type": "address"
        }
      ],
      "name": "setOwner",
      "outputs": [],
      "stateMutability": "nonpayable",
      "type": "function"
    },
    {
      "inputs": [
        {
          "internalType": "bytes4",
          "name": "interfaceId",
          "type": "bytes4"
        }
      ],
      "name": "supportsInterface",
      "outputs": [
        {
          "internalType": "bool",
          "name": "",
          "type": "bool"
        }
      ],
      "stateMutability": "view",
      "type": "function"
    },
    {
      "inputs": [],
      "name": "symbol",
      "outputs": [
        {
          "internalType": "string",
          "name": "",
          "type": "string"
        }
      ],
      "stateMutability": "view",
      "type": "function"
    },
    {
      "inputs": [
        {
          "internalType": "uint256",
          "name": "id",
          "type": "uint256"
        }
      ],
      "name": "tokenURI",
      "outputs": [
        {
          "internalType": "string",
          "name": "",
          "type": "string"
        }
      ],
      "stateMutability": "view",
      "type": "function"
    },
    {
      "inputs": [
        {
          "internalType": "address",
          "name": "from",
          "type": "address"
        },
        {
          "internalType": "address",
          "name": "to",
          "type": "address"
        },
        {
          "internalType": "uint256",
          "name": "id",
          "type": "uint256"
        }
      ],
      "name": "transferFrom",
      "outputs": [],
      "stateMutability": "nonpayable",
      "type": "function"
    }
  ],
  "bytecode": {
    "object": "0x60806040523480156200001157600080fd5b50604051620012fc380380620012fc8339810160408190526200003491620001b0565b60408051808201825260068152652330b936b2b960d11b6020808301918252835180850190945260048452634641724d60e01b9084015281513393916200007f91600091906200010a565b508051620000959060019060208401906200010a565b5050600680546001600160a01b0319166001600160a01b0384169081179091556040519091506000907f8292fce18fa69edf4db7b94ea2e58241df0ae57f97e0a6c9b29067028bf92d76908290a350600680546001600160a01b0319166001600160a01b03929092169190911790556200021e565b8280546200011890620001e2565b90600052602060002090601f0160209004810192826200013c576000855562000187565b82601f106200015757805160ff191683800117855562000187565b8280016001018555821562000187579182015b82811115620001875782518255916020019190600101906200016a565b506200019592915062000199565b5090565b5b808211156200019557600081556001016200019a565b600060208284031215620001c357600080fd5b81516001600160a01b0381168114620001db57600080fd5b9392505050565b600181811c90821680620001f757607f821691505b6020821081036200021857634e487b7160e01b600052602260045260246000fd5b50919050565b6110ce806200022e6000396000f3fe608060405234801561001057600080fd5b50600436106101005760003560e01c806370a0823111610097578063a22cb46511610066578063a22cb46514610233578063b88d4fde14610241578063c87b56dd14610254578063e985e9c51461026757600080fd5b806370a08231146101e45780638da5cb5b146102055780638de6e6331461021857806395d89b411461022b57600080fd5b806313af4035116100d357806313af40351461019857806323b872dd146101ab57806342842e0e146101be5780636352211e146101d157600080fd5b806301ffc9a71461010557806306fdde031461012d578063081812fc14610142578063095ea7b314610183575b600080fd5b610118610113366004610cae565b610295565b60405190151581526020015b60405180910390f35b6101356102e7565b6040516101249190610cd2565b61016b610150366004610d27565b6004602052600090815260409020546001600160a01b031681565b6040516001600160a01b039091168152602001610124565b610196610191366004610d57565b610375565b005b6101966101a6366004610d81565b6103bb565b6101966101b9366004610d9c565b610450565b6101966101cc366004610d9c565b6104c4565b61016b6101df366004610d27565b610594565b6101f76101f2366004610d81565b6105eb565b604051908152602001610124565b60065461016b906001600160a01b031681565b610118610226366004610dee565b61064e565b6101356106e6565b610196610191366004610eb9565b61019661024f366004610ef5565b6106f3565b610135610262366004610d27565b6107b8565b610118610275366004610f90565b600560209081526000928352604080842090915290825290205460ff1681565b60006301ffc9a760e01b6001600160e01b0319831614806102c657506380ac58cd60e01b6001600160e01b03198316145b806102e15750635b5e139f60e01b6001600160e01b03198316145b92915050565b600080546102f490610fc3565b80601f016020809104026020016040519081016040528092919081815260200182805461032090610fc3565b801561036d5780601f106103425761010080835404028352916020019161036d565b820191906000526020600020905b81548152906001019060200180831161035057829003601f168201915b505050505081565b60405162461bcd60e51b81526020600482015260166024820152752193b2b9ba103732903830b9903837b9b9b4b136329760511b60448201526064015b60405180910390fd5b6006546001600160a01b031633146104045760405162461bcd60e51b815260206004820152600c60248201526b15539055551213d49256915160a21b60448201526064016103b2565b600680546001600160a01b0319166001600160a01b03831690811790915560405133907f8292fce18fa69edf4db7b94ea2e58241df0ae57f97e0a6c9b29067028bf92d7690600090a350565b6001600160a01b03821615158061046f57506001600160a01b03831615155b156104b45760405162461bcd60e51b8152602060048201526015602482015274526f6c65206e6f74207472616e7366657261626c6560581b60448201526064016103b2565b6104bf83838361085a565b505050565b6104cf838383610450565b6001600160a01b0382163b15806105785750604051630a85bd0160e11b8082523360048301526001600160a01b03858116602484015260448301849052608060648401526000608484015290919084169063150b7a029060a4016020604051808303816000875af1158015610548573d6000803e3d6000fd5b505050506040513d601f19601f8201168201806040525081019061056c9190610ffd565b6001600160e01b031916145b6104bf5760405162461bcd60e51b81526004016103b29061101a565b6000818152600260205260409020546001600160a01b0316806105e65760405162461bcd60e51b815260206004820152600a6024820152691393d517d3525395115160b21b60448201526064016103b2565b919050565b60006001600160a01b0382166106325760405162461bcd60e51b815260206004820152600c60248201526b5a45524f5f4144445245535360a01b60448201526064016103b2565b506001600160a01b031660009081526003602052604090205490565b6006546000906001600160a01b0316331461069a5760405162461bcd60e51b815260206004820152600c60248201526b15539055551213d49256915160a21b60448201526064016103b2565b60006106a5856105eb565b600085815260076020908152604090912085519293506106c9929091860190610bfc565b506106d48585610a21565b6106dd856105eb565b11949350505050565b600180546102f490610fc3565b6106fe858585610450565b6001600160a01b0384163b15806107955750604051630a85bd0160e11b808252906001600160a01b0386169063150b7a02906107469033908a90899089908990600401611044565b6020604051808303816000875af1158015610765573d6000803e3d6000fd5b505050506040513d601f19601f820116820180604052508101906107899190610ffd565b6001600160e01b031916145b6107b15760405162461bcd60e51b81526004016103b29061101a565b5050505050565b60008181526007602052604090208054606091906107d590610fc3565b80601f016020809104026020016040519081016040528092919081815260200182805461080190610fc3565b801561084e5780601f106108235761010080835404028352916020019161084e565b820191906000526020600020905b81548152906001019060200180831161083157829003601f168201915b50505050509050919050565b6000818152600260205260409020546001600160a01b038481169116146108b05760405162461bcd60e51b815260206004820152600a60248201526957524f4e475f46524f4d60b01b60448201526064016103b2565b6001600160a01b0382166108fa5760405162461bcd60e51b81526020600482015260116024820152701253959053125117d49150d25412515395607a1b60448201526064016103b2565b336001600160a01b038416148061093457506001600160a01b038316600090815260056020908152604080832033845290915290205460ff165b8061095557506000818152600460205260409020546001600160a01b031633145b6109925760405162461bcd60e51b815260206004820152600e60248201526d1393d517d055551213d49256915160921b60448201526064016103b2565b6001600160a01b0380841660008181526003602090815260408083208054600019019055938616808352848320805460010190558583526002825284832080546001600160a01b03199081168317909155600490925284832080549092169091559251849392917fddf252ad1be2c89b69c2b068fc378daa952ba7f163c4a11628f55a4df523b3ef91a4505050565b610a2b8282610af1565b6001600160a01b0382163b1580610ad15750604051630a85bd0160e11b80825233600483015260006024830181905260448301849052608060648401526084830152906001600160a01b0384169063150b7a029060a4016020604051808303816000875af1158015610aa1573d6000803e3d6000fd5b505050506040513d601f19601f82011682018060405250810190610ac59190610ffd565b6001600160e01b031916145b610aed5760405162461bcd60e51b81526004016103b29061101a565b5050565b6001600160a01b038216610b3b5760405162461bcd60e51b81526020600482015260116024820152701253959053125117d49150d25412515395607a1b60448201526064016103b2565b6000818152600260205260409020546001600160a01b031615610b915760405162461bcd60e51b815260206004820152600e60248201526d1053149150511657d3525395115160921b60448201526064016103b2565b6001600160a01b038216600081815260036020908152604080832080546001019055848352600290915280822080546001600160a01b0319168417905551839291907fddf252ad1be2c89b69c2b068fc378daa952ba7f163c4a11628f55a4df523b3ef908290a45050565b828054610c0890610fc3565b90600052602060002090601f016020900481019282610c2a5760008555610c70565b82601f10610c4357805160ff1916838001178555610c70565b82800160010185558215610c70579182015b82811115610c70578251825591602001919060010190610c55565b50610c7c929150610c80565b5090565b5b80821115610c7c5760008155600101610c81565b6001600160e01b031981168114610cab57600080fd5b50565b600060208284031215610cc057600080fd5b8135610ccb81610c95565b9392505050565b600060208083528351808285015260005b81811015610cff57858101830151858201604001528201610ce3565b81811115610d11576000604083870101525b50601f01601f1916929092016040019392505050565b600060208284031215610d3957600080fd5b5035919050565b80356001600160a01b03811681146105e657600080fd5b60008060408385031215610d6a57600080fd5b610d7383610d40565b946020939093013593505050565b600060208284031215610d9357600080fd5b610ccb82610d40565b600080600060608486031215610db157600080fd5b610dba84610d40565b9250610dc860208501610d40565b9150604084013590509250925092565b634e487b7160e01b600052604160045260246000fd5b600080600060608486031215610e0357600080fd5b610e0c84610d40565b925060208401359150604084013567ffffffffffffffff80821115610e3057600080fd5b818601915086601f830112610e4457600080fd5b813581811115610e5657610e56610dd8565b604051601f8201601f19908116603f01168101908382118183101715610e7e57610e7e610dd8565b81604052828152896020848701011115610e9757600080fd5b8260208601602083013760006020848301015280955050505050509250925092565b60008060408385031215610ecc57600080fd5b610ed583610d40565b915060208301358015158114610eea57600080fd5b809150509250929050565b600080600080600060808688031215610f0d57600080fd5b610f1686610d40565b9450610f2460208701610d40565b935060408601359250606086013567ffffffffffffffff80821115610f4857600080fd5b818801915088601f830112610f5c57600080fd5b813581811115610f6b57600080fd5b896020828501011115610f7d57600080fd5b9699959850939650602001949392505050565b60008060408385031215610fa357600080fd5b610fac83610d40565b9150610fba60208401610d40565b90509250929050565b600181811c90821680610fd757607f821691505b602082108103610ff757634e487b7160e01b600052602260045260246000fd5b50919050565b60006020828403121561100f57600080fd5b8151610ccb81610c95565b60208082526010908201526f155394d0519157d49150d2541251539560821b604082015260600190565b6001600160a01b038681168252851660208201526040810184905260806060820181905281018290526000828460a0840137600060a0848401015260a0601f19601f8501168301019050969550505050505056fea264697066735822122092744971ef5a044b1b21cd5e5bb5fcf9060db18ea8aec382e8f30184e2c347e164736f6c634300080d0033",
    "linkReferences": {}
  },
  "methodIdentifiers": {
    "approve(address,uint256)": "095ea7b3",
    "balanceOf(address)": "70a08231",
    "getApproved(uint256)": "081812fc",
    "isApprovedForAll(address,address)": "e985e9c5",
    "mintFarmer(address,uint256,string)": "8de6e633",
    "name()": "06fdde03",
    "owner()": "8da5cb5b",
    "ownerOf(uint256)": "6352211e",
    "safeTransferFrom(address,address,uint256)": "42842e0e",
    "safeTransferFrom(address,address,uint256,bytes)": "b88d4fde",
    "setApprovalForAll(address,bool)": "a22cb465",
    "setOwner(address)": "13af4035",
    "supportsInterface(bytes4)": "01ffc9a7",
    "symbol()": "95d89b41",
    "tokenURI(uint256)": "c87b56dd",
    "transferFrom(address,address,uint256)": "23b872dd"
  },
  "id": 21
}