{
  "abi": [
    {
      "inputs": [
        {
          "internalType": "address",
          "name": "_Area",
          "type": "address"
        }
      ],
      "stateMutability": "nonpayable",
      "type": "constructor"
    },
    {
      "anonymous": false,
      "inputs": [
        {
          "indexed": true,
          "internalType": "address",
          "name": "owner",
          "type": "address"
        },
        {
          "indexed": true,
          "internalType": "address",
          "name": "spender",
          "type": "address"
        },
        {
          "indexed": true,
          "internalType": "uint256",
          "name": "id",
          "type": "uint256"
        }
      ],
      "name": "Approval",
      "type": "event"
    },
    {
      "anonymous": false,
      "inputs": [
        {
          "indexed": true,
          "internalType": "address",
          "name": "owner",
          "type": "address"
        },
        {
          "indexed": true,
          "internalType": "address",
          "name": "operator",
          "type": "address"
        },
        {
          "indexed": false,
          "internalType": "bool",
          "name": "approved",
          "type": "bool"
        }
      ],
      "name": "ApprovalForAll",
      "type": "event"
    },
    {
      "anonymous": false,
      "inputs": [
        {
          "indexed": true,
          "internalType": "address",
          "name": "user",
          "type": "address"
        },
        {
          "indexed": true,
          "internalType": "address",
          "name": "newOwner",
          "type": "address"
        }
      ],
      "name": "OwnerUpdated",
      "type": "event"
    },
    {
      "anonymous": false,
      "inputs": [
        {
          "indexed": true,
          "internalType": "address",
          "name": "from",
          "type": "address"
        },
        {
          "indexed": true,
          "internalType": "address",
          "name": "to",
          "type": "address"
        },
        {
          "indexed": true,
          "internalType": "uint256",
          "name": "id",
          "type": "uint256"
        }
      ],
      "name": "Transfer",
      "type": "event"
    },
    {
      "inputs": [
        {
          "internalType": "address",
          "name": "spender",
          "type": "address"
        },
        {
          "internalType": "uint256",
          "name": "id",
          "type": "uint256"
        }
      ],
      "name": "approve",
      "outputs": [],
      "stateMutability": "nonpayable",
      "type": "function"
    },
    {
      "inputs": [
        {
          "internalType": "address",
          "name": "owner",
          "type": "address"
        }
      ],
      "name": "balanceOf",
      "outputs": [
        {
          "internalType": "uint256",
          "name": "",
          "type": "uint256"
        }
      ],
      "stateMutability": "view",
      "type": "function"
    },
    {
      "inputs": [
        {
          "internalType": "uint256",
          "name": "",
          "type": "uint256"
        }
      ],
      "name": "getApproved",
      "outputs": [
        {
          "internalType": "address",
          "name": "",
          "type": "address"
        }
      ],
      "stateMutability": "view",
      "type": "function"
    },
    {
      "inputs": [
        {
          "internalType": "address",
          "name": "_c",
          "type": "address"
        }
      ],
      "name": "getIdOfConsummer",
      "outputs": [
        {
          "internalType": "uint256",
          "name": "",
          "type": "uint256"
        }
      ],
      "stateMutability": "view",
      "type": "function"
    },
    {
      "inputs": [
        {
          "internalType": "address",
          "name": "",
          "type": "address"
        },
        {
          "internalType": "address",
          "name": "",
          "type": "address"
        }
      ],
      "name": "isApprovedForAll",
      "outputs": [
        {
          "internalType": "bool",
          "name": "",
          "type": "bool"
        }
      ],
      "stateMutability": "view",
      "type": "function"
    },
    {
      "inputs": [
        {
          "internalType": "address",
          "name": "_to",
          "type": "address"
        },
        {
          "internalType": "uint256",
          "name": "_id",
          "type": "uint256"
        },
        {
          "internalType": "string",
          "name": "_uri",
          "type": "string"
        }
      ],
      "name": "mintConsumer",
      "outputs": [
        {
          "internalType": "bool",
          "name": "",
          "type": "bool"
        }
      ],
      "stateMutability": "nonpayable",
      "type": "function"
    },
    {
      "inputs": [],
      "name": "name",
      "outputs": [
        {
          "internalType": "string",
          "name": "",
          "type": "string"
        }
      ],
      "stateMutability": "view",
      "type": "function"
    },
    {
      "inputs": [],
      "name": "owner",
      "outputs": [
        {
          "internalType": "address",
          "name": "",
          "type": "address"
        }
      ],
      "stateMutability": "view",
      "type": "function"
    },
    {
      "inputs": [
        {
          "internalType": "uint256",
          "name": "id",
          "type": "uint256"
        }
      ],
      "name": "ownerOf",
      "outputs": [
        {
          "internalType": "address",
          "name": "owner",
          "type": "address"
        }
      ],
      "stateMutability": "view",
      "type": "function"
    },
    {
      "inputs": [
        {
          "internalType": "address",
          "name": "from",
          "type": "address"
        },
        {
          "internalType": "address",
          "name": "to",
          "type": "address"
        },
        {
          "internalType": "uint256",
          "name": "id",
          "type": "uint256"
        }
      ],
      "name": "safeTransferFrom",
      "outputs": [],
      "stateMutability": "nonpayable",
      "type": "function"
    },
    {
      "inputs": [
        {
          "internalType": "address",
          "name": "from",
          "type": "address"
        },
        {
          "internalType": "address",
          "name": "to",
          "type": "address"
        },
        {
          "internalType": "uint256",
          "name": "id",
          "type": "uint256"
        },
        {
          "internalType": "bytes",
          "name": "data",
          "type": "bytes"
        }
      ],
      "name": "safeTransferFrom",
      "outputs": [],
      "stateMutability": "nonpayable",
      "type": "function"
    },
    {
      "inputs": [
        {
          "internalType": "address",
          "name": "operator",
          "type": "address"
        },
        {
          "internalType": "bool",
          "name": "approved",
          "type": "bool"
        }
      ],
      "name": "setApprovalForAll",
      "outputs": [],
      "stateMutability": "nonpayable",
      "type": "function"
    },
    {
      "inputs": [
        {
          "internalType": "address",
          "name": "newOwner",
          "type": "address"
        }
      ],
      "name": "setOwner",
      "outputs": [],
      "stateMutability": "nonpayable",
      "type": "function"
    },
    {
      "inputs": [
        {
          "internalType": "bytes4",
          "name": "interfaceId",
          "type": "bytes4"
        }
      ],
      "name": "supportsInterface",
      "outputs": [
        {
          "internalType": "bool",
          "name": "",
          "type": "bool"
        }
      ],
      "stateMutability": "view",
      "type": "function"
    },
    {
      "inputs": [],
      "name": "symbol",
      "outputs": [
        {
          "internalType": "string",
          "name": "",
          "type": "string"
        }
      ],
      "stateMutability": "view",
      "type": "function"
    },
    {
      "inputs": [
        {
          "internalType": "uint256",
          "name": "id",
          "type": "uint256"
        }
      ],
      "name": "tokenURI",
      "outputs": [
        {
          "internalType": "string",
          "name": "",
          "type": "string"
        }
      ],
      "stateMutability": "view",
      "type": "function"
    },
    {
      "inputs": [
        {
          "internalType": "address",
          "name": "from",
          "type": "address"
        },
        {
          "internalType": "address",
          "name": "to",
          "type": "address"
        },
        {
          "internalType": "uint256",
          "name": "id",
          "type": "uint256"
        }
      ],
      "name": "transferFrom",
      "outputs": [],
      "stateMutability": "nonpayable",
      "type": "function"
    }
  ],
  "bytecode": {
    "object": "0x60806040523480156200001157600080fd5b50604051620013b2380380620013b2833981016040819052620000349162000216565b604080518082018252600881526721b7b739bab6b2b960c11b6020808301918252835180850190945260048452634541545360e01b90840152815133939162000081916000919062000170565b5080516200009790600190602084019062000170565b5050600680546001600160a01b0319166001600160a01b03841690811790915560405190915060009060008051602062001392833981519152908290a350620000e081620000e7565b5062000284565b6006546001600160a01b03163314620001355760405162461bcd60e51b815260206004820152600c60248201526b15539055551213d49256915160a21b604482015260640160405180910390fd5b600680546001600160a01b0319166001600160a01b03831690811790915560405133906000805160206200139283398151915290600090a350565b8280546200017e9062000248565b90600052602060002090601f016020900481019282620001a25760008555620001ed565b82601f10620001bd57805160ff1916838001178555620001ed565b82800160010185558215620001ed579182015b82811115620001ed578251825591602001919060010190620001d0565b50620001fb929150620001ff565b5090565b5b80821115620001fb576000815560010162000200565b6000602082840312156200022957600080fd5b81516001600160a01b03811681146200024157600080fd5b9392505050565b600181811c908216806200025d57607f821691505b6020821081036200027e57634e487b7160e01b600052602260045260246000fd5b50919050565b6110fe80620002946000396000f3fe608060405234801561001057600080fd5b506004361061010b5760003560e01c806370a08231116100a2578063a22cb46511610071578063a22cb46514610254578063b74f17fb14610262578063b88d4fde14610275578063c87b56dd14610288578063e985e9c51461029b57600080fd5b806370a08231146101ef5780638da5cb5b14610210578063950abc1e1461022357806395d89b411461024c57600080fd5b806313af4035116100de57806313af4035146101a357806323b872dd146101b657806342842e0e146101c95780636352211e146101dc57600080fd5b806301ffc9a71461011057806306fdde0314610138578063081812fc1461014d578063095ea7b31461018e575b600080fd5b61012361011e366004610cde565b6102c9565b60405190151581526020015b60405180910390f35b61014061031b565b60405161012f9190610d02565b61017661015b366004610d57565b6004602052600090815260409020546001600160a01b031681565b6040516001600160a01b03909116815260200161012f565b6101a161019c366004610d87565b6103a9565b005b6101a16101b1366004610db1565b6103ef565b6101a16101c4366004610dcc565b610484565b6101a16101d7366004610dcc565b6104f8565b6101766101ea366004610d57565b6105c8565b6102026101fd366004610db1565b61061f565b60405190815260200161012f565b600654610176906001600160a01b031681565b610202610231366004610db1565b6001600160a01b031660009081526008602052604090205490565b610140610682565b6101a161019c366004610e08565b610123610270366004610e5a565b61068f565b6101a1610283366004610f25565b610723565b610140610296366004610d57565b6107e8565b6101236102a9366004610fc0565b600560209081526000928352604080842090915290825290205460ff1681565b60006301ffc9a760e01b6001600160e01b0319831614806102fa57506380ac58cd60e01b6001600160e01b03198316145b806103155750635b5e139f60e01b6001600160e01b03198316145b92915050565b6000805461032890610ff3565b80601f016020809104026020016040519081016040528092919081815260200182805461035490610ff3565b80156103a15780601f10610376576101008083540402835291602001916103a1565b820191906000526020600020905b81548152906001019060200180831161038457829003601f168201915b505050505081565b60405162461bcd60e51b81526020600482015260166024820152752193b2b9ba103732903830b9903837b9b9b4b136329760511b60448201526064015b60405180910390fd5b6006546001600160a01b031633146104385760405162461bcd60e51b815260206004820152600c60248201526b15539055551213d49256915160a21b60448201526064016103e6565b600680546001600160a01b0319166001600160a01b03831690811790915560405133907f8292fce18fa69edf4db7b94ea2e58241df0ae57f97e0a6c9b29067028bf92d7690600090a350565b6001600160a01b0382161515806104a357506001600160a01b03831615155b156104e85760405162461bcd60e51b8152602060048201526015602482015274526f6c65206e6f74207472616e7366657261626c6560581b60448201526064016103e6565b6104f383838361088a565b505050565b610503838383610484565b6001600160a01b0382163b15806105ac5750604051630a85bd0160e11b8082523360048301526001600160a01b03858116602484015260448301849052608060648401526000608484015290919084169063150b7a029060a4016020604051808303816000875af115801561057c573d6000803e3d6000fd5b505050506040513d601f19601f820116820180604052508101906105a0919061102d565b6001600160e01b031916145b6104f35760405162461bcd60e51b81526004016103e69061104a565b6000818152600260205260409020546001600160a01b03168061061a5760405162461bcd60e51b815260206004820152600a6024820152691393d517d3525395115160b21b60448201526064016103e6565b919050565b60006001600160a01b0382166106665760405162461bcd60e51b815260206004820152600c60248201526b5a45524f5f4144445245535360a01b60448201526064016103e6565b506001600160a01b031660009081526003602052604090205490565b6001805461032890610ff3565b6006546000906001600160a01b031633146106db5760405162461bcd60e51b815260206004820152600c60248201526b15539055551213d49256915160a21b60448201526064016103e6565b6106e58484610a51565b6001600160a01b038416600090815260086020908152604080832086905585835260078252909120835161071b92850190610c2c565b509392505050565b61072e858585610484565b6001600160a01b0384163b15806107c55750604051630a85bd0160e11b808252906001600160a01b0386169063150b7a02906107769033908a90899089908990600401611074565b6020604051808303816000875af1158015610795573d6000803e3d6000fd5b505050506040513d601f19601f820116820180604052508101906107b9919061102d565b6001600160e01b031916145b6107e15760405162461bcd60e51b81526004016103e69061104a565b5050505050565b600081815260076020526040902080546060919061080590610ff3565b80601f016020809104026020016040519081016040528092919081815260200182805461083190610ff3565b801561087e5780601f106108535761010080835404028352916020019161087e565b820191906000526020600020905b81548152906001019060200180831161086157829003601f168201915b50505050509050919050565b6000818152600260205260409020546001600160a01b038481169116146108e05760405162461bcd60e51b815260206004820152600a60248201526957524f4e475f46524f4d60b01b60448201526064016103e6565b6001600160a01b03821661092a5760405162461bcd60e51b81526020600482015260116024820152701253959053125117d49150d25412515395607a1b60448201526064016103e6565b336001600160a01b038416148061096457506001600160a01b038316600090815260056020908152604080832033845290915290205460ff165b8061098557506000818152600460205260409020546001600160a01b031633145b6109c25760405162461bcd60e51b815260206004820152600e60248201526d1393d517d055551213d49256915160921b60448201526064016103e6565b6001600160a01b0380841660008181526003602090815260408083208054600019019055938616808352848320805460010190558583526002825284832080546001600160a01b03199081168317909155600490925284832080549092169091559251849392917fddf252ad1be2c89b69c2b068fc378daa952ba7f163c4a11628f55a4df523b3ef91a4505050565b610a5b8282610b21565b6001600160a01b0382163b1580610b015750604051630a85bd0160e11b80825233600483015260006024830181905260448301849052608060648401526084830152906001600160a01b0384169063150b7a029060a4016020604051808303816000875af1158015610ad1573d6000803e3d6000fd5b505050506040513d601f19601f82011682018060405250810190610af5919061102d565b6001600160e01b031916145b610b1d5760405162461bcd60e51b81526004016103e69061104a565b5050565b6001600160a01b038216610b6b5760405162461bcd60e51b81526020600482015260116024820152701253959053125117d49150d25412515395607a1b60448201526064016103e6565b6000818152600260205260409020546001600160a01b031615610bc15760405162461bcd60e51b815260206004820152600e60248201526d1053149150511657d3525395115160921b60448201526064016103e6565b6001600160a01b038216600081815260036020908152604080832080546001019055848352600290915280822080546001600160a01b0319168417905551839291907fddf252ad1be2c89b69c2b068fc378daa952ba7f163c4a11628f55a4df523b3ef908290a45050565b828054610c3890610ff3565b90600052602060002090601f016020900481019282610c5a5760008555610ca0565b82601f10610c7357805160ff1916838001178555610ca0565b82800160010185558215610ca0579182015b82811115610ca0578251825591602001919060010190610c85565b50610cac929150610cb0565b5090565b5b80821115610cac5760008155600101610cb1565b6001600160e01b031981168114610cdb57600080fd5b50565b600060208284031215610cf057600080fd5b8135610cfb81610cc5565b9392505050565b600060208083528351808285015260005b81811015610d2f57858101830151858201604001528201610d13565b81811115610d41576000604083870101525b50601f01601f1916929092016040019392505050565b600060208284031215610d6957600080fd5b5035919050565b80356001600160a01b038116811461061a57600080fd5b60008060408385031215610d9a57600080fd5b610da383610d70565b946020939093013593505050565b600060208284031215610dc357600080fd5b610cfb82610d70565b600080600060608486031215610de157600080fd5b610dea84610d70565b9250610df860208501610d70565b9150604084013590509250925092565b60008060408385031215610e1b57600080fd5b610e2483610d70565b915060208301358015158114610e3957600080fd5b809150509250929050565b634e487b7160e01b600052604160045260246000fd5b600080600060608486031215610e6f57600080fd5b610e7884610d70565b925060208401359150604084013567ffffffffffffffff80821115610e9c57600080fd5b818601915086601f830112610eb057600080fd5b813581811115610ec257610ec2610e44565b604051601f8201601f19908116603f01168101908382118183101715610eea57610eea610e44565b81604052828152896020848701011115610f0357600080fd5b8260208601602083013760006020848301015280955050505050509250925092565b600080600080600060808688031215610f3d57600080fd5b610f4686610d70565b9450610f5460208701610d70565b935060408601359250606086013567ffffffffffffffff80821115610f7857600080fd5b818801915088601f830112610f8c57600080fd5b813581811115610f9b57600080fd5b896020828501011115610fad57600080fd5b9699959850939650602001949392505050565b60008060408385031215610fd357600080fd5b610fdc83610d70565b9150610fea60208401610d70565b90509250929050565b600181811c9082168061100757607f821691505b60208210810361102757634e487b7160e01b600052602260045260246000fd5b50919050565b60006020828403121561103f57600080fd5b8151610cfb81610cc5565b60208082526010908201526f155394d0519157d49150d2541251539560821b604082015260600190565b6001600160a01b038681168252851660208201526040810184905260806060820181905281018290526000828460a0840137600060a0848401015260a0601f19601f8501168301019050969550505050505056fea2646970667358221220b1cff5f327901dfe5ade06adf0fb84afc2235f198fdd96a5e95033931e6dac9064736f6c634300080d00338292fce18fa69edf4db7b94ea2e58241df0ae57f97e0a6c9b29067028bf92d76",
    "linkReferences": {}
  },
  "methodIdentifiers": {
    "approve(address,uint256)": "095ea7b3",
    "balanceOf(address)": "70a08231",
    "getApproved(uint256)": "081812fc",
    "getIdOfConsummer(address)": "950abc1e",
    "isApprovedForAll(address,address)": "e985e9c5",
    "mintConsumer(address,uint256,string)": "b74f17fb",
    "name()": "06fdde03",
    "owner()": "8da5cb5b",
    "ownerOf(uint256)": "6352211e",
    "safeTransferFrom(address,address,uint256)": "42842e0e",
    "safeTransferFrom(address,address,uint256,bytes)": "b88d4fde",
    "setApprovalForAll(address,bool)": "a22cb465",
    "setOwner(address)": "13af4035",
    "supportsInterface(bytes4)": "01ffc9a7",
    "symbol()": "95d89b41",
    "tokenURI(uint256)": "c87b56dd",
    "transferFrom(address,address,uint256)": "23b872dd"
  },
  "id": 21
}