{
  "abi": [
    {
      "inputs": [
        {
          "internalType": "address",
          "name": "_Area",
          "type": "address"
        }
      ],
      "stateMutability": "nonpayable",
      "type": "constructor"
    },
    {
      "anonymous": false,
      "inputs": [
        {
          "indexed": true,
          "internalType": "address",
          "name": "owner",
          "type": "address"
        },
        {
          "indexed": true,
          "internalType": "address",
          "name": "spender",
          "type": "address"
        },
        {
          "indexed": true,
          "internalType": "uint256",
          "name": "id",
          "type": "uint256"
        }
      ],
      "name": "Approval",
      "type": "event"
    },
    {
      "anonymous": false,
      "inputs": [
        {
          "indexed": true,
          "internalType": "address",
          "name": "owner",
          "type": "address"
        },
        {
          "indexed": true,
          "internalType": "address",
          "name": "operator",
          "type": "address"
        },
        {
          "indexed": false,
          "internalType": "bool",
          "name": "approved",
          "type": "bool"
        }
      ],
      "name": "ApprovalForAll",
      "type": "event"
    },
    {
      "anonymous": false,
      "inputs": [
        {
          "indexed": true,
          "internalType": "address",
          "name": "user",
          "type": "address"
        },
        {
          "indexed": true,
          "internalType": "address",
          "name": "newOwner",
          "type": "address"
        }
      ],
      "name": "OwnerUpdated",
      "type": "event"
    },
    {
      "anonymous": false,
      "inputs": [
        {
          "indexed": true,
          "internalType": "address",
          "name": "from",
          "type": "address"
        },
        {
          "indexed": true,
          "internalType": "address",
          "name": "to",
          "type": "address"
        },
        {
          "indexed": true,
          "internalType": "uint256",
          "name": "id",
          "type": "uint256"
        }
      ],
      "name": "Transfer",
      "type": "event"
    },
    {
      "inputs": [
        {
          "internalType": "address",
          "name": "spender",
          "type": "address"
        },
        {
          "internalType": "uint256",
          "name": "id",
          "type": "uint256"
        }
      ],
      "name": "approve",
      "outputs": [],
      "stateMutability": "nonpayable",
      "type": "function"
    },
    {
      "inputs": [
        {
          "internalType": "address",
          "name": "owner",
          "type": "address"
        }
      ],
      "name": "balanceOf",
      "outputs": [
        {
          "internalType": "uint256",
          "name": "",
          "type": "uint256"
        }
      ],
      "stateMutability": "view",
      "type": "function"
    },
    {
      "inputs": [
        {
          "internalType": "uint256",
          "name": "",
          "type": "uint256"
        }
      ],
      "name": "getApproved",
      "outputs": [
        {
          "internalType": "address",
          "name": "",
          "type": "address"
        }
      ],
      "stateMutability": "view",
      "type": "function"
    },
    {
      "inputs": [
        {
          "internalType": "address",
          "name": "",
          "type": "address"
        },
        {
          "internalType": "address",
          "name": "",
          "type": "address"
        }
      ],
      "name": "isApprovedForAll",
      "outputs": [
        {
          "internalType": "bool",
          "name": "",
          "type": "bool"
        }
      ],
      "stateMutability": "view",
      "type": "function"
    },
    {
      "inputs": [
        {
          "internalType": "address",
          "name": "_to",
          "type": "address"
        },
        {
          "internalType": "uint256",
          "name": "_id",
          "type": "uint256"
        },
        {
          "internalType": "string",
          "name": "_uri",
          "type": "string"
        }
      ],
      "name": "mintConsumer",
      "outputs": [
        {
          "internalType": "bool",
          "name": "",
          "type": "bool"
        }
      ],
      "stateMutability": "nonpayable",
      "type": "function"
    },
    {
      "inputs": [],
      "name": "name",
      "outputs": [
        {
          "internalType": "string",
          "name": "",
          "type": "string"
        }
      ],
      "stateMutability": "view",
      "type": "function"
    },
    {
      "inputs": [],
      "name": "owner",
      "outputs": [
        {
          "internalType": "address",
          "name": "",
          "type": "address"
        }
      ],
      "stateMutability": "view",
      "type": "function"
    },
    {
      "inputs": [
        {
          "internalType": "uint256",
          "name": "id",
          "type": "uint256"
        }
      ],
      "name": "ownerOf",
      "outputs": [
        {
          "internalType": "address",
          "name": "owner",
          "type": "address"
        }
      ],
      "stateMutability": "view",
      "type": "function"
    },
    {
      "inputs": [
        {
          "internalType": "address",
          "name": "from",
          "type": "address"
        },
        {
          "internalType": "address",
          "name": "to",
          "type": "address"
        },
        {
          "internalType": "uint256",
          "name": "id",
          "type": "uint256"
        }
      ],
      "name": "safeTransferFrom",
      "outputs": [],
      "stateMutability": "nonpayable",
      "type": "function"
    },
    {
      "inputs": [
        {
          "internalType": "address",
          "name": "from",
          "type": "address"
        },
        {
          "internalType": "address",
          "name": "to",
          "type": "address"
        },
        {
          "internalType": "uint256",
          "name": "id",
          "type": "uint256"
        },
        {
          "internalType": "bytes",
          "name": "data",
          "type": "bytes"
        }
      ],
      "name": "safeTransferFrom",
      "outputs": [],
      "stateMutability": "nonpayable",
      "type": "function"
    },
    {
      "inputs": [
        {
          "internalType": "address",
          "name": "operator",
          "type": "address"
        },
        {
          "internalType": "bool",
          "name": "approved",
          "type": "bool"
        }
      ],
      "name": "setApprovalForAll",
      "outputs": [],
      "stateMutability": "nonpayable",
      "type": "function"
    },
    {
      "inputs": [
        {
          "internalType": "address",
          "name": "newOwner",
          "type": "address"
        }
      ],
      "name": "setOwner",
      "outputs": [],
      "stateMutability": "nonpayable",
      "type": "function"
    },
    {
      "inputs": [
        {
          "internalType": "bytes4",
          "name": "interfaceId",
          "type": "bytes4"
        }
      ],
      "name": "supportsInterface",
      "outputs": [
        {
          "internalType": "bool",
          "name": "",
          "type": "bool"
        }
      ],
      "stateMutability": "view",
      "type": "function"
    },
    {
      "inputs": [],
      "name": "symbol",
      "outputs": [
        {
          "internalType": "string",
          "name": "",
          "type": "string"
        }
      ],
      "stateMutability": "view",
      "type": "function"
    },
    {
      "inputs": [
        {
          "internalType": "uint256",
          "name": "id",
          "type": "uint256"
        }
      ],
      "name": "tokenURI",
      "outputs": [
        {
          "internalType": "string",
          "name": "",
          "type": "string"
        }
      ],
      "stateMutability": "view",
      "type": "function"
    },
    {
      "inputs": [
        {
          "internalType": "address",
          "name": "from",
          "type": "address"
        },
        {
          "internalType": "address",
          "name": "to",
          "type": "address"
        },
        {
          "internalType": "uint256",
          "name": "id",
          "type": "uint256"
        }
      ],
      "name": "transferFrom",
      "outputs": [],
      "stateMutability": "nonpayable",
      "type": "function"
    }
  ],
  "bytecode": {
    "object": "0x60806040523480156200001157600080fd5b50604051620012e3380380620012e38339810160408190526200003491620001b2565b604080518082018252600881526721b7b739bab6b2b960c11b6020808301918252835180850190945260048452634541545360e01b9084015281513393916200008191600091906200010c565b508051620000979060019060208401906200010c565b5050600680546001600160a01b0319166001600160a01b0384169081179091556040519091506000907f8292fce18fa69edf4db7b94ea2e58241df0ae57f97e0a6c9b29067028bf92d76908290a350600680546001600160a01b0319166001600160a01b039290921691909117905562000220565b8280546200011a90620001e4565b90600052602060002090601f0160209004810192826200013e576000855562000189565b82601f106200015957805160ff191683800117855562000189565b8280016001018555821562000189579182015b82811115620001895782518255916020019190600101906200016c565b50620001979291506200019b565b5090565b5b808211156200019757600081556001016200019c565b600060208284031215620001c557600080fd5b81516001600160a01b0381168114620001dd57600080fd5b9392505050565b600181811c90821680620001f957607f821691505b6020821081036200021a57634e487b7160e01b600052602260045260246000fd5b50919050565b6110b380620002306000396000f3fe608060405234801561001057600080fd5b50600436106101005760003560e01c806370a0823111610097578063b74f17fb11610066578063b74f17fb1461022e578063b88d4fde14610241578063c87b56dd14610254578063e985e9c51461026757600080fd5b806370a08231146101e45780638da5cb5b1461020557806395d89b4114610218578063a22cb4651461022057600080fd5b806313af4035116100d357806313af40351461019857806323b872dd146101ab57806342842e0e146101be5780636352211e146101d157600080fd5b806301ffc9a71461010557806306fdde031461012d578063081812fc14610142578063095ea7b314610183575b600080fd5b610118610113366004610c93565b610295565b60405190151581526020015b60405180910390f35b6101356102e7565b6040516101249190610cb7565b61016b610150366004610d0c565b6004602052600090815260409020546001600160a01b031681565b6040516001600160a01b039091168152602001610124565b610196610191366004610d3c565b610375565b005b6101966101a6366004610d66565b6103bb565b6101966101b9366004610d81565b610450565b6101966101cc366004610d81565b6104c4565b61016b6101df366004610d0c565b610594565b6101f76101f2366004610d66565b6105eb565b604051908152602001610124565b60065461016b906001600160a01b031681565b61013561064e565b610196610191366004610dbd565b61011861023c366004610e0f565b61065b565b61019661024f366004610eda565b6106d8565b610135610262366004610d0c565b61079d565b610118610275366004610f75565b600560209081526000928352604080842090915290825290205460ff1681565b60006301ffc9a760e01b6001600160e01b0319831614806102c657506380ac58cd60e01b6001600160e01b03198316145b806102e15750635b5e139f60e01b6001600160e01b03198316145b92915050565b600080546102f490610fa8565b80601f016020809104026020016040519081016040528092919081815260200182805461032090610fa8565b801561036d5780601f106103425761010080835404028352916020019161036d565b820191906000526020600020905b81548152906001019060200180831161035057829003601f168201915b505050505081565b60405162461bcd60e51b81526020600482015260166024820152752193b2b9ba103732903830b9903837b9b9b4b136329760511b60448201526064015b60405180910390fd5b6006546001600160a01b031633146104045760405162461bcd60e51b815260206004820152600c60248201526b15539055551213d49256915160a21b60448201526064016103b2565b600680546001600160a01b0319166001600160a01b03831690811790915560405133907f8292fce18fa69edf4db7b94ea2e58241df0ae57f97e0a6c9b29067028bf92d7690600090a350565b6001600160a01b03821615158061046f57506001600160a01b03831615155b156104b45760405162461bcd60e51b8152602060048201526015602482015274526f6c65206e6f74207472616e7366657261626c6560581b60448201526064016103b2565b6104bf83838361083f565b505050565b6104cf838383610450565b6001600160a01b0382163b15806105785750604051630a85bd0160e11b8082523360048301526001600160a01b03858116602484015260448301849052608060648401526000608484015290919084169063150b7a029060a4016020604051808303816000875af1158015610548573d6000803e3d6000fd5b505050506040513d601f19601f8201168201806040525081019061056c9190610fe2565b6001600160e01b031916145b6104bf5760405162461bcd60e51b81526004016103b290610fff565b6000818152600260205260409020546001600160a01b0316806105e65760405162461bcd60e51b815260206004820152600a6024820152691393d517d3525395115160b21b60448201526064016103b2565b919050565b60006001600160a01b0382166106325760405162461bcd60e51b815260206004820152600c60248201526b5a45524f5f4144445245535360a01b60448201526064016103b2565b506001600160a01b031660009081526003602052604090205490565b600180546102f490610fa8565b6006546000906001600160a01b031633146106a75760405162461bcd60e51b815260206004820152600c60248201526b15539055551213d49256915160a21b60448201526064016103b2565b6106b18484610a06565b600083815260076020908152604090912083516106d092850190610be1565b509392505050565b6106e3858585610450565b6001600160a01b0384163b158061077a5750604051630a85bd0160e11b808252906001600160a01b0386169063150b7a029061072b9033908a90899089908990600401611029565b6020604051808303816000875af115801561074a573d6000803e3d6000fd5b505050506040513d601f19601f8201168201806040525081019061076e9190610fe2565b6001600160e01b031916145b6107965760405162461bcd60e51b81526004016103b290610fff565b5050505050565b60008181526007602052604090208054606091906107ba90610fa8565b80601f01602080910402602001604051908101604052809291908181526020018280546107e690610fa8565b80156108335780601f1061080857610100808354040283529160200191610833565b820191906000526020600020905b81548152906001019060200180831161081657829003601f168201915b50505050509050919050565b6000818152600260205260409020546001600160a01b038481169116146108955760405162461bcd60e51b815260206004820152600a60248201526957524f4e475f46524f4d60b01b60448201526064016103b2565b6001600160a01b0382166108df5760405162461bcd60e51b81526020600482015260116024820152701253959053125117d49150d25412515395607a1b60448201526064016103b2565b336001600160a01b038416148061091957506001600160a01b038316600090815260056020908152604080832033845290915290205460ff165b8061093a57506000818152600460205260409020546001600160a01b031633145b6109775760405162461bcd60e51b815260206004820152600e60248201526d1393d517d055551213d49256915160921b60448201526064016103b2565b6001600160a01b0380841660008181526003602090815260408083208054600019019055938616808352848320805460010190558583526002825284832080546001600160a01b03199081168317909155600490925284832080549092169091559251849392917fddf252ad1be2c89b69c2b068fc378daa952ba7f163c4a11628f55a4df523b3ef91a4505050565b610a108282610ad6565b6001600160a01b0382163b1580610ab65750604051630a85bd0160e11b80825233600483015260006024830181905260448301849052608060648401526084830152906001600160a01b0384169063150b7a029060a4016020604051808303816000875af1158015610a86573d6000803e3d6000fd5b505050506040513d601f19601f82011682018060405250810190610aaa9190610fe2565b6001600160e01b031916145b610ad25760405162461bcd60e51b81526004016103b290610fff565b5050565b6001600160a01b038216610b205760405162461bcd60e51b81526020600482015260116024820152701253959053125117d49150d25412515395607a1b60448201526064016103b2565b6000818152600260205260409020546001600160a01b031615610b765760405162461bcd60e51b815260206004820152600e60248201526d1053149150511657d3525395115160921b60448201526064016103b2565b6001600160a01b038216600081815260036020908152604080832080546001019055848352600290915280822080546001600160a01b0319168417905551839291907fddf252ad1be2c89b69c2b068fc378daa952ba7f163c4a11628f55a4df523b3ef908290a45050565b828054610bed90610fa8565b90600052602060002090601f016020900481019282610c0f5760008555610c55565b82601f10610c2857805160ff1916838001178555610c55565b82800160010185558215610c55579182015b82811115610c55578251825591602001919060010190610c3a565b50610c61929150610c65565b5090565b5b80821115610c615760008155600101610c66565b6001600160e01b031981168114610c9057600080fd5b50565b600060208284031215610ca557600080fd5b8135610cb081610c7a565b9392505050565b600060208083528351808285015260005b81811015610ce457858101830151858201604001528201610cc8565b81811115610cf6576000604083870101525b50601f01601f1916929092016040019392505050565b600060208284031215610d1e57600080fd5b5035919050565b80356001600160a01b03811681146105e657600080fd5b60008060408385031215610d4f57600080fd5b610d5883610d25565b946020939093013593505050565b600060208284031215610d7857600080fd5b610cb082610d25565b600080600060608486031215610d9657600080fd5b610d9f84610d25565b9250610dad60208501610d25565b9150604084013590509250925092565b60008060408385031215610dd057600080fd5b610dd983610d25565b915060208301358015158114610dee57600080fd5b809150509250929050565b634e487b7160e01b600052604160045260246000fd5b600080600060608486031215610e2457600080fd5b610e2d84610d25565b925060208401359150604084013567ffffffffffffffff80821115610e5157600080fd5b818601915086601f830112610e6557600080fd5b813581811115610e7757610e77610df9565b604051601f8201601f19908116603f01168101908382118183101715610e9f57610e9f610df9565b81604052828152896020848701011115610eb857600080fd5b8260208601602083013760006020848301015280955050505050509250925092565b600080600080600060808688031215610ef257600080fd5b610efb86610d25565b9450610f0960208701610d25565b935060408601359250606086013567ffffffffffffffff80821115610f2d57600080fd5b818801915088601f830112610f4157600080fd5b813581811115610f5057600080fd5b896020828501011115610f6257600080fd5b9699959850939650602001949392505050565b60008060408385031215610f8857600080fd5b610f9183610d25565b9150610f9f60208401610d25565b90509250929050565b600181811c90821680610fbc57607f821691505b602082108103610fdc57634e487b7160e01b600052602260045260246000fd5b50919050565b600060208284031215610ff457600080fd5b8151610cb081610c7a565b60208082526010908201526f155394d0519157d49150d2541251539560821b604082015260600190565b6001600160a01b038681168252851660208201526040810184905260806060820181905281018290526000828460a0840137600060a0848401015260a0601f19601f8501168301019050969550505050505056fea26469706673582212200f63d49ce610b6ddbe31be3aa715273a535c58e15a61eb0dc1cb7acbeecf1bbf64736f6c634300080d0033",
    "linkReferences": {}
  },
  "methodIdentifiers": {
    "approve(address,uint256)": "095ea7b3",
    "balanceOf(address)": "70a08231",
    "getApproved(uint256)": "081812fc",
    "isApprovedForAll(address,address)": "e985e9c5",
    "mintConsumer(address,uint256,string)": "b74f17fb",
    "name()": "06fdde03",
    "owner()": "8da5cb5b",
    "ownerOf(uint256)": "6352211e",
    "safeTransferFrom(address,address,uint256)": "42842e0e",
    "safeTransferFrom(address,address,uint256,bytes)": "b88d4fde",
    "setApprovalForAll(address,bool)": "a22cb465",
    "setOwner(address)": "13af4035",
    "supportsInterface(bytes4)": "01ffc9a7",
    "symbol()": "95d89b41",
    "tokenURI(uint256)": "c87b56dd",
    "transferFrom(address,address,uint256)": "23b872dd"
  },
  "id": 19
}