{
  "abi": [
    {
      "inputs": [
        {
          "internalType": "address",
          "name": "_Area",
          "type": "address"
        }
      ],
      "stateMutability": "nonpayable",
      "type": "constructor"
    },
    {
      "inputs": [],
      "name": "ApprovalCallerNotOwnerNorApproved",
      "type": "error"
    },
    {
      "inputs": [],
      "name": "ApprovalQueryForNonexistentToken",
      "type": "error"
    },
    {
      "inputs": [],
      "name": "ApproveToCaller",
      "type": "error"
    },
    {
      "inputs": [],
      "name": "BalanceQueryForZeroAddress",
      "type": "error"
    },
    {
      "inputs": [],
      "name": "MintERC2309QuantityExceedsLimit",
      "type": "error"
    },
    {
      "inputs": [],
      "name": "MintToZeroAddress",
      "type": "error"
    },
    {
      "inputs": [],
      "name": "MintZeroQuantity",
      "type": "error"
    },
    {
      "inputs": [],
      "name": "OwnerQueryForNonexistentToken",
      "type": "error"
    },
    {
      "inputs": [],
      "name": "OwnershipNotInitializedForExtraData",
      "type": "error"
    },
    {
      "inputs": [],
      "name": "TransferCallerNotOwnerNorApproved",
      "type": "error"
    },
    {
      "inputs": [],
      "name": "TransferFromIncorrectOwner",
      "type": "error"
    },
    {
      "inputs": [],
      "name": "TransferToNonERC721ReceiverImplementer",
      "type": "error"
    },
    {
      "inputs": [],
      "name": "TransferToZeroAddress",
      "type": "error"
    },
    {
      "inputs": [],
      "name": "URIQueryForNonexistentToken",
      "type": "error"
    },
    {
      "anonymous": false,
      "inputs": [
        {
          "indexed": true,
          "internalType": "address",
          "name": "owner",
          "type": "address"
        },
        {
          "indexed": true,
          "internalType": "address",
          "name": "approved",
          "type": "address"
        },
        {
          "indexed": true,
          "internalType": "uint256",
          "name": "tokenId",
          "type": "uint256"
        }
      ],
      "name": "Approval",
      "type": "event"
    },
    {
      "anonymous": false,
      "inputs": [
        {
          "indexed": true,
          "internalType": "address",
          "name": "owner",
          "type": "address"
        },
        {
          "indexed": true,
          "internalType": "address",
          "name": "operator",
          "type": "address"
        },
        {
          "indexed": false,
          "internalType": "bool",
          "name": "approved",
          "type": "bool"
        }
      ],
      "name": "ApprovalForAll",
      "type": "event"
    },
    {
      "anonymous": false,
      "inputs": [
        {
          "indexed": true,
          "internalType": "uint256",
          "name": "fromTokenId",
          "type": "uint256"
        },
        {
          "indexed": false,
          "internalType": "uint256",
          "name": "toTokenId",
          "type": "uint256"
        },
        {
          "indexed": true,
          "internalType": "address",
          "name": "from",
          "type": "address"
        },
        {
          "indexed": true,
          "internalType": "address",
          "name": "to",
          "type": "address"
        }
      ],
      "name": "ConsecutiveTransfer",
      "type": "event"
    },
    {
      "anonymous": false,
      "inputs": [
        {
          "indexed": true,
          "internalType": "address",
          "name": "user",
          "type": "address"
        },
        {
          "indexed": true,
          "internalType": "address",
          "name": "newOwner",
          "type": "address"
        }
      ],
      "name": "OwnerUpdated",
      "type": "event"
    },
    {
      "anonymous": false,
      "inputs": [
        {
          "indexed": true,
          "internalType": "address",
          "name": "from",
          "type": "address"
        },
        {
          "indexed": true,
          "internalType": "address",
          "name": "to",
          "type": "address"
        },
        {
          "indexed": true,
          "internalType": "uint256",
          "name": "tokenId",
          "type": "uint256"
        }
      ],
      "name": "Transfer",
      "type": "event"
    },
    {
      "inputs": [],
      "name": "_currentIndex",
      "outputs": [
        {
          "internalType": "uint256",
          "name": "",
          "type": "uint256"
        }
      ],
      "stateMutability": "view",
      "type": "function"
    },
    {
      "inputs": [
        {
          "internalType": "address",
          "name": "to",
          "type": "address"
        },
        {
          "internalType": "uint256",
          "name": "tokenId",
          "type": "uint256"
        }
      ],
      "name": "approve",
      "outputs": [],
      "stateMutability": "nonpayable",
      "type": "function"
    },
    {
      "inputs": [
        {
          "internalType": "address",
          "name": "owner",
          "type": "address"
        }
      ],
      "name": "balanceOf",
      "outputs": [
        {
          "internalType": "uint256",
          "name": "",
          "type": "uint256"
        }
      ],
      "stateMutability": "view",
      "type": "function"
    },
    {
      "inputs": [
        {
          "internalType": "uint256",
          "name": "tokenId",
          "type": "uint256"
        }
      ],
      "name": "getApproved",
      "outputs": [
        {
          "internalType": "address",
          "name": "",
          "type": "address"
        }
      ],
      "stateMutability": "view",
      "type": "function"
    },
    {
      "inputs": [
        {
          "internalType": "address",
          "name": "owner",
          "type": "address"
        },
        {
          "internalType": "address",
          "name": "operator",
          "type": "address"
        }
      ],
      "name": "isApprovedForAll",
      "outputs": [
        {
          "internalType": "bool",
          "name": "",
          "type": "bool"
        }
      ],
      "stateMutability": "view",
      "type": "function"
    },
    {
      "inputs": [],
      "name": "name",
      "outputs": [
        {
          "internalType": "string",
          "name": "",
          "type": "string"
        }
      ],
      "stateMutability": "view",
      "type": "function"
    },
    {
      "inputs": [],
      "name": "owner",
      "outputs": [
        {
          "internalType": "address",
          "name": "",
          "type": "address"
        }
      ],
      "stateMutability": "view",
      "type": "function"
    },
    {
      "inputs": [
        {
          "internalType": "uint256",
          "name": "tokenId",
          "type": "uint256"
        }
      ],
      "name": "ownerOf",
      "outputs": [
        {
          "internalType": "address",
          "name": "",
          "type": "address"
        }
      ],
      "stateMutability": "view",
      "type": "function"
    },
    {
      "inputs": [
        {
          "internalType": "uint256",
          "name": "start",
          "type": "uint256"
        },
        {
          "internalType": "uint256",
          "name": "quantity",
          "type": "uint256"
        },
        {
          "internalType": "address",
          "name": "to",
          "type": "address"
        },
        {
          "internalType": "string",
          "name": "uri",
          "type": "string"
        }
      ],
      "name": "printBasket",
      "outputs": [
        {
          "internalType": "bool",
          "name": "s",
          "type": "bool"
        }
      ],
      "stateMutability": "nonpayable",
      "type": "function"
    },
    {
      "inputs": [
        {
          "internalType": "address",
          "name": "from",
          "type": "address"
        },
        {
          "internalType": "address",
          "name": "to",
          "type": "address"
        },
        {
          "internalType": "uint256",
          "name": "tokenId",
          "type": "uint256"
        }
      ],
      "name": "safeTransferFrom",
      "outputs": [],
      "stateMutability": "nonpayable",
      "type": "function"
    },
    {
      "inputs": [
        {
          "internalType": "address",
          "name": "from",
          "type": "address"
        },
        {
          "internalType": "address",
          "name": "to",
          "type": "address"
        },
        {
          "internalType": "uint256",
          "name": "tokenId",
          "type": "uint256"
        },
        {
          "internalType": "bytes",
          "name": "_data",
          "type": "bytes"
        }
      ],
      "name": "safeTransferFrom",
      "outputs": [],
      "stateMutability": "nonpayable",
      "type": "function"
    },
    {
      "inputs": [
        {
          "internalType": "address",
          "name": "operator",
          "type": "address"
        },
        {
          "internalType": "bool",
          "name": "approved",
          "type": "bool"
        }
      ],
      "name": "setApprovalForAll",
      "outputs": [],
      "stateMutability": "nonpayable",
      "type": "function"
    },
    {
      "inputs": [
        {
          "internalType": "address",
          "name": "newOwner",
          "type": "address"
        }
      ],
      "name": "setOwner",
      "outputs": [],
      "stateMutability": "nonpayable",
      "type": "function"
    },
    {
      "inputs": [
        {
          "internalType": "bytes4",
          "name": "interfaceId",
          "type": "bytes4"
        }
      ],
      "name": "supportsInterface",
      "outputs": [
        {
          "internalType": "bool",
          "name": "",
          "type": "bool"
        }
      ],
      "stateMutability": "view",
      "type": "function"
    },
    {
      "inputs": [],
      "name": "symbol",
      "outputs": [
        {
          "internalType": "string",
          "name": "",
          "type": "string"
        }
      ],
      "stateMutability": "view",
      "type": "function"
    },
    {
      "inputs": [
        {
          "internalType": "uint256",
          "name": "id",
          "type": "uint256"
        }
      ],
      "name": "tokenURI",
      "outputs": [
        {
          "internalType": "string",
          "name": "farmerUri",
          "type": "string"
        }
      ],
      "stateMutability": "view",
      "type": "function"
    },
    {
      "inputs": [],
      "name": "totalSupply",
      "outputs": [
        {
          "internalType": "uint256",
          "name": "",
          "type": "uint256"
        }
      ],
      "stateMutability": "view",
      "type": "function"
    },
    {
      "inputs": [
        {
          "internalType": "address",
          "name": "from",
          "type": "address"
        },
        {
          "internalType": "address",
          "name": "to",
          "type": "address"
        },
        {
          "internalType": "uint256",
          "name": "tokenId",
          "type": "uint256"
        }
      ],
      "name": "transferFrom",
      "outputs": [],
      "stateMutability": "nonpayable",
      "type": "function"
    }
  ],
  "bytecode": {
    "object": "0x60806040523480156200001157600080fd5b50604051620014cf380380620014cf8339810160408190526200003491620002a5565b336040518060400160405280600681526020016510985cdad95d60d21b81525060405180604001604052806006815260200165504f5441544f60d01b81525081600290805190602001906200008b929190620001ff565b508051620000a1906003906020840190620001ff565b50506000808055600880546001600160a01b0319166001600160a01b038516908117909155604051909250600080516020620014af833981519152908290a350620000ec8162000176565b600a80546001600160a01b0319166001600160a01b038316908117909155604080516360be2ce760e11b8152905163c17c59ce916004808201926020929091908290030181865afa15801562000146573d6000803e3d6000fd5b505050506040513d601f19601f820116820180604052508101906200016c9190620002d7565b600055506200032d565b6008546001600160a01b03163314620001c45760405162461bcd60e51b815260206004820152600c60248201526b15539055551213d49256915160a21b604482015260640160405180910390fd5b600880546001600160a01b0319166001600160a01b0383169081179091556040513390600080516020620014af83398151915290600090a350565b8280546200020d90620002f1565b90600052602060002090601f0160209004810192826200023157600085556200027c565b82601f106200024c57805160ff19168380011785556200027c565b828001600101855582156200027c579182015b828111156200027c5782518255916020019190600101906200025f565b506200028a9291506200028e565b5090565b5b808211156200028a57600081556001016200028f565b600060208284031215620002b857600080fd5b81516001600160a01b0381168114620002d057600080fd5b9392505050565b600060208284031215620002ea57600080fd5b5051919050565b600181811c908216806200030657607f821691505b6020821081036200032757634e487b7160e01b600052602260045260246000fd5b50919050565b611172806200033d6000396000f3fe608060405234801561001057600080fd5b50600436106101165760003560e01c806370a08231116100a2578063a22cb46511610071578063a22cb46514610231578063b88d4fde14610244578063c58630b814610257578063c87b56dd1461026a578063e985e9c51461027d57600080fd5b806370a08231146101fa5780638da5cb5b1461020d5780639451c99a1461022057806395d89b411461022957600080fd5b806313af4035116100e957806313af40351461019857806318160ddd146101ab57806323b872dd146101c157806342842e0e146101d45780636352211e146101e757600080fd5b806301ffc9a71461011b57806306fdde0314610143578063081812fc14610158578063095ea7b314610183575b600080fd5b61012e610129366004610d76565b6102b9565b60405190151581526020015b60405180910390f35b61014b61030b565b60405161013a9190610de0565b61016b610166366004610df3565b61039d565b6040516001600160a01b03909116815260200161013a565b610196610191366004610e28565b6103e1565b005b6101966101a6366004610e52565b610481565b600154600054035b60405190815260200161013a565b6101966101cf366004610e6d565b61051b565b6101966101e2366004610e6d565b6106b3565b61016b6101f5366004610df3565b6106d3565b6101b3610208366004610e52565b6106de565b60085461016b906001600160a01b031681565b6101b360005481565b61014b61072d565b61019661023f366004610ea9565b61073c565b610196610252366004610f71565b6107d1565b61012e610265366004610fed565b61081b565b61014b610278366004610df3565b6109a4565b61012e61028b366004611036565b6001600160a01b03918216600090815260076020908152604080832093909416825291909152205460ff1690565b60006301ffc9a760e01b6001600160e01b0319831614806102ea57506380ac58cd60e01b6001600160e01b03198316145b806103055750635b5e139f60e01b6001600160e01b03198316145b92915050565b60606002805461031a90611069565b80601f016020809104026020016040519081016040528092919081815260200182805461034690611069565b80156103935780601f1061036857610100808354040283529160200191610393565b820191906000526020600020905b81548152906001019060200180831161037657829003601f168201915b5050505050905090565b60006103a882610a46565b6103c5576040516333d1c03960e21b815260040160405180910390fd5b506000908152600660205260409020546001600160a01b031690565b60006103ec826106d3565b9050336001600160a01b0382161461042557610408813361028b565b610425576040516367d9dca160e11b815260040160405180910390fd5b60008281526006602052604080822080546001600160a01b0319166001600160a01b0387811691821790925591518593918516917f8c5be1e5ebec7d5bd14f71427d1e84f3dd0314c0f7b2291e5b200ac8c7c3b92591a4505050565b6008546001600160a01b031633146104cf5760405162461bcd60e51b815260206004820152600c60248201526b15539055551213d49256915160a21b60448201526064015b60405180910390fd5b600880546001600160a01b0319166001600160a01b03831690811790915560405133907f8292fce18fa69edf4db7b94ea2e58241df0ae57f97e0a6c9b29067028bf92d7690600090a350565b600061052682610a6d565b9050836001600160a01b0316816001600160a01b0316146105595760405162a1148160e81b815260040160405180910390fd5b60008281526006602052604090208054338082146001600160a01b038816909114176105a657610589863361028b565b6105a657604051632ce44b5f60e11b815260040160405180910390fd5b6001600160a01b0385166105cd57604051633a954ecd60e21b815260040160405180910390fd5b80156105d857600082555b6001600160a01b038681166000908152600560205260408082208054600019019055918716808252919020805460010190554260a01b17600160e11b17600085815260046020526040812091909155600160e11b8416900361066a576001840160008181526004602052604081205490036106685760005481146106685760008181526004602052604090208490555b505b83856001600160a01b0316876001600160a01b03167fddf252ad1be2c89b69c2b068fc378daa952ba7f163c4a11628f55a4df523b3ef60405160405180910390a4505050505050565b6106ce838383604051806020016040528060008152506107d1565b505050565b600061030582610a6d565b60006001600160a01b038216610707576040516323d3ad8160e21b815260040160405180910390fd5b506001600160a01b031660009081526005602052604090205467ffffffffffffffff1690565b60606003805461031a90611069565b336001600160a01b038316036107655760405163b06307db60e01b815260040160405180910390fd5b3360008181526007602090815260408083206001600160a01b03871680855290835292819020805460ff191686151590811790915590519081529192917f17307eab39ab6107e8899845ad3d59bd9653f200f220920489ca2b5937696c31910160405180910390a35050565b6107dc84848461051b565b6001600160a01b0383163b15610815576107f884848484610adb565b610815576040516368d2bf6b60e11b815260040160405180910390fd5b50505050565b6008546000906001600160a01b031633146108675760405162461bcd60e51b815260206004820152600c60248201526b15539055551213d49256915160a21b60448201526064016104c6565b6000610872846106de565b9050600a60009054906101000a90046001600160a01b03166001600160a01b031663c17c59ce6040518163ffffffff1660e01b8152600401602060405180830381865afa1580156108c7573d6000803e3d6000fd5b505050506040513d601f19601f820116820180604052508101906108eb91906110a3565b6000555b6000546108fc90866110bc565b86101561092e576000868152600960209081526040909120845161092292860190610cc4565b508560010195506108ef565b6109388486610bc6565b610941846106de565b61094b86836110bc565b1491508161099b5760405162461bcd60e51b815260206004820152601960248201527f4d696e742062616c616e636520636865636b206661696c65640000000000000060448201526064016104c6565b50949350505050565b60008181526009602052604090208054606091906109c190611069565b80601f01602080910402602001604051908101604052809291908181526020018280546109ed90611069565b8015610a3a5780601f10610a0f57610100808354040283529160200191610a3a565b820191906000526020600020905b815481529060010190602001808311610a1d57829003601f168201915b50505050509050919050565b6000805482108015610305575050600090815260046020526040902054600160e01b161590565b600081600054811015610ac25760008181526004602052604081205490600160e01b82169003610ac0575b80600003610ab9575060001901600081815260046020526040902054610a98565b9392505050565b505b604051636f96cda160e11b815260040160405180910390fd5b604051630a85bd0160e11b81526000906001600160a01b0385169063150b7a0290610b109033908990889088906004016110e2565b6020604051808303816000875af1925050508015610b4b575060408051601f3d908101601f19168201909252610b489181019061111f565b60015b610ba9573d808015610b79576040519150601f19603f3d011682016040523d82523d6000602084013e610b7e565b606091505b508051600003610ba1576040516368d2bf6b60e11b815260040160405180910390fd5b805181602001fd5b6001600160e01b031916630a85bd0160e11b149050949350505050565b6000805490829003610beb5760405163b562e8dd60e01b815260040160405180910390fd5b6001600160a01b03831660008181526005602090815260408083208054680100000000000000018802019055848352600490915281206001851460e11b4260a01b178317905582840190839083907fddf252ad1be2c89b69c2b068fc378daa952ba7f163c4a11628f55a4df523b3ef8180a4600183015b818114610c9a57808360007fddf252ad1be2c89b69c2b068fc378daa952ba7f163c4a11628f55a4df523b3ef600080a4600101610c62565b5081600003610cbb57604051622e076360e81b815260040160405180910390fd5b60005550505050565b828054610cd090611069565b90600052602060002090601f016020900481019282610cf25760008555610d38565b82601f10610d0b57805160ff1916838001178555610d38565b82800160010185558215610d38579182015b82811115610d38578251825591602001919060010190610d1d565b50610d44929150610d48565b5090565b5b80821115610d445760008155600101610d49565b6001600160e01b031981168114610d7357600080fd5b50565b600060208284031215610d8857600080fd5b8135610ab981610d5d565b6000815180845260005b81811015610db957602081850181015186830182015201610d9d565b81811115610dcb576000602083870101525b50601f01601f19169290920160200192915050565b602081526000610ab96020830184610d93565b600060208284031215610e0557600080fd5b5035919050565b80356001600160a01b0381168114610e2357600080fd5b919050565b60008060408385031215610e3b57600080fd5b610e4483610e0c565b946020939093013593505050565b600060208284031215610e6457600080fd5b610ab982610e0c565b600080600060608486031215610e8257600080fd5b610e8b84610e0c565b9250610e9960208501610e0c565b9150604084013590509250925092565b60008060408385031215610ebc57600080fd5b610ec583610e0c565b915060208301358015158114610eda57600080fd5b809150509250929050565b634e487b7160e01b600052604160045260246000fd5b600067ffffffffffffffff80841115610f1657610f16610ee5565b604051601f8501601f19908116603f01168101908282118183101715610f3e57610f3e610ee5565b81604052809350858152868686011115610f5757600080fd5b858560208301376000602087830101525050509392505050565b60008060008060808587031215610f8757600080fd5b610f9085610e0c565b9350610f9e60208601610e0c565b925060408501359150606085013567ffffffffffffffff811115610fc157600080fd5b8501601f81018713610fd257600080fd5b610fe187823560208401610efb565b91505092959194509250565b6000806000806080858703121561100357600080fd5b843593506020850135925061101a60408601610e0c565b9150606085013567ffffffffffffffff811115610fc157600080fd5b6000806040838503121561104957600080fd5b61105283610e0c565b915061106060208401610e0c565b90509250929050565b600181811c9082168061107d57607f821691505b60208210810361109d57634e487b7160e01b600052602260045260246000fd5b50919050565b6000602082840312156110b557600080fd5b5051919050565b600082198211156110dd57634e487b7160e01b600052601160045260246000fd5b500190565b6001600160a01b038581168252841660208201526040810183905260806060820181905260009061111590830184610d93565b9695505050505050565b60006020828403121561113157600080fd5b8151610ab981610d5d56fea2646970667358221220e492ec34c1bbb1d9934d8d731d3fad1037d2fd349082f2e4c374555e1c0e598264736f6c634300080d00338292fce18fa69edf4db7b94ea2e58241df0ae57f97e0a6c9b29067028bf92d76",
    "linkReferences": {}
  },
  "methodIdentifiers": {
    "_currentIndex()": "9451c99a",
    "approve(address,uint256)": "095ea7b3",
    "balanceOf(address)": "70a08231",
    "getApproved(uint256)": "081812fc",
    "isApprovedForAll(address,address)": "e985e9c5",
    "name()": "06fdde03",
    "owner()": "8da5cb5b",
    "ownerOf(uint256)": "6352211e",
    "printBasket(uint256,uint256,address,string)": "c58630b8",
    "safeTransferFrom(address,address,uint256)": "42842e0e",
    "safeTransferFrom(address,address,uint256,bytes)": "b88d4fde",
    "setApprovalForAll(address,bool)": "a22cb465",
    "setOwner(address)": "13af4035",
    "supportsInterface(bytes4)": "01ffc9a7",
    "symbol()": "95d89b41",
    "tokenURI(uint256)": "c87b56dd",
    "totalSupply()": "18160ddd",
    "transferFrom(address,address,uint256)": "23b872dd"
  },
  "id": 20
}