{
  "abi": [
    {
      "inputs": [],
      "stateMutability": "nonpayable",
      "type": "constructor"
    },
    {
      "anonymous": false,
      "inputs": [
        {
          "indexed": true,
          "internalType": "address",
          "name": "_this",
          "type": "address"
        },
        {
          "indexed": false,
          "internalType": "address",
          "name": "_f",
          "type": "address"
        },
        {
          "indexed": false,
          "internalType": "address",
          "name": "_c",
          "type": "address"
        },
        {
          "indexed": false,
          "internalType": "address",
          "name": "_b",
          "type": "address"
        }
      ],
      "name": "fcbComplete",
      "type": "event"
    },
    {
      "anonymous": false,
      "inputs": [
        {
          "indexed": true,
          "internalType": "uint256",
          "name": "_areaId",
          "type": "uint256"
        },
        {
          "indexed": true,
          "internalType": "address",
          "name": "_byWho",
          "type": "address"
        },
        {
          "indexed": false,
          "internalType": "uint256",
          "name": "farmerid",
          "type": "uint256"
        }
      ],
      "name": "newAreaCreated",
      "type": "event"
    },
    {
      "anonymous": false,
      "inputs": [
        {
          "indexed": true,
          "internalType": "uint256",
          "name": "_areaID",
          "type": "uint256"
        },
        {
          "indexed": true,
          "internalType": "address",
          "name": "_who",
          "type": "address"
        },
        {
          "indexed": false,
          "internalType": "uint256",
          "name": "farmerid",
          "type": "uint256"
        }
      ],
      "name": "newFarmerJoinedArea",
      "type": "event"
    },
    {
      "anonymous": false,
      "inputs": [
        {
          "indexed": true,
          "internalType": "uint256",
          "name": "_areaId",
          "type": "uint256"
        },
        {
          "indexed": true,
          "internalType": "address",
          "name": "_bywho",
          "type": "address"
        },
        {
          "indexed": false,
          "internalType": "address",
          "name": "nominated",
          "type": "address"
        }
      ],
      "name": "newFarmerNominatedForArea",
      "type": "event"
    },
    {
      "inputs": [
        {
          "internalType": "uint256",
          "name": "_areaID",
          "type": "uint256"
        },
        {
          "internalType": "address",
          "name": "_govAddress",
          "type": "address"
        }
      ],
      "name": "_changeAreaGovernor",
      "outputs": [
        {
          "internalType": "bool",
          "name": "",
          "type": "bool"
        }
      ],
      "stateMutability": "nonpayable",
      "type": "function"
    },
    {
      "inputs": [
        {
          "internalType": "uint256",
          "name": "_areaID",
          "type": "uint256"
        },
        {
          "internalType": "address",
          "name": "_newRulesAddress",
          "type": "address"
        }
      ],
      "name": "_changeCustumAreaRules",
      "outputs": [
        {
          "internalType": "bool",
          "name": "",
          "type": "bool"
        }
      ],
      "stateMutability": "nonpayable",
      "type": "function"
    },
    {
      "inputs": [
        {
          "internalType": "uint256",
          "name": "_areaID",
          "type": "uint256"
        }
      ],
      "name": "becomeCustomer",
      "outputs": [
        {
          "internalType": "uint256",
          "name": "farmerId",
          "type": "uint256"
        }
      ],
      "stateMutability": "nonpayable",
      "type": "function"
    },
    {
      "inputs": [
        {
          "internalType": "uint256",
          "name": "_areaID",
          "type": "uint256"
        }
      ],
      "name": "becomeFarmer",
      "outputs": [
        {
          "internalType": "string",
          "name": "farmerUri",
          "type": "string"
        }
      ],
      "stateMutability": "nonpayable",
      "type": "function"
    },
    {
      "inputs": [
        {
          "internalType": "address",
          "name": "who",
          "type": "address"
        },
        {
          "internalType": "uint256",
          "name": "areaId",
          "type": "uint256"
        }
      ],
      "name": "belongsTo",
      "outputs": [
        {
          "internalType": "bool",
          "name": "",
          "type": "bool"
        }
      ],
      "stateMutability": "view",
      "type": "function"
    },
    {
      "inputs": [],
      "name": "getFCB",
      "outputs": [
        {
          "internalType": "address",
          "name": "",
          "type": "address"
        },
        {
          "internalType": "address",
          "name": "",
          "type": "address"
        },
        {
          "internalType": "address",
          "name": "",
          "type": "address"
        }
      ],
      "stateMutability": "view",
      "type": "function"
    },
    {
      "inputs": [],
      "name": "globalId",
      "outputs": [
        {
          "internalType": "uint256",
          "name": "",
          "type": "uint256"
        }
      ],
      "stateMutability": "view",
      "type": "function"
    },
    {
      "inputs": [
        {
          "internalType": "address",
          "name": "_newFarmer",
          "type": "address"
        },
        {
          "internalType": "uint256",
          "name": "_area",
          "type": "uint256"
        }
      ],
      "name": "nominateFarmer",
      "outputs": [],
      "stateMutability": "nonpayable",
      "type": "function"
    }
  ],
  "bytecode": {
    "object": "0x608060405234801561001057600080fd5b503060405161001e9061016e565b6001600160a01b039091168152602001604051809103906000f08015801561004a573d6000803e3d6000fd5b50600080546001600160a01b0319166001600160a01b039290921691909117905560405130906100799061017b565b6001600160a01b039091168152602001604051809103906000f0801580156100a5573d6000803e3d6000fd5b50600180546001600160a01b0319166001600160a01b039290921691909117905560405130906100d490610188565b6001600160a01b039091168152602001604051809103906000f080158015610100573d6000803e3d6000fd5b50600280546001600160a01b0319166001600160a01b03928316908117909155600054600154604080519285168352931660208201529182015230907f4d414cffd2a65acd4048230e550f04a37054d3e4bf7560af52e37aecd83120949060600160405180910390a2610195565b6112fc80610a7283390190565b6112e380611d6e83390190565b610fb78061305183390190565b6108ce806101a46000396000f3fe608060405234801561001057600080fd5b50600436106100885760003560e01c80636ea3e2571161005b5780636ea3e25714610127578063821ebdbf1461013c578063ca6668231461015c578063da0225db1461016557600080fd5b806315df0a361461008d578063238edf7b146100be57806331376004146100e15780635aaed90e146100f4575b600080fd5b6100ab61009b366004610705565b5060078054600190810190915590565b6040519081526020015b60405180910390f35b6100d16100cc366004610735565b610178565b60405190151581526020016100b5565b6100d16100ef366004610735565b610200565b600054600254600154604080516001600160a01b03948516815292841660208401529216918101919091526060016100b5565b61013a610135366004610761565b6102cf565b005b61014f61014a366004610705565b61036c565b6040516100b591906107e7565b6100ab60075481565b6100d1610173366004610761565b610633565b336000908152600660205260408120546001600160a01b038481169116146101d05760405162461bcd60e51b81526020600482015260066024820152650aadc82eae8d60d31b60448201526064015b60405180910390fd5b60009283526003602052604090922080546001600160a01b0319166001600160a01b039290921691909117905590565b336000908152600660205260408120546001600160a01b038481169116148061023f5750336000908152600660205260409020546001600160a01b0316155b6102745760405162461bcd60e51b81526020600482015260066024820152650aadc82eae8d60d31b60448201526064016101c7565b6001600160a01b03828116600090815260066020526040902054161561029b57600061029d565b825b6001600160a01b03928316600090815260066020526040902080546001600160a01b0319169190931617909155919050565b6001600160a01b03828116600090815260066020526040902054161580156102fc57506102fc3382610633565b61030557600080fd5b6001600160a01b03821660008181526006602090815260409182902080546001600160a01b031916339081179091559151928352909183917fe4e308cc0fe8693509c974f83d068af567d522dc365223a35524936a9f2e1dc1910160405180910390a35050565b60606103783383610633565b156103b25760405162461bcd60e51b815260206004820152600a60248201526920b63932b0b23c9034b760b11b60448201526064016101c7565b6007548211156103f15760405162461bcd60e51b815260206004820152600a602482015269125b9d985b1a5908125960b21b60448201526064016101c7565b6007805460010190556040518060400160405280601b81526020017f68747470733a2f2f706f7461746f2e626f6e642f6170692f76312f000000000081525060075460405160200161044591815260200190565b60408051601f19818403018152908290526104639291602001610801565b60405160208183030381529060405290508160000361053f57600754600081815260056020526040902033790734aca5f6226f0ada6175f343cc4d4d9dfb8b57c220d628577081106104b7576104b7610830565b01556007805433600081815260066020526040902080546001600160a01b0319166001600160a01b039093169290921790915590546104f7919083610685565b61050057600080fd5b6007546040518181523391907f91bbf64d368dafdce9806685f9868faf35992c6868e51f975121f7f055a69874906020015b60405180910390a3919050565b33600090815260066020526040902054610562906001600160a01b031683610633565b156105fa57600754600083815260056020526040902033790734aca5f6226f0ada6175f343cc4d4d9dfb8b57c220d628577081106105a2576105a2610830565b01556007546105b390339083610685565b6105bc57600080fd5b336001600160a01b0316827fba705ae85061064e22cd6afbb0c81e37438d414ad21c5c312be52c7e9857cdcf60075460405161053291815260200190565b60405162461bcd60e51b8152602060048201526009602482015268155b9a5b9d9a5d195960ba1b60448201526064016101c7565b919050565b60008181526005602052604081206001600160a01b038416790734aca5f6226f0ada6175f343cc4d4d9dfb8b57c220d6285770811061067457610674610830565b01541561067f575060015b92915050565b60008054604051638de6e63360e01b81526001600160a01b0390911690638de6e633906106ba90879087908790600401610846565b6020604051808303816000875af11580156106d9573d6000803e3d6000fd5b505050506040513d601f19601f820116820180604052508101906106fd9190610876565b949350505050565b60006020828403121561071757600080fd5b5035919050565b80356001600160a01b038116811461062e57600080fd5b6000806040838503121561074857600080fd5b823591506107586020840161071e565b90509250929050565b6000806040838503121561077457600080fd5b61077d8361071e565b946020939093013593505050565b60005b838110156107a657818101518382015260200161078e565b838111156107b5576000848401525b50505050565b600081518084526107d381602086016020860161078b565b601f01601f19169290920160200192915050565b6020815260006107fa60208301846107bb565b9392505050565b6000835161081381846020880161078b565b83519083019061082781836020880161078b565b01949350505050565b634e487b7160e01b600052603260045260246000fd5b60018060a01b038416815282602082015260606040820152600061086d60608301846107bb565b95945050505050565b60006020828403121561088857600080fd5b815180151581146107fa57600080fdfea2646970667358221220c53e88462c9e1068267b605fcc0e888d52826757e1cc2101d7997182ea84c7f764736f6c634300080d003360806040523480156200001157600080fd5b50604051620012fc380380620012fc8339810160408190526200003491620001b0565b60408051808201825260068152652330b936b2b960d11b6020808301918252835180850190945260048452634641724d60e01b9084015281513393916200007f91600091906200010a565b508051620000959060019060208401906200010a565b5050600680546001600160a01b0319166001600160a01b0384169081179091556040519091506000907f8292fce18fa69edf4db7b94ea2e58241df0ae57f97e0a6c9b29067028bf92d76908290a350600680546001600160a01b0319166001600160a01b03929092169190911790556200021e565b8280546200011890620001e2565b90600052602060002090601f0160209004810192826200013c576000855562000187565b82601f106200015757805160ff191683800117855562000187565b8280016001018555821562000187579182015b82811115620001875782518255916020019190600101906200016a565b506200019592915062000199565b5090565b5b808211156200019557600081556001016200019a565b600060208284031215620001c357600080fd5b81516001600160a01b0381168114620001db57600080fd5b9392505050565b600181811c90821680620001f757607f821691505b6020821081036200021857634e487b7160e01b600052602260045260246000fd5b50919050565b6110ce806200022e6000396000f3fe608060405234801561001057600080fd5b50600436106101005760003560e01c806370a0823111610097578063a22cb46511610066578063a22cb46514610233578063b88d4fde14610241578063c87b56dd14610254578063e985e9c51461026757600080fd5b806370a08231146101e45780638da5cb5b146102055780638de6e6331461021857806395d89b411461022b57600080fd5b806313af4035116100d357806313af40351461019857806323b872dd146101ab57806342842e0e146101be5780636352211e146101d157600080fd5b806301ffc9a71461010557806306fdde031461012d578063081812fc14610142578063095ea7b314610183575b600080fd5b610118610113366004610cae565b610295565b60405190151581526020015b60405180910390f35b6101356102e7565b6040516101249190610cd2565b61016b610150366004610d27565b6004602052600090815260409020546001600160a01b031681565b6040516001600160a01b039091168152602001610124565b610196610191366004610d57565b610375565b005b6101966101a6366004610d81565b6103bb565b6101966101b9366004610d9c565b610450565b6101966101cc366004610d9c565b6104c4565b61016b6101df366004610d27565b610594565b6101f76101f2366004610d81565b6105eb565b604051908152602001610124565b60065461016b906001600160a01b031681565b610118610226366004610dee565b61064e565b6101356106e6565b610196610191366004610eb9565b61019661024f366004610ef5565b6106f3565b610135610262366004610d27565b6107b8565b610118610275366004610f90565b600560209081526000928352604080842090915290825290205460ff1681565b60006301ffc9a760e01b6001600160e01b0319831614806102c657506380ac58cd60e01b6001600160e01b03198316145b806102e15750635b5e139f60e01b6001600160e01b03198316145b92915050565b600080546102f490610fc3565b80601f016020809104026020016040519081016040528092919081815260200182805461032090610fc3565b801561036d5780601f106103425761010080835404028352916020019161036d565b820191906000526020600020905b81548152906001019060200180831161035057829003601f168201915b505050505081565b60405162461bcd60e51b81526020600482015260166024820152752193b2b9ba103732903830b9903837b9b9b4b136329760511b60448201526064015b60405180910390fd5b6006546001600160a01b031633146104045760405162461bcd60e51b815260206004820152600c60248201526b15539055551213d49256915160a21b60448201526064016103b2565b600680546001600160a01b0319166001600160a01b03831690811790915560405133907f8292fce18fa69edf4db7b94ea2e58241df0ae57f97e0a6c9b29067028bf92d7690600090a350565b6001600160a01b03821615158061046f57506001600160a01b03831615155b156104b45760405162461bcd60e51b8152602060048201526015602482015274526f6c65206e6f74207472616e7366657261626c6560581b60448201526064016103b2565b6104bf83838361085a565b505050565b6104cf838383610450565b6001600160a01b0382163b15806105785750604051630a85bd0160e11b8082523360048301526001600160a01b03858116602484015260448301849052608060648401526000608484015290919084169063150b7a029060a4016020604051808303816000875af1158015610548573d6000803e3d6000fd5b505050506040513d601f19601f8201168201806040525081019061056c9190610ffd565b6001600160e01b031916145b6104bf5760405162461bcd60e51b81526004016103b29061101a565b6000818152600260205260409020546001600160a01b0316806105e65760405162461bcd60e51b815260206004820152600a6024820152691393d517d3525395115160b21b60448201526064016103b2565b919050565b60006001600160a01b0382166106325760405162461bcd60e51b815260206004820152600c60248201526b5a45524f5f4144445245535360a01b60448201526064016103b2565b506001600160a01b031660009081526003602052604090205490565b6006546000906001600160a01b0316331461069a5760405162461bcd60e51b815260206004820152600c60248201526b15539055551213d49256915160a21b60448201526064016103b2565b60006106a5856105eb565b600085815260076020908152604090912085519293506106c9929091860190610bfc565b506106d48585610a21565b6106dd856105eb565b11949350505050565b600180546102f490610fc3565b6106fe858585610450565b6001600160a01b0384163b15806107955750604051630a85bd0160e11b808252906001600160a01b0386169063150b7a02906107469033908a90899089908990600401611044565b6020604051808303816000875af1158015610765573d6000803e3d6000fd5b505050506040513d601f19601f820116820180604052508101906107899190610ffd565b6001600160e01b031916145b6107b15760405162461bcd60e51b81526004016103b29061101a565b5050505050565b60008181526007602052604090208054606091906107d590610fc3565b80601f016020809104026020016040519081016040528092919081815260200182805461080190610fc3565b801561084e5780601f106108235761010080835404028352916020019161084e565b820191906000526020600020905b81548152906001019060200180831161083157829003601f168201915b50505050509050919050565b6000818152600260205260409020546001600160a01b038481169116146108b05760405162461bcd60e51b815260206004820152600a60248201526957524f4e475f46524f4d60b01b60448201526064016103b2565b6001600160a01b0382166108fa5760405162461bcd60e51b81526020600482015260116024820152701253959053125117d49150d25412515395607a1b60448201526064016103b2565b336001600160a01b038416148061093457506001600160a01b038316600090815260056020908152604080832033845290915290205460ff165b8061095557506000818152600460205260409020546001600160a01b031633145b6109925760405162461bcd60e51b815260206004820152600e60248201526d1393d517d055551213d49256915160921b60448201526064016103b2565b6001600160a01b0380841660008181526003602090815260408083208054600019019055938616808352848320805460010190558583526002825284832080546001600160a01b03199081168317909155600490925284832080549092169091559251849392917fddf252ad1be2c89b69c2b068fc378daa952ba7f163c4a11628f55a4df523b3ef91a4505050565b610a2b8282610af1565b6001600160a01b0382163b1580610ad15750604051630a85bd0160e11b80825233600483015260006024830181905260448301849052608060648401526084830152906001600160a01b0384169063150b7a029060a4016020604051808303816000875af1158015610aa1573d6000803e3d6000fd5b505050506040513d601f19601f82011682018060405250810190610ac59190610ffd565b6001600160e01b031916145b610aed5760405162461bcd60e51b81526004016103b29061101a565b5050565b6001600160a01b038216610b3b5760405162461bcd60e51b81526020600482015260116024820152701253959053125117d49150d25412515395607a1b60448201526064016103b2565b6000818152600260205260409020546001600160a01b031615610b915760405162461bcd60e51b815260206004820152600e60248201526d1053149150511657d3525395115160921b60448201526064016103b2565b6001600160a01b038216600081815260036020908152604080832080546001019055848352600290915280822080546001600160a01b0319168417905551839291907fddf252ad1be2c89b69c2b068fc378daa952ba7f163c4a11628f55a4df523b3ef908290a45050565b828054610c0890610fc3565b90600052602060002090601f016020900481019282610c2a5760008555610c70565b82601f10610c4357805160ff1916838001178555610c70565b82800160010185558215610c70579182015b82811115610c70578251825591602001919060010190610c55565b50610c7c929150610c80565b5090565b5b80821115610c7c5760008155600101610c81565b6001600160e01b031981168114610cab57600080fd5b50565b600060208284031215610cc057600080fd5b8135610ccb81610c95565b9392505050565b600060208083528351808285015260005b81811015610cff57858101830151858201604001528201610ce3565b81811115610d11576000604083870101525b50601f01601f1916929092016040019392505050565b600060208284031215610d3957600080fd5b5035919050565b80356001600160a01b03811681146105e657600080fd5b60008060408385031215610d6a57600080fd5b610d7383610d40565b946020939093013593505050565b600060208284031215610d9357600080fd5b610ccb82610d40565b600080600060608486031215610db157600080fd5b610dba84610d40565b9250610dc860208501610d40565b9150604084013590509250925092565b634e487b7160e01b600052604160045260246000fd5b600080600060608486031215610e0357600080fd5b610e0c84610d40565b925060208401359150604084013567ffffffffffffffff80821115610e3057600080fd5b818601915086601f830112610e4457600080fd5b813581811115610e5657610e56610dd8565b604051601f8201601f19908116603f01168101908382118183101715610e7e57610e7e610dd8565b81604052828152896020848701011115610e9757600080fd5b8260208601602083013760006020848301015280955050505050509250925092565b60008060408385031215610ecc57600080fd5b610ed583610d40565b915060208301358015158114610eea57600080fd5b809150509250929050565b600080600080600060808688031215610f0d57600080fd5b610f1686610d40565b9450610f2460208701610d40565b935060408601359250606086013567ffffffffffffffff80821115610f4857600080fd5b818801915088601f830112610f5c57600080fd5b813581811115610f6b57600080fd5b896020828501011115610f7d57600080fd5b9699959850939650602001949392505050565b60008060408385031215610fa357600080fd5b610fac83610d40565b9150610fba60208401610d40565b90509250929050565b600181811c90821680610fd757607f821691505b602082108103610ff757634e487b7160e01b600052602260045260246000fd5b50919050565b60006020828403121561100f57600080fd5b8151610ccb81610c95565b60208082526010908201526f155394d0519157d49150d2541251539560821b604082015260600190565b6001600160a01b038681168252851660208201526040810184905260806060820181905281018290526000828460a0840137600060a0848401015260a0601f19601f8501168301019050969550505050505056fea26469706673582212207298372ad3cd311dbb036ce70986a81a25cad6fce18d14c5578b78fa579fcf8864736f6c634300080d003360806040523480156200001157600080fd5b50604051620012e3380380620012e38339810160408190526200003491620001b2565b604080518082018252600881526721b7b739bab6b2b960c11b6020808301918252835180850190945260048452634541545360e01b9084015281513393916200008191600091906200010c565b508051620000979060019060208401906200010c565b5050600680546001600160a01b0319166001600160a01b0384169081179091556040519091506000907f8292fce18fa69edf4db7b94ea2e58241df0ae57f97e0a6c9b29067028bf92d76908290a350600680546001600160a01b0319166001600160a01b039290921691909117905562000220565b8280546200011a90620001e4565b90600052602060002090601f0160209004810192826200013e576000855562000189565b82601f106200015957805160ff191683800117855562000189565b8280016001018555821562000189579182015b82811115620001895782518255916020019190600101906200016c565b50620001979291506200019b565b5090565b5b808211156200019757600081556001016200019c565b600060208284031215620001c557600080fd5b81516001600160a01b0381168114620001dd57600080fd5b9392505050565b600181811c90821680620001f957607f821691505b6020821081036200021a57634e487b7160e01b600052602260045260246000fd5b50919050565b6110b380620002306000396000f3fe608060405234801561001057600080fd5b50600436106101005760003560e01c806370a0823111610097578063b74f17fb11610066578063b74f17fb1461022e578063b88d4fde14610241578063c87b56dd14610254578063e985e9c51461026757600080fd5b806370a08231146101e45780638da5cb5b1461020557806395d89b4114610218578063a22cb4651461022057600080fd5b806313af4035116100d357806313af40351461019857806323b872dd146101ab57806342842e0e146101be5780636352211e146101d157600080fd5b806301ffc9a71461010557806306fdde031461012d578063081812fc14610142578063095ea7b314610183575b600080fd5b610118610113366004610c93565b610295565b60405190151581526020015b60405180910390f35b6101356102e7565b6040516101249190610cb7565b61016b610150366004610d0c565b6004602052600090815260409020546001600160a01b031681565b6040516001600160a01b039091168152602001610124565b610196610191366004610d3c565b610375565b005b6101966101a6366004610d66565b6103bb565b6101966101b9366004610d81565b610450565b6101966101cc366004610d81565b6104c4565b61016b6101df366004610d0c565b610594565b6101f76101f2366004610d66565b6105eb565b604051908152602001610124565b60065461016b906001600160a01b031681565b61013561064e565b610196610191366004610dbd565b61011861023c366004610e0f565b61065b565b61019661024f366004610eda565b6106d8565b610135610262366004610d0c565b61079d565b610118610275366004610f75565b600560209081526000928352604080842090915290825290205460ff1681565b60006301ffc9a760e01b6001600160e01b0319831614806102c657506380ac58cd60e01b6001600160e01b03198316145b806102e15750635b5e139f60e01b6001600160e01b03198316145b92915050565b600080546102f490610fa8565b80601f016020809104026020016040519081016040528092919081815260200182805461032090610fa8565b801561036d5780601f106103425761010080835404028352916020019161036d565b820191906000526020600020905b81548152906001019060200180831161035057829003601f168201915b505050505081565b60405162461bcd60e51b81526020600482015260166024820152752193b2b9ba103732903830b9903837b9b9b4b136329760511b60448201526064015b60405180910390fd5b6006546001600160a01b031633146104045760405162461bcd60e51b815260206004820152600c60248201526b15539055551213d49256915160a21b60448201526064016103b2565b600680546001600160a01b0319166001600160a01b03831690811790915560405133907f8292fce18fa69edf4db7b94ea2e58241df0ae57f97e0a6c9b29067028bf92d7690600090a350565b6001600160a01b03821615158061046f57506001600160a01b03831615155b156104b45760405162461bcd60e51b8152602060048201526015602482015274526f6c65206e6f74207472616e7366657261626c6560581b60448201526064016103b2565b6104bf83838361083f565b505050565b6104cf838383610450565b6001600160a01b0382163b15806105785750604051630a85bd0160e11b8082523360048301526001600160a01b03858116602484015260448301849052608060648401526000608484015290919084169063150b7a029060a4016020604051808303816000875af1158015610548573d6000803e3d6000fd5b505050506040513d601f19601f8201168201806040525081019061056c9190610fe2565b6001600160e01b031916145b6104bf5760405162461bcd60e51b81526004016103b290610fff565b6000818152600260205260409020546001600160a01b0316806105e65760405162461bcd60e51b815260206004820152600a6024820152691393d517d3525395115160b21b60448201526064016103b2565b919050565b60006001600160a01b0382166106325760405162461bcd60e51b815260206004820152600c60248201526b5a45524f5f4144445245535360a01b60448201526064016103b2565b506001600160a01b031660009081526003602052604090205490565b600180546102f490610fa8565b6006546000906001600160a01b031633146106a75760405162461bcd60e51b815260206004820152600c60248201526b15539055551213d49256915160a21b60448201526064016103b2565b6106b18484610a06565b600083815260076020908152604090912083516106d092850190610be1565b509392505050565b6106e3858585610450565b6001600160a01b0384163b158061077a5750604051630a85bd0160e11b808252906001600160a01b0386169063150b7a029061072b9033908a90899089908990600401611029565b6020604051808303816000875af115801561074a573d6000803e3d6000fd5b505050506040513d601f19601f8201168201806040525081019061076e9190610fe2565b6001600160e01b031916145b6107965760405162461bcd60e51b81526004016103b290610fff565b5050505050565b60008181526007602052604090208054606091906107ba90610fa8565b80601f01602080910402602001604051908101604052809291908181526020018280546107e690610fa8565b80156108335780601f1061080857610100808354040283529160200191610833565b820191906000526020600020905b81548152906001019060200180831161081657829003601f168201915b50505050509050919050565b6000818152600260205260409020546001600160a01b038481169116146108955760405162461bcd60e51b815260206004820152600a60248201526957524f4e475f46524f4d60b01b60448201526064016103b2565b6001600160a01b0382166108df5760405162461bcd60e51b81526020600482015260116024820152701253959053125117d49150d25412515395607a1b60448201526064016103b2565b336001600160a01b038416148061091957506001600160a01b038316600090815260056020908152604080832033845290915290205460ff165b8061093a57506000818152600460205260409020546001600160a01b031633145b6109775760405162461bcd60e51b815260206004820152600e60248201526d1393d517d055551213d49256915160921b60448201526064016103b2565b6001600160a01b0380841660008181526003602090815260408083208054600019019055938616808352848320805460010190558583526002825284832080546001600160a01b03199081168317909155600490925284832080549092169091559251849392917fddf252ad1be2c89b69c2b068fc378daa952ba7f163c4a11628f55a4df523b3ef91a4505050565b610a108282610ad6565b6001600160a01b0382163b1580610ab65750604051630a85bd0160e11b80825233600483015260006024830181905260448301849052608060648401526084830152906001600160a01b0384169063150b7a029060a4016020604051808303816000875af1158015610a86573d6000803e3d6000fd5b505050506040513d601f19601f82011682018060405250810190610aaa9190610fe2565b6001600160e01b031916145b610ad25760405162461bcd60e51b81526004016103b290610fff565b5050565b6001600160a01b038216610b205760405162461bcd60e51b81526020600482015260116024820152701253959053125117d49150d25412515395607a1b60448201526064016103b2565b6000818152600260205260409020546001600160a01b031615610b765760405162461bcd60e51b815260206004820152600e60248201526d1053149150511657d3525395115160921b60448201526064016103b2565b6001600160a01b038216600081815260036020908152604080832080546001019055848352600290915280822080546001600160a01b0319168417905551839291907fddf252ad1be2c89b69c2b068fc378daa952ba7f163c4a11628f55a4df523b3ef908290a45050565b828054610bed90610fa8565b90600052602060002090601f016020900481019282610c0f5760008555610c55565b82601f10610c2857805160ff1916838001178555610c55565b82800160010185558215610c55579182015b82811115610c55578251825591602001919060010190610c3a565b50610c61929150610c65565b5090565b5b80821115610c615760008155600101610c66565b6001600160e01b031981168114610c9057600080fd5b50565b600060208284031215610ca557600080fd5b8135610cb081610c7a565b9392505050565b600060208083528351808285015260005b81811015610ce457858101830151858201604001528201610cc8565b81811115610cf6576000604083870101525b50601f01601f1916929092016040019392505050565b600060208284031215610d1e57600080fd5b5035919050565b80356001600160a01b03811681146105e657600080fd5b60008060408385031215610d4f57600080fd5b610d5883610d25565b946020939093013593505050565b600060208284031215610d7857600080fd5b610cb082610d25565b600080600060608486031215610d9657600080fd5b610d9f84610d25565b9250610dad60208501610d25565b9150604084013590509250925092565b60008060408385031215610dd057600080fd5b610dd983610d25565b915060208301358015158114610dee57600080fd5b809150509250929050565b634e487b7160e01b600052604160045260246000fd5b600080600060608486031215610e2457600080fd5b610e2d84610d25565b925060208401359150604084013567ffffffffffffffff80821115610e5157600080fd5b818601915086601f830112610e6557600080fd5b813581811115610e7757610e77610df9565b604051601f8201601f19908116603f01168101908382118183101715610e9f57610e9f610df9565b81604052828152896020848701011115610eb857600080fd5b8260208601602083013760006020848301015280955050505050509250925092565b600080600080600060808688031215610ef257600080fd5b610efb86610d25565b9450610f0960208701610d25565b935060408601359250606086013567ffffffffffffffff80821115610f2d57600080fd5b818801915088601f830112610f4157600080fd5b813581811115610f5057600080fd5b896020828501011115610f6257600080fd5b9699959850939650602001949392505050565b60008060408385031215610f8857600080fd5b610f9183610d25565b9150610f9f60208401610d25565b90509250929050565b600181811c90821680610fbc57607f821691505b602082108103610fdc57634e487b7160e01b600052602260045260246000fd5b50919050565b600060208284031215610ff457600080fd5b8151610cb081610c7a565b60208082526010908201526f155394d0519157d49150d2541251539560821b604082015260600190565b6001600160a01b038681168252851660208201526040810184905260806060820181905281018290526000828460a0840137600060a0848401015260a0601f19601f8501168301019050969550505050505056fea26469706673582212200f63d49ce610b6ddbe31be3aa715273a535c58e15a61eb0dc1cb7acbeecf1bbf64736f6c634300080d003360806040523480156200001157600080fd5b5060405162000fb738038062000fb78339810160408190526200003491620001b7565b604080518082018252600b81526a11985c9b4810985cdad95d60aa1b602080830191825283518085019094526006845265504f5441544f60d01b90840152815133939162000086916000919062000111565b5080516200009c90600190602084019062000111565b5050600680546001600160a01b0319166001600160a01b0384169081179091556040519091506000907f8292fce18fa69edf4db7b94ea2e58241df0ae57f97e0a6c9b29067028bf92d76908290a350600680546001600160a01b0319166001600160a01b039290921691909117905562000225565b8280546200011f90620001e9565b90600052602060002090601f0160209004810192826200014357600085556200018e565b82601f106200015e57805160ff19168380011785556200018e565b828001600101855582156200018e579182015b828111156200018e57825182559160200191906001019062000171565b506200019c929150620001a0565b5090565b5b808211156200019c5760008155600101620001a1565b600060208284031215620001ca57600080fd5b81516001600160a01b0381168114620001e257600080fd5b9392505050565b600181811c90821680620001fe57607f821691505b6020821081036200021f57634e487b7160e01b600052602260045260246000fd5b50919050565b610d8280620002356000396000f3fe608060405234801561001057600080fd5b50600436106100f55760003560e01c80636352211e11610097578063a22cb46511610066578063a22cb46514610215578063b88d4fde14610228578063c87b56dd1461023b578063e985e9c51461024e57600080fd5b80636352211e146101c657806370a08231146101d95780638da5cb5b146101fa57806395d89b411461020d57600080fd5b8063095ea7b3116100d3578063095ea7b31461017857806313af40351461018d57806323b872dd146101a057806342842e0e146101b357600080fd5b806301ffc9a7146100fa57806306fdde0314610122578063081812fc14610137575b600080fd5b61010d610108366004610a6d565b61027c565b60405190151581526020015b60405180910390f35b61012a6102ce565b6040516101199190610a91565b610160610145366004610ae6565b6004602052600090815260409020546001600160a01b031681565b6040516001600160a01b039091168152602001610119565b61018b610186366004610b16565b61035c565b005b61018b61019b366004610b40565b610443565b61018b6101ae366004610b5b565b6104d8565b61018b6101c1366004610b5b565b61069f565b6101606101d4366004610ae6565b610797565b6101ec6101e7366004610b40565b6107ee565b604051908152602001610119565b600654610160906001600160a01b031681565b61012a610851565b61018b610223366004610b97565b61085e565b61018b610236366004610bd3565b6108ca565b61012a610249366004610ae6565b6109b2565b61010d61025c366004610c6e565b600560209081526000928352604080842090915290825290205460ff1681565b60006301ffc9a760e01b6001600160e01b0319831614806102ad57506380ac58cd60e01b6001600160e01b03198316145b806102c85750635b5e139f60e01b6001600160e01b03198316145b92915050565b600080546102db90610ca1565b80601f016020809104026020016040519081016040528092919081815260200182805461030790610ca1565b80156103545780601f1061032957610100808354040283529160200191610354565b820191906000526020600020905b81548152906001019060200180831161033757829003601f168201915b505050505081565b6000818152600260205260409020546001600160a01b0316338114806103a557506001600160a01b038116600090815260056020908152604080832033845290915290205460ff165b6103e75760405162461bcd60e51b815260206004820152600e60248201526d1393d517d055551213d49256915160921b60448201526064015b60405180910390fd5b60008281526004602052604080822080546001600160a01b0319166001600160a01b0387811691821790925591518593918516917f8c5be1e5ebec7d5bd14f71427d1e84f3dd0314c0f7b2291e5b200ac8c7c3b92591a4505050565b6006546001600160a01b0316331461048c5760405162461bcd60e51b815260206004820152600c60248201526b15539055551213d49256915160a21b60448201526064016103de565b600680546001600160a01b0319166001600160a01b03831690811790915560405133907f8292fce18fa69edf4db7b94ea2e58241df0ae57f97e0a6c9b29067028bf92d7690600090a350565b6000818152600260205260409020546001600160a01b0384811691161461052e5760405162461bcd60e51b815260206004820152600a60248201526957524f4e475f46524f4d60b01b60448201526064016103de565b6001600160a01b0382166105785760405162461bcd60e51b81526020600482015260116024820152701253959053125117d49150d25412515395607a1b60448201526064016103de565b336001600160a01b03841614806105b257506001600160a01b038316600090815260056020908152604080832033845290915290205460ff165b806105d357506000818152600460205260409020546001600160a01b031633145b6106105760405162461bcd60e51b815260206004820152600e60248201526d1393d517d055551213d49256915160921b60448201526064016103de565b6001600160a01b0380841660008181526003602090815260408083208054600019019055938616808352848320805460010190558583526002825284832080546001600160a01b03199081168317909155600490925284832080549092169091559251849392917fddf252ad1be2c89b69c2b068fc378daa952ba7f163c4a11628f55a4df523b3ef91a4505050565b6106aa8383836104d8565b6001600160a01b0382163b15806107535750604051630a85bd0160e11b8082523360048301526001600160a01b03858116602484015260448301849052608060648401526000608484015290919084169063150b7a029060a4016020604051808303816000875af1158015610723573d6000803e3d6000fd5b505050506040513d601f19601f820116820180604052508101906107479190610cdb565b6001600160e01b031916145b6107925760405162461bcd60e51b815260206004820152601060248201526f155394d0519157d49150d2541251539560821b60448201526064016103de565b505050565b6000818152600260205260409020546001600160a01b0316806107e95760405162461bcd60e51b815260206004820152600a6024820152691393d517d3525395115160b21b60448201526064016103de565b919050565b60006001600160a01b0382166108355760405162461bcd60e51b815260206004820152600c60248201526b5a45524f5f4144445245535360a01b60448201526064016103de565b506001600160a01b031660009081526003602052604090205490565b600180546102db90610ca1565b3360008181526005602090815260408083206001600160a01b03871680855290835292819020805460ff191686151590811790915590519081529192917f17307eab39ab6107e8899845ad3d59bd9653f200f220920489ca2b5937696c31910160405180910390a35050565b6108d58585856104d8565b6001600160a01b0384163b158061096c5750604051630a85bd0160e11b808252906001600160a01b0386169063150b7a029061091d9033908a90899089908990600401610cf8565b6020604051808303816000875af115801561093c573d6000803e3d6000fd5b505050506040513d601f19601f820116820180604052508101906109609190610cdb565b6001600160e01b031916145b6109ab5760405162461bcd60e51b815260206004820152601060248201526f155394d0519157d49150d2541251539560821b60448201526064016103de565b5050505050565b60008181526007602052604090208054606091906109cf90610ca1565b80601f01602080910402602001604051908101604052809291908181526020018280546109fb90610ca1565b8015610a485780601f10610a1d57610100808354040283529160200191610a48565b820191906000526020600020905b815481529060010190602001808311610a2b57829003601f168201915b50505050509050919050565b6001600160e01b031981168114610a6a57600080fd5b50565b600060208284031215610a7f57600080fd5b8135610a8a81610a54565b9392505050565b600060208083528351808285015260005b81811015610abe57858101830151858201604001528201610aa2565b81811115610ad0576000604083870101525b50601f01601f1916929092016040019392505050565b600060208284031215610af857600080fd5b5035919050565b80356001600160a01b03811681146107e957600080fd5b60008060408385031215610b2957600080fd5b610b3283610aff565b946020939093013593505050565b600060208284031215610b5257600080fd5b610a8a82610aff565b600080600060608486031215610b7057600080fd5b610b7984610aff565b9250610b8760208501610aff565b9150604084013590509250925092565b60008060408385031215610baa57600080fd5b610bb383610aff565b915060208301358015158114610bc857600080fd5b809150509250929050565b600080600080600060808688031215610beb57600080fd5b610bf486610aff565b9450610c0260208701610aff565b935060408601359250606086013567ffffffffffffffff80821115610c2657600080fd5b818801915088601f830112610c3a57600080fd5b813581811115610c4957600080fd5b896020828501011115610c5b57600080fd5b9699959850939650602001949392505050565b60008060408385031215610c8157600080fd5b610c8a83610aff565b9150610c9860208401610aff565b90509250929050565b600181811c90821680610cb557607f821691505b602082108103610cd557634e487b7160e01b600052602260045260246000fd5b50919050565b600060208284031215610ced57600080fd5b8151610a8a81610a54565b6001600160a01b038681168252851660208201526040810184905260806060820181905281018290526000828460a0840137600060a0848401015260a0601f19601f8501168301019050969550505050505056fea2646970667358221220d91d58e8837b9c60913d7eec011f8ed1d54f0569a2c6624465a9d0509fbcb5d464736f6c634300080d0033",
    "linkReferences": {}
  },
  "methodIdentifiers": {
    "_changeAreaGovernor(uint256,address)": "31376004",
    "_changeCustumAreaRules(uint256,address)": "238edf7b",
    "becomeCustomer(uint256)": "15df0a36",
    "becomeFarmer(uint256)": "821ebdbf",
    "belongsTo(address,uint256)": "da0225db",
    "getFCB()": "5aaed90e",
    "globalId()": "ca666823",
    "nominateFarmer(address,uint256)": "6ea3e257"
  },
  "id": 17
}