{
  "abi": [
    {
      "inputs": [],
      "stateMutability": "nonpayable",
      "type": "constructor"
    },
    {
      "anonymous": false,
      "inputs": [
        {
          "indexed": true,
          "internalType": "uint256",
          "name": "_areaID",
          "type": "uint256"
        },
        {
          "indexed": false,
          "internalType": "address",
          "name": "_sender",
          "type": "address"
        }
      ],
      "name": "FailedToJoin",
      "type": "event"
    },
    {
      "anonymous": false,
      "inputs": [
        {
          "indexed": true,
          "internalType": "address",
          "name": "_this",
          "type": "address"
        },
        {
          "indexed": false,
          "internalType": "address",
          "name": "_f",
          "type": "address"
        },
        {
          "indexed": false,
          "internalType": "address",
          "name": "_c",
          "type": "address"
        },
        {
          "indexed": false,
          "internalType": "address",
          "name": "_b",
          "type": "address"
        }
      ],
      "name": "fcbComplete",
      "type": "event"
    },
    {
      "anonymous": false,
      "inputs": [
        {
          "indexed": true,
          "internalType": "uint256",
          "name": "_areaID",
          "type": "uint256"
        },
        {
          "indexed": true,
          "internalType": "address",
          "name": "_byWho",
          "type": "address"
        },
        {
          "indexed": false,
          "internalType": "uint256",
          "name": "farmerid",
          "type": "uint256"
        }
      ],
      "name": "newAreaCreated",
      "type": "event"
    },
    {
      "anonymous": false,
      "inputs": [
        {
          "indexed": true,
          "internalType": "uint256",
          "name": "_areaID",
          "type": "uint256"
        },
        {
          "indexed": true,
          "internalType": "address",
          "name": "_who",
          "type": "address"
        },
        {
          "indexed": false,
          "internalType": "uint256",
          "name": "farmerid",
          "type": "uint256"
        }
      ],
      "name": "newFarmerJoinedArea",
      "type": "event"
    },
    {
      "anonymous": false,
      "inputs": [
        {
          "indexed": true,
          "internalType": "uint256",
          "name": "_areaID",
          "type": "uint256"
        },
        {
          "indexed": true,
          "internalType": "address",
          "name": "_bywho",
          "type": "address"
        },
        {
          "indexed": false,
          "internalType": "address",
          "name": "nominated",
          "type": "address"
        }
      ],
      "name": "newFarmerNominatedForArea",
      "type": "event"
    },
    {
      "inputs": [
        {
          "internalType": "uint256",
          "name": "_areaID",
          "type": "uint256"
        }
      ],
      "name": "becomeCustomer",
      "outputs": [
        {
          "internalType": "uint256",
          "name": "farmerId",
          "type": "uint256"
        }
      ],
      "stateMutability": "nonpayable",
      "type": "function"
    },
    {
      "inputs": [
        {
          "internalType": "uint256",
          "name": "_areaID",
          "type": "uint256"
        }
      ],
      "name": "becomeFarmer",
      "outputs": [
        {
          "internalType": "string",
          "name": "farmerUri",
          "type": "string"
        }
      ],
      "stateMutability": "nonpayable",
      "type": "function"
    },
    {
      "inputs": [
        {
          "internalType": "address",
          "name": "who",
          "type": "address"
        },
        {
          "internalType": "uint256",
          "name": "areaId",
          "type": "uint256"
        }
      ],
      "name": "belongsTo",
      "outputs": [
        {
          "internalType": "bool",
          "name": "",
          "type": "bool"
        }
      ],
      "stateMutability": "view",
      "type": "function"
    },
    {
      "inputs": [],
      "name": "getFCB",
      "outputs": [
        {
          "internalType": "address",
          "name": "",
          "type": "address"
        },
        {
          "internalType": "address",
          "name": "",
          "type": "address"
        },
        {
          "internalType": "address",
          "name": "",
          "type": "address"
        }
      ],
      "stateMutability": "view",
      "type": "function"
    },
    {
      "inputs": [],
      "name": "globalId",
      "outputs": [
        {
          "internalType": "uint256",
          "name": "",
          "type": "uint256"
        }
      ],
      "stateMutability": "view",
      "type": "function"
    },
    {
      "inputs": [
        {
          "internalType": "address",
          "name": "_newFarmer",
          "type": "address"
        },
        {
          "internalType": "uint256",
          "name": "_area",
          "type": "uint256"
        }
      ],
      "name": "nominateFarmer",
      "outputs": [],
      "stateMutability": "nonpayable",
      "type": "function"
    },
    {
      "inputs": [
        {
          "internalType": "address",
          "name": "_f",
          "type": "address"
        },
        {
          "internalType": "address",
          "name": "_c",
          "type": "address"
        },
        {
          "internalType": "address",
          "name": "_b",
          "type": "address"
        }
      ],
      "name": "setFCB",
      "outputs": [],
      "stateMutability": "nonpayable",
      "type": "function"
    }
  ],
  "bytecode": {
    "object": "0x608060405234801561001057600080fd5b50600080546001600160a01b03191633179055610806806100326000396000f3fe608060405234801561001057600080fd5b506004361061007d5760003560e01c8063821ebdbf1161005b578063821ebdbf146100fb578063b6d776891461011b578063ca6668231461012e578063da0225db1461013757600080fd5b806315df0a36146100825780635aaed90e146100b35780636ea3e257146100e6575b600080fd5b6100a0610090366004610626565b5060088054600190810190915590565b6040519081526020015b60405180910390f35b600154600354600254604080516001600160a01b03948516815292841660208401529216918101919091526060016100aa565b6100f96100f4366004610656565b61015a565b005b61010e610109366004610626565b6101f7565b6040516100aa91906106dc565b6100f96101293660046106f6565b6104f2565b6100a060085481565b61014a610145366004610656565b610557565b60405190151581526020016100aa565b6001600160a01b038281166000908152600760205260409020541615801561018757506101873382610557565b61019057600080fd5b6001600160a01b03821660008181526007602090815260409182902080546001600160a01b031916339081179091559151928352909183917fe4e308cc0fe8693509c974f83d068af567d522dc365223a35524936a9f2e1dc1910160405180910390a35050565b60606102033383610557565b156102425760405162461bcd60e51b815260206004820152600a60248201526920b63932b0b23c9034b760b11b60448201526064015b60405180910390fd5b6008548211156102815760405162461bcd60e51b815260206004820152600a602482015269125b9d985b1a5908125960b21b6044820152606401610239565b6008805460010190556040518060400160405280601b81526020017f68747470733a2f2f706f7461746f2e626f6e642f6170692f76312f00000000008152506008546040516020016102d591815260200190565b60408051601f19818403018152908290526102f39291602001610739565b6040516020818303038152906040529050816000036103cc57600854600081815260066020526040902033760c16d9a0095928a2775b7053c0f1782938d6f07ddaaf70811061034457610344610768565b01556008805433600081815260076020526040902080546001600160a01b0319166001600160a01b039093169290921790915590546103849190836105a6565b61038d57600080fd5b6008546040518181523391907f91bbf64d368dafdce9806685f9868faf35992c6868e51f975121f7f055a69874906020015b60405180910390a3919050565b336000908152600760205260409020546103ef906001600160a01b031683610557565b1561048457600854600083815260066020526040902033760c16d9a0095928a2775b7053c0f1782938d6f07ddaaf70811061042c5761042c610768565b015560085461043d903390836105a6565b61044657600080fd5b336001600160a01b0316827fba705ae85061064e22cd6afbb0c81e37438d414ad21c5c312be52c7e9857cdcf6008546040516103bf91815260200190565b60405133815282907fb88b3193f412b471db3b484a792c26db737ce07c12e1bb3fe2783a36678a9c269060200160405180910390a260405162461bcd60e51b8152602060048201526009602482015268155b9a5b9d9a5d195960ba1b6044820152606401610239565b919050565b6000546001600160a01b0316331461050957600080fd5b600180546001600160a01b039485166001600160a01b031991821617909155600280549385169382169390931790925560038054919093169082161790915560008054909116610539179055565b60008181526006602052604081206001600160a01b038416760c16d9a0095928a2775b7053c0f1782938d6f07ddaaf70811061059557610595610768565b0154156105a0575060015b92915050565b600154604051638de6e63360e01b81526000916001600160a01b031690638de6e633906105db9087908790879060040161077e565b6020604051808303816000875af11580156105fa573d6000803e3d6000fd5b505050506040513d601f19601f8201168201806040525081019061061e91906107ae565b949350505050565b60006020828403121561063857600080fd5b5035919050565b80356001600160a01b03811681146104ed57600080fd5b6000806040838503121561066957600080fd5b6106728361063f565b946020939093013593505050565b60005b8381101561069b578181015183820152602001610683565b838111156106aa576000848401525b50505050565b600081518084526106c8816020860160208601610680565b601f01601f19169290920160200192915050565b6020815260006106ef60208301846106b0565b9392505050565b60008060006060848603121561070b57600080fd5b6107148461063f565b92506107226020850161063f565b91506107306040850161063f565b90509250925092565b6000835161074b818460208801610680565b83519083019061075f818360208801610680565b01949350505050565b634e487b7160e01b600052603260045260246000fd5b60018060a01b03841681528260208201526060604082015260006107a560608301846106b0565b95945050505050565b6000602082840312156107c057600080fd5b815180151581146106ef57600080fdfea2646970667358221220d6c99ffdf131ba2cf069d18ffe9901b6a549f7edc6ba291272923071d0eb1af564736f6c634300080d0033",
    "linkReferences": {}
  },
  "methodIdentifiers": {
    "becomeCustomer(uint256)": "15df0a36",
    "becomeFarmer(uint256)": "821ebdbf",
    "belongsTo(address,uint256)": "da0225db",
    "getFCB()": "5aaed90e",
    "globalId()": "ca666823",
    "nominateFarmer(address,uint256)": "6ea3e257",
    "setFCB(address,address,address)": "b6d77689"
  },
  "id": 18
}