{
  "abi": [
    {
      "anonymous": false,
      "inputs": [
        {
          "indexed": true,
          "internalType": "address",
          "name": "account",
          "type": "address"
        },
        {
          "indexed": true,
          "internalType": "address",
          "name": "operator",
          "type": "address"
        },
        {
          "indexed": false,
          "internalType": "bool",
          "name": "approved",
          "type": "bool"
        }
      ],
      "name": "ApprovalForAll",
      "type": "event"
    },
    {
      "anonymous": false,
      "inputs": [
        {
          "indexed": true,
          "internalType": "address",
          "name": "operator",
          "type": "address"
        },
        {
          "indexed": true,
          "internalType": "address",
          "name": "from",
          "type": "address"
        },
        {
          "indexed": true,
          "internalType": "address",
          "name": "to",
          "type": "address"
        },
        {
          "indexed": false,
          "internalType": "uint256[]",
          "name": "ids",
          "type": "uint256[]"
        },
        {
          "indexed": false,
          "internalType": "uint256[]",
          "name": "values",
          "type": "uint256[]"
        }
      ],
      "name": "TransferBatch",
      "type": "event"
    },
    {
      "anonymous": false,
      "inputs": [
        {
          "indexed": true,
          "internalType": "address",
          "name": "operator",
          "type": "address"
        },
        {
          "indexed": true,
          "internalType": "address",
          "name": "from",
          "type": "address"
        },
        {
          "indexed": true,
          "internalType": "address",
          "name": "to",
          "type": "address"
        },
        {
          "indexed": false,
          "internalType": "uint256",
          "name": "id",
          "type": "uint256"
        },
        {
          "indexed": false,
          "internalType": "uint256",
          "name": "value",
          "type": "uint256"
        }
      ],
      "name": "TransferSingle",
      "type": "event"
    },
    {
      "anonymous": false,
      "inputs": [
        {
          "indexed": false,
          "internalType": "string",
          "name": "value",
          "type": "string"
        },
        {
          "indexed": true,
          "internalType": "uint256",
          "name": "id",
          "type": "uint256"
        }
      ],
      "name": "URI",
      "type": "event"
    },
    {
      "inputs": [
        {
          "internalType": "uint256",
          "name": "_areaID",
          "type": "uint256"
        },
        {
          "internalType": "address",
          "name": "_newRulesAddress",
          "type": "address"
        }
      ],
      "name": "_changeCustumAreaRules",
      "outputs": [
        {
          "internalType": "bool",
          "name": "",
          "type": "bool"
        }
      ],
      "stateMutability": "nonpayable",
      "type": "function"
    },
    {
      "inputs": [
        {
          "internalType": "address",
          "name": "account",
          "type": "address"
        },
        {
          "internalType": "uint256",
          "name": "id",
          "type": "uint256"
        }
      ],
      "name": "balanceOf",
      "outputs": [
        {
          "internalType": "uint256",
          "name": "",
          "type": "uint256"
        }
      ],
      "stateMutability": "view",
      "type": "function"
    },
    {
      "inputs": [
        {
          "internalType": "address[]",
          "name": "accounts",
          "type": "address[]"
        },
        {
          "internalType": "uint256[]",
          "name": "ids",
          "type": "uint256[]"
        }
      ],
      "name": "balanceOfBatch",
      "outputs": [
        {
          "internalType": "uint256[]",
          "name": "",
          "type": "uint256[]"
        }
      ],
      "stateMutability": "view",
      "type": "function"
    },
    {
      "inputs": [
        {
          "internalType": "uint256",
          "name": "_areaID",
          "type": "uint256"
        }
      ],
      "name": "becomeCustomer",
      "outputs": [
        {
          "internalType": "uint256",
          "name": "farmerId",
          "type": "uint256"
        }
      ],
      "stateMutability": "nonpayable",
      "type": "function"
    },
    {
      "inputs": [
        {
          "internalType": "uint256",
          "name": "_areaID",
          "type": "uint256"
        },
        {
          "internalType": "string",
          "name": "_uri",
          "type": "string"
        }
      ],
      "name": "becomeFarmer",
      "outputs": [
        {
          "internalType": "uint256",
          "name": "farmerId",
          "type": "uint256"
        }
      ],
      "stateMutability": "nonpayable",
      "type": "function"
    },
    {
      "inputs": [
        {
          "internalType": "address",
          "name": "who",
          "type": "address"
        },
        {
          "internalType": "uint256",
          "name": "areaId",
          "type": "uint256"
        }
      ],
      "name": "belongsTo",
      "outputs": [
        {
          "internalType": "bool",
          "name": "",
          "type": "bool"
        }
      ],
      "stateMutability": "view",
      "type": "function"
    },
    {
      "inputs": [],
      "name": "globalId",
      "outputs": [
        {
          "internalType": "uint256",
          "name": "",
          "type": "uint256"
        }
      ],
      "stateMutability": "view",
      "type": "function"
    },
    {
      "inputs": [
        {
          "internalType": "address",
          "name": "account",
          "type": "address"
        },
        {
          "internalType": "address",
          "name": "operator",
          "type": "address"
        }
      ],
      "name": "isApprovedForAll",
      "outputs": [
        {
          "internalType": "bool",
          "name": "",
          "type": "bool"
        }
      ],
      "stateMutability": "view",
      "type": "function"
    },
    {
      "inputs": [
        {
          "internalType": "address",
          "name": "from",
          "type": "address"
        },
        {
          "internalType": "address",
          "name": "to",
          "type": "address"
        },
        {
          "internalType": "uint256[]",
          "name": "ids",
          "type": "uint256[]"
        },
        {
          "internalType": "uint256[]",
          "name": "amounts",
          "type": "uint256[]"
        },
        {
          "internalType": "bytes",
          "name": "data",
          "type": "bytes"
        }
      ],
      "name": "safeBatchTransferFrom",
      "outputs": [],
      "stateMutability": "nonpayable",
      "type": "function"
    },
    {
      "inputs": [
        {
          "internalType": "address",
          "name": "from",
          "type": "address"
        },
        {
          "internalType": "address",
          "name": "to",
          "type": "address"
        },
        {
          "internalType": "uint256",
          "name": "id",
          "type": "uint256"
        },
        {
          "internalType": "uint256",
          "name": "amount",
          "type": "uint256"
        },
        {
          "internalType": "bytes",
          "name": "data",
          "type": "bytes"
        }
      ],
      "name": "safeTransferFrom",
      "outputs": [],
      "stateMutability": "nonpayable",
      "type": "function"
    },
    {
      "inputs": [
        {
          "internalType": "address",
          "name": "operator",
          "type": "address"
        },
        {
          "internalType": "bool",
          "name": "approved",
          "type": "bool"
        }
      ],
      "name": "setApprovalForAll",
      "outputs": [],
      "stateMutability": "nonpayable",
      "type": "function"
    },
    {
      "inputs": [
        {
          "internalType": "bytes4",
          "name": "interfaceId",
          "type": "bytes4"
        }
      ],
      "name": "supportsInterface",
      "outputs": [
        {
          "internalType": "bool",
          "name": "",
          "type": "bool"
        }
      ],
      "stateMutability": "view",
      "type": "function"
    },
    {
      "inputs": [
        {
          "internalType": "uint256",
          "name": "",
          "type": "uint256"
        }
      ],
      "name": "uri",
      "outputs": [
        {
          "internalType": "string",
          "name": "",
          "type": "string"
        }
      ],
      "stateMutability": "view",
      "type": "function"
    }
  ],
  "bytecode": {
    "object": "0x60806040523480156200001157600080fd5b5060408051808201909152601f81527f68747470733a2f2f706f7461746f2e626f6e642f6170692f76312f7b69647d006020820152620000518162000058565b5062000153565b80516200006d90600290602084019062000071565b5050565b8280546200007f9062000117565b90600052602060002090601f016020900481019282620000a35760008555620000ee565b82601f10620000be57805160ff1916838001178555620000ee565b82800160010185558215620000ee579182015b82811115620000ee578251825591602001919060010190620000d1565b50620000fc92915062000100565b5090565b5b80821115620000fc576000815560010162000101565b600181811c908216806200012c57607f821691505b6020821081036200014d57634e487b7160e01b600052602260045260246000fd5b50919050565b61180780620001636000396000f3fe608060405234801561001057600080fd5b50600436106100ce5760003560e01c80634e1273f41161008c578063da0225db11610066578063da0225db146101be578063e985e9c5146101d1578063f242432a1461020d578063f68a63bc1461022057600080fd5b80634e1273f414610182578063a22cb465146101a2578063ca666823146101b557600080fd5b8062fdd58e146100d357806301ffc9a7146100f95780630e89341c1461011c57806315df0a361461013c578063238edf7b1461015a5780632eb2c2d61461016d575b600080fd5b6100e66100e1366004610eff565b610233565b6040519081526020015b60405180910390f35b61010c610107366004610f42565b6102cc565b60405190151581526020016100f0565b61012f61012a366004610f66565b61031c565b6040516100f09190610fcc565b6100e661014a366004610f66565b50600a8054600190810190915590565b61010c610168366004610fdf565b6103b0565b61018061017b366004611161565b610435565b005b61019561019036600461120b565b610481565b6040516100f09190611311565b6101806101b0366004611324565b6105ab565b6100e6600a5481565b61010c6101cc366004610eff565b6105ba565b61010c6101df366004611360565b6001600160a01b03918216600090815260016020908152604080832093909416825291909152205460ff1690565b61018061021b36600461138a565b6105fd565b6100e661022e3660046113ef565b610642565b60006001600160a01b0383166102a35760405162461bcd60e51b815260206004820152602a60248201527f455243313135353a2061646472657373207a65726f206973206e6f742061207660448201526930b634b21037bbb732b960b11b60648201526084015b60405180910390fd5b506000818152602081815260408083206001600160a01b03861684529091529020545b92915050565b60006001600160e01b03198216636cdb3d1360e11b14806102fd57506001600160e01b031982166303a24d0760e21b145b806102c657506301ffc9a760e01b6001600160e01b03198316146102c6565b60606002805461032b90611440565b80601f016020809104026020016040519081016040528092919081815260200182805461035790611440565b80156103a45780601f10610379576101008083540402835291602001916103a4565b820191906000526020600020905b81548152906001019060200180831161038757829003601f168201915b50505050509050919050565b6000828152600760205260408120546001600160a01b031633146104055760405162461bcd60e51b815260206004820152600c60248201526b155b985d5d1a1bdc9a5e995960a21b604482015260640161029a565b60009283526006602052604090922080546001600160a01b0319166001600160a01b039290921691909117905590565b6001600160a01b038516331480610451575061045185336101df565b61046d5760405162461bcd60e51b815260040161029a9061147a565b61047a8585858585610830565b5050505050565b606081518351146104e65760405162461bcd60e51b815260206004820152602960248201527f455243313135353a206163636f756e747320616e6420696473206c656e677468604482015268040dad2e6dac2e8c6d60bb1b606482015260840161029a565b6000835167ffffffffffffffff8111156105025761050261100b565b60405190808252806020026020018201604052801561052b578160200160208202803683370190505b50905060005b84518110156105a35761057685828151811061054f5761054f6114c9565b6020026020010151858381518110610569576105696114c9565b6020026020010151610233565b828281518110610588576105886114c9565b602090810291909101015261059c816114f5565b9050610531565b509392505050565b6105b6338383610a0d565b5050565b600081815260086020526040812080546001600160a01b0385169081106105e3576105e36114c9565b90600052602060002001546000146102c6575060016102c6565b6001600160a01b038516331480610619575061061985336101df565b6106355760405162461bcd60e51b815260040161029a9061147a565b61047a8585858585610aed565b600061064e33846105ba565b156106885760405162461bcd60e51b815260206004820152600a60248201526920b63932b0b23c9034b760b11b604482015260640161029a565b600a805460010190556003546040516370a0823160e01b81523360048201526001600160a01b03909116906370a0823190602401602060405180830381865afa1580156106d9573d6000803e3d6000fd5b505050506040513d601f19601f820116820180604052508101906106fd919061150e565b33600090815260096020526040902054909150610723906001600160a01b0316846105ba565b1561081357600a54600084815260086020526040902080543390811061074b5761074b6114c9565b906000526020600020018190555061076633600a5484610c17565b6003546040516370a0823160e01b81523360048201526001600160a01b03909116906370a0823190602401602060405180830381865afa1580156107ae573d6000803e3d6000fd5b505050506040513d601f19601f820116820180604052508101906107d2919061150e565b811061080e5760405162461bcd60e51b815260206004820152600b60248201526a1b5a5b9d0819985a5b195960aa1b604482015260640161029a565b50600a545b60008381526008602052604081205490036102c6575060006102c6565b81518351146108925760405162461bcd60e51b815260206004820152602860248201527f455243313135353a2069647320616e6420616d6f756e7473206c656e677468206044820152670dad2e6dac2e8c6d60c31b606482015260840161029a565b6001600160a01b0384166108b85760405162461bcd60e51b815260040161029a90611527565b3360005b845181101561099f5760008582815181106108d9576108d96114c9565b6020026020010151905060008583815181106108f7576108f76114c9565b602090810291909101810151600084815280835260408082206001600160a01b038e1683529093529190912054909150818110156109475760405162461bcd60e51b815260040161029a9061156c565b6000838152602081815260408083206001600160a01b038e8116855292528083208585039055908b168252812080548492906109849084906115b6565b9250508190555050505080610998906114f5565b90506108bc565b50846001600160a01b0316866001600160a01b0316826001600160a01b03167f4a39dc06d4c0dbc64b70af90fd698a233a518aa5d07e595d983b8c0526c8f7fb87876040516109ef9291906115ce565b60405180910390a4610a05818787878787610c82565b505050505050565b816001600160a01b0316836001600160a01b031603610a805760405162461bcd60e51b815260206004820152602960248201527f455243313135353a2073657474696e6720617070726f76616c20737461747573604482015268103337b91039b2b63360b91b606482015260840161029a565b6001600160a01b03838116600081815260016020908152604080832094871680845294825291829020805460ff191686151590811790915591519182527f17307eab39ab6107e8899845ad3d59bd9653f200f220920489ca2b5937696c31910160405180910390a3505050565b6001600160a01b038416610b135760405162461bcd60e51b815260040161029a90611527565b336000610b1f85610ddd565b90506000610b2c85610ddd565b90506000868152602081815260408083206001600160a01b038c16845290915290205485811015610b6f5760405162461bcd60e51b815260040161029a9061156c565b6000878152602081815260408083206001600160a01b038d8116855292528083208985039055908a16825281208054889290610bac9084906115b6565b909155505060408051888152602081018890526001600160a01b03808b16928c821692918816917fc3d58168c5ae7397731d063d5bbf3d657854427343f4c083240f7aacaa2d0f62910160405180910390a4610c0c848a8a8a8a8a610e28565b505050505050505050565b600354604051638de6e63360e01b81526001600160a01b0390911690638de6e63390610c4b908690869086906004016115fc565b600060405180830381600087803b158015610c6557600080fd5b505af1158015610c79573d6000803e3d6000fd5b50505050505050565b6001600160a01b0384163b15610a055760405163bc197c8160e01b81526001600160a01b0385169063bc197c8190610cc69089908990889088908890600401611623565b6020604051808303816000875af1925050508015610d01575060408051601f3d908101601f19168201909252610cfe91810190611681565b60015b610dad57610d0d61169e565b806308c379a003610d465750610d216116ba565b80610d2c5750610d48565b8060405162461bcd60e51b815260040161029a9190610fcc565b505b60405162461bcd60e51b815260206004820152603460248201527f455243313135353a207472616e7366657220746f206e6f6e20455243313135356044820152732932b1b2b4bb32b91034b6b83632b6b2b73a32b960611b606482015260840161029a565b6001600160e01b0319811663bc197c8160e01b14610c795760405162461bcd60e51b815260040161029a90611744565b60408051600180825281830190925260609160009190602080830190803683370190505090508281600081518110610e1757610e176114c9565b602090810291909101015292915050565b6001600160a01b0384163b15610a055760405163f23a6e6160e01b81526001600160a01b0385169063f23a6e6190610e6c908990899088908890889060040161178c565b6020604051808303816000875af1925050508015610ea7575060408051601f3d908101601f19168201909252610ea491810190611681565b60015b610eb357610d0d61169e565b6001600160e01b0319811663f23a6e6160e01b14610c795760405162461bcd60e51b815260040161029a90611744565b80356001600160a01b0381168114610efa57600080fd5b919050565b60008060408385031215610f1257600080fd5b610f1b83610ee3565b946020939093013593505050565b6001600160e01b031981168114610f3f57600080fd5b50565b600060208284031215610f5457600080fd5b8135610f5f81610f29565b9392505050565b600060208284031215610f7857600080fd5b5035919050565b6000815180845260005b81811015610fa557602081850181015186830182015201610f89565b81811115610fb7576000602083870101525b50601f01601f19169290920160200192915050565b602081526000610f5f6020830184610f7f565b60008060408385031215610ff257600080fd5b8235915061100260208401610ee3565b90509250929050565b634e487b7160e01b600052604160045260246000fd5b601f8201601f1916810167ffffffffffffffff811182821017156110475761104761100b565b6040525050565b600067ffffffffffffffff8211156110685761106861100b565b5060051b60200190565b600082601f83011261108357600080fd5b813560206110908261104e565b60405161109d8282611021565b83815260059390931b85018201928281019150868411156110bd57600080fd5b8286015b848110156110d857803583529183019183016110c1565b509695505050505050565b600067ffffffffffffffff8311156110fd576110fd61100b565b604051611114601f8501601f191660200182611021565b80915083815284848401111561112957600080fd5b83836020830137600060208583010152509392505050565b600082601f83011261115257600080fd5b610f5f838335602085016110e3565b600080600080600060a0868803121561117957600080fd5b61118286610ee3565b945061119060208701610ee3565b9350604086013567ffffffffffffffff808211156111ad57600080fd5b6111b989838a01611072565b945060608801359150808211156111cf57600080fd5b6111db89838a01611072565b935060808801359150808211156111f157600080fd5b506111fe88828901611141565b9150509295509295909350565b6000806040838503121561121e57600080fd5b823567ffffffffffffffff8082111561123657600080fd5b818501915085601f83011261124a57600080fd5b813560206112578261104e565b6040516112648282611021565b83815260059390931b850182019282810191508984111561128457600080fd5b948201945b838610156112a95761129a86610ee3565b82529482019490820190611289565b965050860135925050808211156112bf57600080fd5b506112cc85828601611072565b9150509250929050565b600081518084526020808501945080840160005b83811015611306578151875295820195908201906001016112ea565b509495945050505050565b602081526000610f5f60208301846112d6565b6000806040838503121561133757600080fd5b61134083610ee3565b91506020830135801515811461135557600080fd5b809150509250929050565b6000806040838503121561137357600080fd5b61137c83610ee3565b915061100260208401610ee3565b600080600080600060a086880312156113a257600080fd5b6113ab86610ee3565b94506113b960208701610ee3565b93506040860135925060608601359150608086013567ffffffffffffffff8111156113e357600080fd5b6111fe88828901611141565b6000806040838503121561140257600080fd5b82359150602083013567ffffffffffffffff81111561142057600080fd5b8301601f8101851361143157600080fd5b6112cc858235602084016110e3565b600181811c9082168061145457607f821691505b60208210810361147457634e487b7160e01b600052602260045260246000fd5b50919050565b6020808252602f908201527f455243313135353a2063616c6c6572206973206e6f7420746f6b656e206f776e60408201526e195c881b9bdc88185c1c1c9bdd9959608a1b606082015260800190565b634e487b7160e01b600052603260045260246000fd5b634e487b7160e01b600052601160045260246000fd5b600060018201611507576115076114df565b5060010190565b60006020828403121561152057600080fd5b5051919050565b60208082526025908201527f455243313135353a207472616e7366657220746f20746865207a65726f206164604082015264647265737360d81b606082015260800190565b6020808252602a908201527f455243313135353a20696e73756666696369656e742062616c616e636520666f60408201526939103a3930b739b332b960b11b606082015260800190565b600082198211156115c9576115c96114df565b500190565b6040815260006115e160408301856112d6565b82810360208401526115f381856112d6565b95945050505050565b60018060a01b03841681528260208201526060604082015260006115f36060830184610f7f565b6001600160a01b0386811682528516602082015260a06040820181905260009061164f908301866112d6565b828103606084015261166181866112d6565b905082810360808401526116758185610f7f565b98975050505050505050565b60006020828403121561169357600080fd5b8151610f5f81610f29565b600060033d11156116b75760046000803e5060005160e01c5b90565b600060443d10156116c85790565b6040516003193d81016004833e81513d67ffffffffffffffff81602484011181841117156116f857505050505090565b82850191508151818111156117105750505050505090565b843d870101602082850101111561172a5750505050505090565b61173960208286010187611021565b509095945050505050565b60208082526028908201527f455243313135353a204552433131353552656365697665722072656a656374656040820152676420746f6b656e7360c01b606082015260800190565b6001600160a01b03868116825285166020820152604081018490526060810183905260a0608082018190526000906117c690830184610f7f565b97965050505050505056fea2646970667358221220eccde131e006f694354b167ed588c658917816bd6e9f76f6a37601ecfbcc86ff64736f6c634300080d0033",
    "linkReferences": {}
  },
  "methodIdentifiers": {
    "_changeCustumAreaRules(uint256,address)": "238edf7b",
    "balanceOf(address,uint256)": "00fdd58e",
    "balanceOfBatch(address[],uint256[])": "4e1273f4",
    "becomeCustomer(uint256)": "15df0a36",
    "becomeFarmer(uint256,string)": "f68a63bc",
    "belongsTo(address,uint256)": "da0225db",
    "globalId()": "ca666823",
    "isApprovedForAll(address,address)": "e985e9c5",
    "safeBatchTransferFrom(address,address,uint256[],uint256[],bytes)": "2eb2c2d6",
    "safeTransferFrom(address,address,uint256,uint256,bytes)": "f242432a",
    "setApprovalForAll(address,bool)": "a22cb465",
    "supportsInterface(bytes4)": "01ffc9a7",
    "uri(uint256)": "0e89341c"
  },
  "id": 17
}