{
  "abi": [
    {
      "anonymous": false,
      "inputs": [
        {
          "indexed": true,
          "internalType": "address",
          "name": "account",
          "type": "address"
        },
        {
          "indexed": true,
          "internalType": "address",
          "name": "operator",
          "type": "address"
        },
        {
          "indexed": false,
          "internalType": "bool",
          "name": "approved",
          "type": "bool"
        }
      ],
      "name": "ApprovalForAll",
      "type": "event"
    },
    {
      "anonymous": false,
      "inputs": [
        {
          "indexed": true,
          "internalType": "address",
          "name": "operator",
          "type": "address"
        },
        {
          "indexed": true,
          "internalType": "address",
          "name": "from",
          "type": "address"
        },
        {
          "indexed": true,
          "internalType": "address",
          "name": "to",
          "type": "address"
        },
        {
          "indexed": false,
          "internalType": "uint256[]",
          "name": "ids",
          "type": "uint256[]"
        },
        {
          "indexed": false,
          "internalType": "uint256[]",
          "name": "values",
          "type": "uint256[]"
        }
      ],
      "name": "TransferBatch",
      "type": "event"
    },
    {
      "anonymous": false,
      "inputs": [
        {
          "indexed": true,
          "internalType": "address",
          "name": "operator",
          "type": "address"
        },
        {
          "indexed": true,
          "internalType": "address",
          "name": "from",
          "type": "address"
        },
        {
          "indexed": true,
          "internalType": "address",
          "name": "to",
          "type": "address"
        },
        {
          "indexed": false,
          "internalType": "uint256",
          "name": "id",
          "type": "uint256"
        },
        {
          "indexed": false,
          "internalType": "uint256",
          "name": "value",
          "type": "uint256"
        }
      ],
      "name": "TransferSingle",
      "type": "event"
    },
    {
      "anonymous": false,
      "inputs": [
        {
          "indexed": false,
          "internalType": "string",
          "name": "value",
          "type": "string"
        },
        {
          "indexed": true,
          "internalType": "uint256",
          "name": "id",
          "type": "uint256"
        }
      ],
      "name": "URI",
      "type": "event"
    },
    {
      "inputs": [
        {
          "internalType": "uint256",
          "name": "_areaID",
          "type": "uint256"
        },
        {
          "internalType": "address",
          "name": "_newRulesAddress",
          "type": "address"
        }
      ],
      "name": "_changeCustumAreaRules",
      "outputs": [
        {
          "internalType": "bool",
          "name": "",
          "type": "bool"
        }
      ],
      "stateMutability": "nonpayable",
      "type": "function"
    },
    {
      "inputs": [
        {
          "internalType": "address",
          "name": "account",
          "type": "address"
        },
        {
          "internalType": "uint256",
          "name": "id",
          "type": "uint256"
        }
      ],
      "name": "balanceOf",
      "outputs": [
        {
          "internalType": "uint256",
          "name": "",
          "type": "uint256"
        }
      ],
      "stateMutability": "view",
      "type": "function"
    },
    {
      "inputs": [
        {
          "internalType": "address[]",
          "name": "accounts",
          "type": "address[]"
        },
        {
          "internalType": "uint256[]",
          "name": "ids",
          "type": "uint256[]"
        }
      ],
      "name": "balanceOfBatch",
      "outputs": [
        {
          "internalType": "uint256[]",
          "name": "",
          "type": "uint256[]"
        }
      ],
      "stateMutability": "view",
      "type": "function"
    },
    {
      "inputs": [
        {
          "internalType": "uint256",
          "name": "_areaID",
          "type": "uint256"
        }
      ],
      "name": "becomeFarmer",
      "outputs": [
        {
          "internalType": "uint256",
          "name": "farmerId",
          "type": "uint256"
        }
      ],
      "stateMutability": "nonpayable",
      "type": "function"
    },
    {
      "inputs": [
        {
          "internalType": "address",
          "name": "who",
          "type": "address"
        },
        {
          "internalType": "uint256",
          "name": "areaId",
          "type": "uint256"
        }
      ],
      "name": "belongsTo",
      "outputs": [
        {
          "internalType": "bool",
          "name": "",
          "type": "bool"
        }
      ],
      "stateMutability": "view",
      "type": "function"
    },
    {
      "inputs": [],
      "name": "globalId",
      "outputs": [
        {
          "internalType": "uint256",
          "name": "",
          "type": "uint256"
        }
      ],
      "stateMutability": "view",
      "type": "function"
    },
    {
      "inputs": [
        {
          "internalType": "address",
          "name": "account",
          "type": "address"
        },
        {
          "internalType": "address",
          "name": "operator",
          "type": "address"
        }
      ],
      "name": "isApprovedForAll",
      "outputs": [
        {
          "internalType": "bool",
          "name": "",
          "type": "bool"
        }
      ],
      "stateMutability": "view",
      "type": "function"
    },
    {
      "inputs": [
        {
          "internalType": "address",
          "name": "from",
          "type": "address"
        },
        {
          "internalType": "address",
          "name": "to",
          "type": "address"
        },
        {
          "internalType": "uint256[]",
          "name": "ids",
          "type": "uint256[]"
        },
        {
          "internalType": "uint256[]",
          "name": "amounts",
          "type": "uint256[]"
        },
        {
          "internalType": "bytes",
          "name": "data",
          "type": "bytes"
        }
      ],
      "name": "safeBatchTransferFrom",
      "outputs": [],
      "stateMutability": "nonpayable",
      "type": "function"
    },
    {
      "inputs": [
        {
          "internalType": "address",
          "name": "from",
          "type": "address"
        },
        {
          "internalType": "address",
          "name": "to",
          "type": "address"
        },
        {
          "internalType": "uint256",
          "name": "id",
          "type": "uint256"
        },
        {
          "internalType": "uint256",
          "name": "amount",
          "type": "uint256"
        },
        {
          "internalType": "bytes",
          "name": "data",
          "type": "bytes"
        }
      ],
      "name": "safeTransferFrom",
      "outputs": [],
      "stateMutability": "nonpayable",
      "type": "function"
    },
    {
      "inputs": [
        {
          "internalType": "address",
          "name": "operator",
          "type": "address"
        },
        {
          "internalType": "bool",
          "name": "approved",
          "type": "bool"
        }
      ],
      "name": "setApprovalForAll",
      "outputs": [],
      "stateMutability": "nonpayable",
      "type": "function"
    },
    {
      "inputs": [
        {
          "internalType": "bytes4",
          "name": "interfaceId",
          "type": "bytes4"
        }
      ],
      "name": "supportsInterface",
      "outputs": [
        {
          "internalType": "bool",
          "name": "",
          "type": "bool"
        }
      ],
      "stateMutability": "view",
      "type": "function"
    },
    {
      "inputs": [
        {
          "internalType": "uint256",
          "name": "",
          "type": "uint256"
        }
      ],
      "name": "uri",
      "outputs": [
        {
          "internalType": "string",
          "name": "",
          "type": "string"
        }
      ],
      "stateMutability": "view",
      "type": "function"
    }
  ],
  "bytecode": {
    "object": "0x60806040523480156200001157600080fd5b5060408051808201909152601f81527f68747470733a2f2f706f7461746f2e626f6e642f6170692f76312f7b69647d006020820152620000518162000058565b5062000153565b80516200006d90600290602084019062000071565b5050565b8280546200007f9062000117565b90600052602060002090601f016020900481019282620000a35760008555620000ee565b82601f10620000be57805160ff1916838001178555620000ee565b82800160010185558215620000ee579182015b82811115620000ee578251825591602001919060010190620000d1565b50620000fc92915062000100565b5090565b5b80821115620000fc576000815560010162000101565b600181811c908216806200012c57607f821691505b6020821081036200014d57634e487b7160e01b600052602260045260246000fd5b50919050565b6114e480620001636000396000f3fe608060405234801561001057600080fd5b50600436106100b35760003560e01c8063821ebdbf11610071578063821ebdbf14610169578063a22cb4651461017d578063ca66682314610190578063da0225db14610199578063e985e9c5146101ac578063f242432a146101e857600080fd5b8062fdd58e146100b857806301ffc9a7146100de5780630e89341c14610101578063238edf7b146101215780632eb2c2d6146101345780634e1273f414610149575b600080fd5b6100cb6100c6366004610c77565b6101fb565b6040519081526020015b60405180910390f35b6100f16100ec366004610cba565b610294565b60405190151581526020016100d5565b61011461010f366004610cde565b6102e4565b6040516100d59190610d44565b6100f161012f366004610d57565b610378565b610147610142366004610ecf565b6103fd565b005b61015c610157366004610f79565b610449565b6040516100d5919061107f565b6100cb610177366004610cde565b50600090565b61014761018b366004611092565b610573565b6100cb60075481565b6100f16101a7366004610c77565b610582565b6100f16101ba3660046110ce565b6001600160a01b03918216600090815260016020908152604080832093909416825291909152205460ff1690565b6101476101f63660046110f8565b6105c5565b60006001600160a01b03831661026b5760405162461bcd60e51b815260206004820152602a60248201527f455243313135353a2061646472657373207a65726f206973206e6f742061207660448201526930b634b21037bbb732b960b11b60648201526084015b60405180910390fd5b506000818152602081815260408083206001600160a01b03861684529091529020545b92915050565b60006001600160e01b03198216636cdb3d1360e11b14806102c557506001600160e01b031982166303a24d0760e21b145b8061028e57506301ffc9a760e01b6001600160e01b031983161461028e565b6060600280546102f39061115d565b80601f016020809104026020016040519081016040528092919081815260200182805461031f9061115d565b801561036c5780601f106103415761010080835404028352916020019161036c565b820191906000526020600020905b81548152906001019060200180831161034f57829003601f168201915b50505050509050919050565b6000828152600460205260408120546001600160a01b031633146103cd5760405162461bcd60e51b815260206004820152600c60248201526b155b985d5d1a1bdc9a5e995960a21b6044820152606401610262565b60009283526003602052604090922080546001600160a01b0319166001600160a01b039290921691909117905590565b6001600160a01b038516331480610419575061041985336101ba565b6104355760405162461bcd60e51b815260040161026290611197565b610442858585858561060a565b5050505050565b606081518351146104ae5760405162461bcd60e51b815260206004820152602960248201527f455243313135353a206163636f756e747320616e6420696473206c656e677468604482015268040dad2e6dac2e8c6d60bb1b6064820152608401610262565b6000835167ffffffffffffffff8111156104ca576104ca610d83565b6040519080825280602002602001820160405280156104f3578160200160208202803683370190505b50905060005b845181101561056b5761053e858281518110610517576105176111e6565b6020026020010151858381518110610531576105316111e6565b60200260200101516101fb565b828281518110610550576105506111e6565b602090810291909101015261056481611212565b90506104f9565b509392505050565b61057e3383836107e7565b5050565b600081815260056020526040812080546001600160a01b0385169081106105ab576105ab6111e6565b906000526020600020015460001461028e5750600161028e565b6001600160a01b0385163314806105e157506105e185336101ba565b6105fd5760405162461bcd60e51b815260040161026290611197565b61044285858585856108c7565b815183511461066c5760405162461bcd60e51b815260206004820152602860248201527f455243313135353a2069647320616e6420616d6f756e7473206c656e677468206044820152670dad2e6dac2e8c6d60c31b6064820152608401610262565b6001600160a01b0384166106925760405162461bcd60e51b81526004016102629061122b565b3360005b84518110156107795760008582815181106106b3576106b36111e6565b6020026020010151905060008583815181106106d1576106d16111e6565b602090810291909101810151600084815280835260408082206001600160a01b038e1683529093529190912054909150818110156107215760405162461bcd60e51b815260040161026290611270565b6000838152602081815260408083206001600160a01b038e8116855292528083208585039055908b1682528120805484929061075e9084906112ba565b925050819055505050508061077290611212565b9050610696565b50846001600160a01b0316866001600160a01b0316826001600160a01b03167f4a39dc06d4c0dbc64b70af90fd698a233a518aa5d07e595d983b8c0526c8f7fb87876040516107c99291906112d2565b60405180910390a46107df8187878787876109f1565b505050505050565b816001600160a01b0316836001600160a01b03160361085a5760405162461bcd60e51b815260206004820152602960248201527f455243313135353a2073657474696e6720617070726f76616c20737461747573604482015268103337b91039b2b63360b91b6064820152608401610262565b6001600160a01b03838116600081815260016020908152604080832094871680845294825291829020805460ff191686151590811790915591519182527f17307eab39ab6107e8899845ad3d59bd9653f200f220920489ca2b5937696c31910160405180910390a3505050565b6001600160a01b0384166108ed5760405162461bcd60e51b81526004016102629061122b565b3360006108f985610b55565b9050600061090685610b55565b90506000868152602081815260408083206001600160a01b038c168452909152902054858110156109495760405162461bcd60e51b815260040161026290611270565b6000878152602081815260408083206001600160a01b038d8116855292528083208985039055908a168252812080548892906109869084906112ba565b909155505060408051888152602081018890526001600160a01b03808b16928c821692918816917fc3d58168c5ae7397731d063d5bbf3d657854427343f4c083240f7aacaa2d0f62910160405180910390a46109e6848a8a8a8a8a610ba0565b505050505050505050565b6001600160a01b0384163b156107df5760405163bc197c8160e01b81526001600160a01b0385169063bc197c8190610a359089908990889088908890600401611300565b6020604051808303816000875af1925050508015610a70575060408051601f3d908101601f19168201909252610a6d9181019061135e565b60015b610b1c57610a7c61137b565b806308c379a003610ab55750610a90611397565b80610a9b5750610ab7565b8060405162461bcd60e51b81526004016102629190610d44565b505b60405162461bcd60e51b815260206004820152603460248201527f455243313135353a207472616e7366657220746f206e6f6e20455243313135356044820152732932b1b2b4bb32b91034b6b83632b6b2b73a32b960611b6064820152608401610262565b6001600160e01b0319811663bc197c8160e01b14610b4c5760405162461bcd60e51b815260040161026290611421565b50505050505050565b60408051600180825281830190925260609160009190602080830190803683370190505090508281600081518110610b8f57610b8f6111e6565b602090810291909101015292915050565b6001600160a01b0384163b156107df5760405163f23a6e6160e01b81526001600160a01b0385169063f23a6e6190610be49089908990889088908890600401611469565b6020604051808303816000875af1925050508015610c1f575060408051601f3d908101601f19168201909252610c1c9181019061135e565b60015b610c2b57610a7c61137b565b6001600160e01b0319811663f23a6e6160e01b14610b4c5760405162461bcd60e51b815260040161026290611421565b80356001600160a01b0381168114610c7257600080fd5b919050565b60008060408385031215610c8a57600080fd5b610c9383610c5b565b946020939093013593505050565b6001600160e01b031981168114610cb757600080fd5b50565b600060208284031215610ccc57600080fd5b8135610cd781610ca1565b9392505050565b600060208284031215610cf057600080fd5b5035919050565b6000815180845260005b81811015610d1d57602081850181015186830182015201610d01565b81811115610d2f576000602083870101525b50601f01601f19169290920160200192915050565b602081526000610cd76020830184610cf7565b60008060408385031215610d6a57600080fd5b82359150610d7a60208401610c5b565b90509250929050565b634e487b7160e01b600052604160045260246000fd5b601f8201601f1916810167ffffffffffffffff81118282101715610dbf57610dbf610d83565b6040525050565b600067ffffffffffffffff821115610de057610de0610d83565b5060051b60200190565b600082601f830112610dfb57600080fd5b81356020610e0882610dc6565b604051610e158282610d99565b83815260059390931b8501820192828101915086841115610e3557600080fd5b8286015b84811015610e505780358352918301918301610e39565b509695505050505050565b600082601f830112610e6c57600080fd5b813567ffffffffffffffff811115610e8657610e86610d83565b604051610e9d601f8301601f191660200182610d99565b818152846020838601011115610eb257600080fd5b816020850160208301376000918101602001919091529392505050565b600080600080600060a08688031215610ee757600080fd5b610ef086610c5b565b9450610efe60208701610c5b565b9350604086013567ffffffffffffffff80821115610f1b57600080fd5b610f2789838a01610dea565b94506060880135915080821115610f3d57600080fd5b610f4989838a01610dea565b93506080880135915080821115610f5f57600080fd5b50610f6c88828901610e5b565b9150509295509295909350565b60008060408385031215610f8c57600080fd5b823567ffffffffffffffff80821115610fa457600080fd5b818501915085601f830112610fb857600080fd5b81356020610fc582610dc6565b604051610fd28282610d99565b83815260059390931b8501820192828101915089841115610ff257600080fd5b948201945b838610156110175761100886610c5b565b82529482019490820190610ff7565b9650508601359250508082111561102d57600080fd5b5061103a85828601610dea565b9150509250929050565b600081518084526020808501945080840160005b8381101561107457815187529582019590820190600101611058565b509495945050505050565b602081526000610cd76020830184611044565b600080604083850312156110a557600080fd5b6110ae83610c5b565b9150602083013580151581146110c357600080fd5b809150509250929050565b600080604083850312156110e157600080fd5b6110ea83610c5b565b9150610d7a60208401610c5b565b600080600080600060a0868803121561111057600080fd5b61111986610c5b565b945061112760208701610c5b565b93506040860135925060608601359150608086013567ffffffffffffffff81111561115157600080fd5b610f6c88828901610e5b565b600181811c9082168061117157607f821691505b60208210810361119157634e487b7160e01b600052602260045260246000fd5b50919050565b6020808252602f908201527f455243313135353a2063616c6c6572206973206e6f7420746f6b656e206f776e60408201526e195c881b9bdc88185c1c1c9bdd9959608a1b606082015260800190565b634e487b7160e01b600052603260045260246000fd5b634e487b7160e01b600052601160045260246000fd5b600060018201611224576112246111fc565b5060010190565b60208082526025908201527f455243313135353a207472616e7366657220746f20746865207a65726f206164604082015264647265737360d81b606082015260800190565b6020808252602a908201527f455243313135353a20696e73756666696369656e742062616c616e636520666f60408201526939103a3930b739b332b960b11b606082015260800190565b600082198211156112cd576112cd6111fc565b500190565b6040815260006112e56040830185611044565b82810360208401526112f78185611044565b95945050505050565b6001600160a01b0386811682528516602082015260a06040820181905260009061132c90830186611044565b828103606084015261133e8186611044565b905082810360808401526113528185610cf7565b98975050505050505050565b60006020828403121561137057600080fd5b8151610cd781610ca1565b600060033d11156113945760046000803e5060005160e01c5b90565b600060443d10156113a55790565b6040516003193d81016004833e81513d67ffffffffffffffff81602484011181841117156113d557505050505090565b82850191508151818111156113ed5750505050505090565b843d87010160208285010111156114075750505050505090565b61141660208286010187610d99565b509095945050505050565b60208082526028908201527f455243313135353a204552433131353552656365697665722072656a656374656040820152676420746f6b656e7360c01b606082015260800190565b6001600160a01b03868116825285166020820152604081018490526060810183905260a0608082018190526000906114a390830184610cf7565b97965050505050505056fea2646970667358221220dc13ebb6cc12d0f5936fedcad998ada3cc9da00b3cce921bbcb7b4a463d8c5fe64736f6c634300080d0033",
    "linkReferences": {}
  },
  "methodIdentifiers": {
    "_changeCustumAreaRules(uint256,address)": "238edf7b",
    "balanceOf(address,uint256)": "00fdd58e",
    "balanceOfBatch(address[],uint256[])": "4e1273f4",
    "becomeFarmer(uint256)": "821ebdbf",
    "belongsTo(address,uint256)": "da0225db",
    "globalId()": "ca666823",
    "isApprovedForAll(address,address)": "e985e9c5",
    "safeBatchTransferFrom(address,address,uint256[],uint256[],bytes)": "2eb2c2d6",
    "safeTransferFrom(address,address,uint256,uint256,bytes)": "f242432a",
    "setApprovalForAll(address,bool)": "a22cb465",
    "supportsInterface(bytes4)": "01ffc9a7",
    "uri(uint256)": "0e89341c"
  },
  "id": 17
}