{
  "abi": [
    {
      "inputs": [],
      "stateMutability": "nonpayable",
      "type": "constructor"
    },
    {
      "inputs": [],
      "name": "RuleContractReturnedFalse",
      "type": "error"
    },
    {
      "inputs": [],
      "name": "areaNotTokenTransferable",
      "type": "error"
    },
    {
      "anonymous": false,
      "inputs": [
        {
          "indexed": true,
          "internalType": "address",
          "name": "account",
          "type": "address"
        },
        {
          "indexed": true,
          "internalType": "address",
          "name": "operator",
          "type": "address"
        },
        {
          "indexed": false,
          "internalType": "bool",
          "name": "approved",
          "type": "bool"
        }
      ],
      "name": "ApprovalForAll",
      "type": "event"
    },
    {
      "anonymous": false,
      "inputs": [
        {
          "indexed": true,
          "internalType": "uint256",
          "name": "_areaID",
          "type": "uint256"
        },
        {
          "indexed": false,
          "internalType": "address",
          "name": "_sender",
          "type": "address"
        }
      ],
      "name": "FailedToJoinOrBecome",
      "type": "event"
    },
    {
      "anonymous": false,
      "inputs": [
        {
          "indexed": true,
          "internalType": "uint256",
          "name": "_areaID",
          "type": "uint256"
        },
        {
          "indexed": true,
          "internalType": "address",
          "name": "_farmer",
          "type": "address"
        },
        {
          "indexed": false,
          "internalType": "uint256",
          "name": "howmany",
          "type": "uint256"
        },
        {
          "indexed": true,
          "internalType": "uint256",
          "name": "_gID",
          "type": "uint256"
        }
      ],
      "name": "NewBasketsInArea",
      "type": "event"
    },
    {
      "anonymous": false,
      "inputs": [
        {
          "indexed": true,
          "internalType": "address",
          "name": "operator",
          "type": "address"
        },
        {
          "indexed": true,
          "internalType": "address",
          "name": "from",
          "type": "address"
        },
        {
          "indexed": true,
          "internalType": "address",
          "name": "to",
          "type": "address"
        },
        {
          "indexed": false,
          "internalType": "uint256[]",
          "name": "ids",
          "type": "uint256[]"
        },
        {
          "indexed": false,
          "internalType": "uint256[]",
          "name": "values",
          "type": "uint256[]"
        }
      ],
      "name": "TransferBatch",
      "type": "event"
    },
    {
      "anonymous": false,
      "inputs": [
        {
          "indexed": true,
          "internalType": "address",
          "name": "operator",
          "type": "address"
        },
        {
          "indexed": true,
          "internalType": "address",
          "name": "from",
          "type": "address"
        },
        {
          "indexed": true,
          "internalType": "address",
          "name": "to",
          "type": "address"
        },
        {
          "indexed": false,
          "internalType": "uint256",
          "name": "id",
          "type": "uint256"
        },
        {
          "indexed": false,
          "internalType": "uint256",
          "name": "value",
          "type": "uint256"
        }
      ],
      "name": "TransferSingle",
      "type": "event"
    },
    {
      "anonymous": false,
      "inputs": [
        {
          "indexed": false,
          "internalType": "string",
          "name": "value",
          "type": "string"
        },
        {
          "indexed": true,
          "internalType": "uint256",
          "name": "id",
          "type": "uint256"
        }
      ],
      "name": "URI",
      "type": "event"
    },
    {
      "anonymous": false,
      "inputs": [
        {
          "indexed": true,
          "internalType": "uint256",
          "name": "_areaID",
          "type": "uint256"
        },
        {
          "indexed": true,
          "internalType": "address",
          "name": "_to",
          "type": "address"
        }
      ],
      "name": "changedGovernorOfAreaTo",
      "type": "event"
    },
    {
      "anonymous": false,
      "inputs": [
        {
          "indexed": true,
          "internalType": "uint256",
          "name": "_areaID",
          "type": "uint256"
        },
        {
          "indexed": true,
          "internalType": "address",
          "name": "_newRulesAddress",
          "type": "address"
        }
      ],
      "name": "changedRulesOfArea",
      "type": "event"
    },
    {
      "anonymous": false,
      "inputs": [
        {
          "indexed": true,
          "internalType": "uint256",
          "name": "_areaID",
          "type": "uint256"
        },
        {
          "indexed": true,
          "internalType": "uint256",
          "name": "consummerID",
          "type": "uint256"
        },
        {
          "indexed": false,
          "internalType": "address",
          "name": "sender",
          "type": "address"
        }
      ],
      "name": "consIDaddedToArea",
      "type": "event"
    },
    {
      "anonymous": false,
      "inputs": [
        {
          "indexed": true,
          "internalType": "address",
          "name": "_this",
          "type": "address"
        },
        {
          "indexed": true,
          "internalType": "uint256",
          "name": "_gID",
          "type": "uint256"
        },
        {
          "indexed": false,
          "internalType": "address",
          "name": "_f",
          "type": "address"
        },
        {
          "indexed": false,
          "internalType": "address",
          "name": "_c",
          "type": "address"
        },
        {
          "indexed": false,
          "internalType": "address",
          "name": "_b",
          "type": "address"
        }
      ],
      "name": "fcbComplete",
      "type": "event"
    },
    {
      "anonymous": false,
      "inputs": [
        {
          "indexed": true,
          "internalType": "uint256",
          "name": "_areaID",
          "type": "uint256"
        },
        {
          "indexed": true,
          "internalType": "address",
          "name": "_byWho",
          "type": "address"
        },
        {
          "indexed": true,
          "internalType": "uint256",
          "name": "_gID",
          "type": "uint256"
        }
      ],
      "name": "newAreaCreated",
      "type": "event"
    },
    {
      "anonymous": false,
      "inputs": [
        {
          "indexed": true,
          "internalType": "uint256",
          "name": "_areaID",
          "type": "uint256"
        },
        {
          "indexed": true,
          "internalType": "address",
          "name": "_farmer",
          "type": "address"
        },
        {
          "indexed": true,
          "internalType": "uint256",
          "name": "_gID",
          "type": "uint256"
        }
      ],
      "name": "newBasket",
      "type": "event"
    },
    {
      "anonymous": false,
      "inputs": [
        {
          "indexed": true,
          "internalType": "uint256",
          "name": "_areaID",
          "type": "uint256"
        },
        {
          "indexed": true,
          "internalType": "address",
          "name": "_who",
          "type": "address"
        },
        {
          "indexed": true,
          "internalType": "uint256",
          "name": "_gID",
          "type": "uint256"
        }
      ],
      "name": "newFarmerJoinedArea",
      "type": "event"
    },
    {
      "anonymous": false,
      "inputs": [
        {
          "indexed": true,
          "internalType": "uint256",
          "name": "_areaID",
          "type": "uint256"
        },
        {
          "indexed": true,
          "internalType": "address",
          "name": "_bywho",
          "type": "address"
        },
        {
          "indexed": false,
          "internalType": "address",
          "name": "nominated",
          "type": "address"
        }
      ],
      "name": "newFarmerNominatedForArea",
      "type": "event"
    },
    {
      "anonymous": false,
      "inputs": [
        {
          "indexed": true,
          "internalType": "uint256",
          "name": "_gID",
          "type": "uint256"
        }
      ],
      "name": "plusOne",
      "type": "event"
    },
    {
      "inputs": [
        {
          "internalType": "address",
          "name": "account",
          "type": "address"
        },
        {
          "internalType": "uint256",
          "name": "id",
          "type": "uint256"
        }
      ],
      "name": "balanceOf",
      "outputs": [
        {
          "internalType": "uint256",
          "name": "",
          "type": "uint256"
        }
      ],
      "stateMutability": "view",
      "type": "function"
    },
    {
      "inputs": [
        {
          "internalType": "address[]",
          "name": "accounts",
          "type": "address[]"
        },
        {
          "internalType": "uint256[]",
          "name": "ids",
          "type": "uint256[]"
        }
      ],
      "name": "balanceOfBatch",
      "outputs": [
        {
          "internalType": "uint256[]",
          "name": "",
          "type": "uint256[]"
        }
      ],
      "stateMutability": "view",
      "type": "function"
    },
    {
      "inputs": [
        {
          "internalType": "uint256",
          "name": "_basketID",
          "type": "uint256"
        },
        {
          "internalType": "bytes",
          "name": "data",
          "type": "bytes"
        }
      ],
      "name": "basketTransferCallBack",
      "outputs": [
        {
          "internalType": "bool",
          "name": "",
          "type": "bool"
        }
      ],
      "stateMutability": "nonpayable",
      "type": "function"
    },
    {
      "inputs": [
        {
          "internalType": "uint256",
          "name": "_areaID",
          "type": "uint256"
        },
        {
          "internalType": "string",
          "name": "ipfsCID",
          "type": "string"
        }
      ],
      "name": "becomeFarmer",
      "outputs": [
        {
          "internalType": "string",
          "name": "farmerUri",
          "type": "string"
        }
      ],
      "stateMutability": "nonpayable",
      "type": "function"
    },
    {
      "inputs": [
        {
          "internalType": "address",
          "name": "who",
          "type": "address"
        },
        {
          "internalType": "uint256",
          "name": "areaId",
          "type": "uint256"
        }
      ],
      "name": "belongsTo",
      "outputs": [
        {
          "internalType": "bool",
          "name": "",
          "type": "bool"
        }
      ],
      "stateMutability": "view",
      "type": "function"
    },
    {
      "inputs": [
        {
          "internalType": "uint256",
          "name": "_areaID",
          "type": "uint256"
        },
        {
          "internalType": "address",
          "name": "_newRulesAddress",
          "type": "address"
        }
      ],
      "name": "changeRulesOfArea",
      "outputs": [],
      "stateMutability": "nonpayable",
      "type": "function"
    },
    {
      "inputs": [
        {
          "internalType": "uint256",
          "name": "_id",
          "type": "uint256"
        }
      ],
      "name": "getAll",
      "outputs": [
        {
          "components": [
            {
              "internalType": "uint256",
              "name": "area_id",
              "type": "uint256"
            },
            {
              "internalType": "uint256[3]",
              "name": "fcb",
              "type": "uint256[3]"
            },
            {
              "internalType": "address",
              "name": "governor",
              "type": "address"
            },
            {
              "internalType": "address",
              "name": "rule_contract",
              "type": "address"
            },
            {
              "internalType": "string",
              "name": "data_url",
              "type": "string"
            },
            {
              "internalType": "string",
              "name": "ipfs",
              "type": "string"
            }
          ],
          "internalType": "struct sA",
          "name": "",
          "type": "tuple"
        },
        {
          "components": [
            {
              "internalType": "uint256",
              "name": "area_id",
              "type": "uint256"
            },
            {
              "internalType": "uint256",
              "name": "price",
              "type": "uint256"
            },
            {
              "internalType": "address",
              "name": "farmer_address",
              "type": "address"
            },
            {
              "internalType": "address",
              "name": "consumer_address",
              "type": "address"
            },
            {
              "internalType": "address",
              "name": "erc20",
              "type": "address"
            },
            {
              "internalType": "uint256[2]",
              "name": "redeamable",
              "type": "uint256[2]"
            }
          ],
          "internalType": "struct sB",
          "name": "",
          "type": "tuple"
        },
        {
          "components": [
            {
              "internalType": "uint256",
              "name": "area_id",
              "type": "uint256"
            },
            {
              "internalType": "uint256[2]",
              "name": "p_c",
              "type": "uint256[2]"
            },
            {
              "internalType": "string",
              "name": "ipfs",
              "type": "string"
            }
          ],
          "internalType": "struct sC",
          "name": "",
          "type": "tuple"
        },
        {
          "components": [
            {
              "internalType": "uint256",
              "name": "area_id",
              "type": "uint256"
            },
            {
              "internalType": "uint256",
              "name": "issued",
              "type": "uint256"
            },
            {
              "internalType": "uint256",
              "name": "fulfilled",
              "type": "uint256"
            },
            {
              "internalType": "address",
              "name": "farmerAddress",
              "type": "address"
            },
            {
              "internalType": "string",
              "name": "ipfs",
              "type": "string"
            }
          ],
          "internalType": "struct sF",
          "name": "",
          "type": "tuple"
        }
      ],
      "stateMutability": "view",
      "type": "function"
    },
    {
      "inputs": [
        {
          "internalType": "uint256",
          "name": "id",
          "type": "uint256"
        }
      ],
      "name": "getArea",
      "outputs": [
        {
          "components": [
            {
              "internalType": "uint256",
              "name": "area_id",
              "type": "uint256"
            },
            {
              "internalType": "uint256[3]",
              "name": "fcb",
              "type": "uint256[3]"
            },
            {
              "internalType": "address",
              "name": "governor",
              "type": "address"
            },
            {
              "internalType": "address",
              "name": "rule_contract",
              "type": "address"
            },
            {
              "internalType": "string",
              "name": "data_url",
              "type": "string"
            },
            {
              "internalType": "string",
              "name": "ipfs",
              "type": "string"
            }
          ],
          "internalType": "struct sA",
          "name": "",
          "type": "tuple"
        }
      ],
      "stateMutability": "view",
      "type": "function"
    },
    {
      "inputs": [
        {
          "internalType": "uint256",
          "name": "id",
          "type": "uint256"
        }
      ],
      "name": "getAreaMetaData",
      "outputs": [
        {
          "internalType": "string",
          "name": "",
          "type": "string"
        }
      ],
      "stateMutability": "view",
      "type": "function"
    },
    {
      "inputs": [],
      "name": "getCurrentGId",
      "outputs": [
        {
          "internalType": "uint256",
          "name": "",
          "type": "uint256"
        }
      ],
      "stateMutability": "view",
      "type": "function"
    },
    {
      "inputs": [],
      "name": "getFCB",
      "outputs": [
        {
          "internalType": "address",
          "name": "",
          "type": "address"
        },
        {
          "internalType": "address",
          "name": "",
          "type": "address"
        },
        {
          "internalType": "address",
          "name": "",
          "type": "address"
        }
      ],
      "stateMutability": "view",
      "type": "function"
    },
    {
      "inputs": [],
      "name": "globalId",
      "outputs": [
        {
          "internalType": "uint256",
          "name": "",
          "type": "uint256"
        }
      ],
      "stateMutability": "view",
      "type": "function"
    },
    {
      "inputs": [
        {
          "internalType": "address",
          "name": "_newFarmer",
          "type": "address"
        },
        {
          "internalType": "uint256",
          "name": "_area",
          "type": "uint256"
        }
      ],
      "name": "inviteFarmer",
      "outputs": [],
      "stateMutability": "nonpayable",
      "type": "function"
    },
    {
      "inputs": [
        {
          "internalType": "address",
          "name": "account",
          "type": "address"
        },
        {
          "internalType": "address",
          "name": "operator",
          "type": "address"
        }
      ],
      "name": "isApprovedForAll",
      "outputs": [
        {
          "internalType": "bool",
          "name": "",
          "type": "bool"
        }
      ],
      "stateMutability": "view",
      "type": "function"
    },
    {
      "inputs": [
        {
          "internalType": "uint256",
          "name": "_areaID",
          "type": "uint256"
        },
        {
          "internalType": "string",
          "name": "_ipfs",
          "type": "string"
        }
      ],
      "name": "joinAsConsumer",
      "outputs": [
        {
          "internalType": "bool",
          "name": "s",
          "type": "bool"
        }
      ],
      "stateMutability": "nonpayable",
      "type": "function"
    },
    {
      "inputs": [
        {
          "internalType": "uint256",
          "name": "_areaID",
          "type": "uint256"
        },
        {
          "internalType": "uint256",
          "name": "amount",
          "type": "uint256"
        },
        {
          "internalType": "uint256",
          "name": "price",
          "type": "uint256"
        },
        {
          "internalType": "address",
          "name": "erc20",
          "type": "address"
        },
        {
          "internalType": "uint256",
          "name": "rStart",
          "type": "uint256"
        },
        {
          "internalType": "uint256",
          "name": "rEnd",
          "type": "uint256"
        },
        {
          "internalType": "string",
          "name": "CID",
          "type": "string"
        }
      ],
      "name": "mintBaskets",
      "outputs": [
        {
          "internalType": "uint256",
          "name": "lastId",
          "type": "uint256"
        }
      ],
      "stateMutability": "nonpayable",
      "type": "function"
    },
    {
      "inputs": [
        {
          "internalType": "address",
          "name": "from",
          "type": "address"
        },
        {
          "internalType": "address",
          "name": "to",
          "type": "address"
        },
        {
          "internalType": "uint256[]",
          "name": "ids",
          "type": "uint256[]"
        },
        {
          "internalType": "uint256[]",
          "name": "amounts",
          "type": "uint256[]"
        },
        {
          "internalType": "bytes",
          "name": "data",
          "type": "bytes"
        }
      ],
      "name": "safeBatchTransferFrom",
      "outputs": [],
      "stateMutability": "nonpayable",
      "type": "function"
    },
    {
      "inputs": [
        {
          "internalType": "address",
          "name": "from",
          "type": "address"
        },
        {
          "internalType": "address",
          "name": "to",
          "type": "address"
        },
        {
          "internalType": "uint256",
          "name": "id",
          "type": "uint256"
        },
        {
          "internalType": "uint256",
          "name": "amount",
          "type": "uint256"
        },
        {
          "internalType": "bytes",
          "name": "data",
          "type": "bytes"
        }
      ],
      "name": "safeTransferFrom",
      "outputs": [],
      "stateMutability": "nonpayable",
      "type": "function"
    },
    {
      "inputs": [
        {
          "internalType": "address",
          "name": "operator",
          "type": "address"
        },
        {
          "internalType": "bool",
          "name": "approved",
          "type": "bool"
        }
      ],
      "name": "setApprovalForAll",
      "outputs": [],
      "stateMutability": "nonpayable",
      "type": "function"
    },
    {
      "inputs": [
        {
          "internalType": "address",
          "name": "_f",
          "type": "address"
        },
        {
          "internalType": "address",
          "name": "_c",
          "type": "address"
        },
        {
          "internalType": "address",
          "name": "_b",
          "type": "address"
        }
      ],
      "name": "setFCB",
      "outputs": [],
      "stateMutability": "nonpayable",
      "type": "function"
    },
    {
      "inputs": [
        {
          "internalType": "bytes4",
          "name": "interfaceId",
          "type": "bytes4"
        }
      ],
      "name": "supportsInterface",
      "outputs": [
        {
          "internalType": "bool",
          "name": "",
          "type": "bool"
        }
      ],
      "stateMutability": "view",
      "type": "function"
    },
    {
      "inputs": [
        {
          "internalType": "uint256",
          "name": "",
          "type": "uint256"
        }
      ],
      "name": "uri",
      "outputs": [
        {
          "internalType": "string",
          "name": "",
          "type": "string"
        }
      ],
      "stateMutability": "view",
      "type": "function"
    }
  ],
  "bytecode": {
    "object": "0x60a0604052670de0b6b3a76400006080523480156200001d57600080fd5b5060408051808201909152601f81527f68747470733a2f2f706f7461746f2e626f6e642f6170692f76312f7b69647d0060208201526200005d8162000076565b50600380546001600160a01b0319163317905562000171565b80516200008b9060029060208401906200008f565b5050565b8280546200009d9062000135565b90600052602060002090601f016020900481019282620000c157600085556200010c565b82601f10620000dc57805160ff19168380011785556200010c565b828001600101855582156200010c579182015b828111156200010c578251825591602001919060010190620000ef565b506200011a9291506200011e565b5090565b5b808211156200011a57600081556001016200011f565b600181811c908216806200014a57607f821691505b6020821081036200016b57634e487b7160e01b600052602260045260246000fd5b50919050565b6080516137a26200018d60003960006119ef01526137a26000f3fe608060405234801561001057600080fd5b50600436106101415760003560e01c8063b6d77689116100b8578063d6a6cff01161007c578063d6a6cff0146102dd578063da0225db146102f8578063e985e9c51461030b578063f242432a14610347578063f68a63bc1461035a578063ff360d961461036d57600080fd5b8063b6d7768914610293578063c17c59ce146102a6578063c3beb4ea146102ae578063c81f28a9146102c1578063ca666823146102d457600080fd5b80633c077a481161010a5780633c077a48146101d75780634e1273f4146101fa5780635aaed90e1461021a5780636490c7a81461024d57806384ff92ef1461026d578063a22cb4651461028057600080fd5b8062fdd58e1461014657806301ffc9a71461016c5780630e89341c1461018f57806321c1f4c3146101af5780632eb2c2d6146101c2575b600080fd5b610159610154366004612993565b610380565b6040519081526020015b60405180910390f35b61017f61017a3660046129d6565b610419565b6040519015158152602001610163565b6101a261019d3660046129f3565b610469565b6040516101639190612a64565b61017f6101bd366004612a77565b6104fd565b6101d56101d0366004612c3f565b610664565b005b6101ea6101e53660046129f3565b6106b0565b6040516101639493929190612e1d565b61020d610208366004612eb8565b610b31565b6040516101639190612fbe565b600454600554600654604080516001600160a01b0394851681529284166020840152921691810191909152606001610163565b61026061025b3660046129f3565b610c5b565b6040516101639190612fd1565b61015961027b366004612fe4565b610e08565b6101d561028e366004613070565b611083565b6101d56102a13660046130a7565b611092565b600e54610159565b6101d56102bc3660046130ea565b61113f565b61017f6102cf366004613116565b611254565b610159600e5481565b6101a26102eb3660046129f3565b6000526007602052606090565b61017f610306366004612993565b61172b565b61017f610319366004613153565b6001600160a01b03918216600090815260016020908152604080832093909416825291909152205460ff1690565b6101d561035536600461317d565b611778565b6101a2610368366004613116565b6117bd565b6101d561037b366004612993565b611bf6565b60006001600160a01b0383166103f05760405162461bcd60e51b815260206004820152602a60248201527f455243313135353a2061646472657373207a65726f206973206e6f742061207660448201526930b634b21037bbb732b960b11b60648201526084015b60405180910390fd5b506000818152602081815260408083206001600160a01b03861684529091529020545b92915050565b60006001600160e01b03198216636cdb3d1360e11b148061044a57506001600160e01b031982166303a24d0760e21b145b8061041357506301ffc9a760e01b6001600160e01b0319831614610413565b606060028054610478906131e2565b80601f01602080910402602001604051908101604052809291908181526020018280546104a4906131e2565b80156104f15780601f106104c6576101008083540402835291602001916104f1565b820191906000526020600020905b8154815290600101906020018083116104d457829003601f168201915b50505050509050919050565b6006546000906001600160a01b0316331461051757600080fd5b6000848152600a60209081526040808320815160c081018352815481526001820154938101939093526002808201546001600160a01b03908116858501526003830154811660608601526004830154166080850152825180840193849052919260a085019291600585019182845b815481526020019060010190808311610585575050509190925250508151600090815260076020526040902060050154919250506001600160a01b03166105d057600191505061065d565b8051600090815260076020526040908190206005015490516353ceac3960e11b81526001600160a01b039091169063a79d58729061061690889088908890600401613216565b6020604051808303816000875af1158015610635573d6000803e3d6000fd5b505050506040513d601f19601f82011682018060405250810190610659919061324c565b9150505b9392505050565b6001600160a01b03851633148061068057506106808533610319565b61069c5760405162461bcd60e51b81526004016103e790613269565b6106a98585858585611c94565b5050505050565b6106b86127ef565b6106c061282a565b6106c8612880565b6107036040518060a0016040528060008152602001600081526020016000815260200160006001600160a01b03168152602001606081525090565b6000858152600760209081526040808320815160c08101835281548152825160608101938490529093919291840191600184019060039082845b81548152602001906001019080831161073d57505050918352505060048201546001600160a01b039081166020830152600583015416604082015260068201805460609092019161078d906131e2565b80601f01602080910402602001604051908101604052809291908181526020018280546107b9906131e2565b80156108065780601f106107db57610100808354040283529160200191610806565b820191906000526020600020905b8154815290600101906020018083116107e957829003601f168201915b5050505050815260200160078201805461081f906131e2565b80601f016020809104026020016040519081016040528092919081815260200182805461084b906131e2565b80156108985780601f1061086d57610100808354040283529160200191610898565b820191906000526020600020905b81548152906001019060200180831161087b57829003601f168201915b505050919092525050506000878152600a60209081526040808320815160c081018352815481526001820154938101939093526002808201546001600160a01b0390811685850152600383015481166060860152600483015416608085015282518084019384905295965093949293909260a08501929091600585019182845b8154815260200190600101908083116109185750505091909252505050600088815260096020908152604080832081516060810183528154815282518084019384905295965093949092840191600184019060029082845b815481526020019060010190808311610970575050505050815260200160038201805461099c906131e2565b80601f01602080910402602001604051908101604052809291908181526020018280546109c8906131e2565b8015610a155780601f106109ea57610100808354040283529160200191610a15565b820191906000526020600020905b8154815290600101906020018083116109f857829003601f168201915b50505050508152505090506000600860008a81526020019081526020016000206040518060a00160405290816000820154815260200160018201548152602001600282015481526020016003820160009054906101000a90046001600160a01b03166001600160a01b03166001600160a01b03168152602001600482018054610a9d906131e2565b80601f0160208091040260200160405190810160405280929190818152602001828054610ac9906131e2565b8015610b165780601f10610aeb57610100808354040283529160200191610b16565b820191906000526020600020905b815481529060010190602001808311610af957829003601f168201915b5050509190925250959b949a50929850965091945050505050565b60608151835114610b965760405162461bcd60e51b815260206004820152602960248201527f455243313135353a206163636f756e747320616e6420696473206c656e677468604482015268040dad2e6dac2e8c6d60bb1b60648201526084016103e7565b6000835167ffffffffffffffff811115610bb257610bb2612af3565b604051908082528060200260200182016040528015610bdb578160200160208202803683370190505b50905060005b8451811015610c5357610c26858281518110610bff57610bff6132b8565b6020026020010151858381518110610c1957610c196132b8565b6020026020010151610380565b828281518110610c3857610c386132b8565b6020908102919091010152610c4c816132e4565b9050610be1565b509392505050565b610c636127ef565b600082815260076020908152604091829020825160c081018452815481528351606081019485905290939192840191600184019060039082845b815481526020019060010190808311610c9d57505050918352505060048201546001600160a01b0390811660208301526005830154166040820152600682018054606090920191610ced906131e2565b80601f0160208091040260200160405190810160405280929190818152602001828054610d19906131e2565b8015610d665780601f10610d3b57610100808354040283529160200191610d66565b820191906000526020600020905b815481529060010190602001808311610d4957829003601f168201915b50505050508152602001600782018054610d7f906131e2565b80601f0160208091040260200160405190810160405280929190818152602001828054610dab906131e2565b8015610df85780601f10610dcd57610100808354040283529160200191610df8565b820191906000526020600020905b815481529060010190602001808311610ddb57829003601f168201915b5050505050815250509050919050565b6000610e14338961172b565b610e4e5760405162461bcd60e51b815260206004820152600b60248201526a4e6f7420696e204172656160a81b60448201526064016103e7565b4283856001600160a01b038816610e658a8c6132fd565b610e6f91906132fd565b610e7991906132fd565b610e8391906132fd565b11610ec55760405162461bcd60e51b81526020600482015260126024820152715a65726f56616c206f72206c6f7754696d6560701b60448201526064016103e7565b600654600e546040516318b0c61760e31b81526001600160a01b039092169163c58630b891610efc918b903390889060040161331c565b6020604051808303816000875af1158015610f1b573d6000803e3d6000fd5b505050506040513d601f19601f82011682018060405250810190610f3f919061324c565b610f745760405162461bcd60e51b815260206004820152600660248201526526b4b73a103360d11b60448201526064016103e7565b50600e545b610f838188613353565b600e54101561103e57600e80546000908152600a60205260408082208b9055825482528082206002018054336001600160a01b03199182168117909255845484528284206001018b90558454845282842060040180549091166001600160a01b038b161790558354835281832060050188905583548352818320600601879055925490519092918b917f9ea307a028d3da2451a706fc7b502f09497ce5906928c0c321b2429c1cdb5a499190a4611038611e71565b50610f79565b600e5460405188815233908a907f37ed44cc6a1522618f32389e082f0a8b3bc710a5a9602d63b9ca1d67ff9c39e49060200160405180910390a4979650505050505050565b61108e338383611eab565b5050565b6003546001600160a01b031633146110a957600080fd5b600480546001600160a01b038581166001600160a01b03199283168117909355600580548683169084168117909155600680549286169284168317905560038054909316610539179092556040805193845260208401929092529082015260009030907ffb12041af95bd2958476c34c9e34b64de4365d89107b325ece00974db3728864906060015b60405180910390a3505050565b60008281526007602052604090206004015482906001600160a01b0316331461119d5760405162461bcd60e51b815260206004820152601060248201526f2737ba1020b932b09023b7bb32b937b960811b60448201526064016103e7565b6000826001600160a01b03163b116111f75760405162461bcd60e51b815260206004820152601860248201527f4e65656420636f6e747261637420666f722072756c65732e000000000000000060448201526064016103e7565b60008381526007602052604080822060050180546001600160a01b0319166001600160a01b0386169081179091559051909185917f1992c1ccce1b17183f6f559d56a525d85ad337fc68d0ab528361f368d1a9dac39190a3505050565b6000611260338461172b565b156112a45760405162461bcd60e51b815260206004820152601460248201527320b63932b0b23c9034b71037b9103330b936b2b960611b60448201526064016103e7565b6000838152600760209081526040808320815160c08101835281548152825160608101938490529093919291840191600184019060039082845b8154815260200190600101908083116112de57505050918352505060048201546001600160a01b039081166020830152600583015416604082015260068201805460609092019161132e906131e2565b80601f016020809104026020016040519081016040528092919081815260200182805461135a906131e2565b80156113a75780601f1061137c576101008083540402835291602001916113a7565b820191906000526020600020905b81548152906001019060200180831161138a57829003601f168201915b505050505081526020016007820180546113c0906131e2565b80601f01602080910402602001604051908101604052809291908181526020018280546113ec906131e2565b80156114395780601f1061140e57610100808354040283529160200191611439565b820191906000526020600020905b81548152906001019060200180831161141c57829003601f168201915b5050509190925250506005546040516370a0823160e01b81523360048201529293506001600160a01b0316916370a082319150602401602060405180830381865afa15801561148c573d6000803e3d6000fd5b505050506040513d601f19601f820116820180604052508101906114b0919061336b565b815160019182149350116114f85760405162461bcd60e51b815260206004820152600f60248201526e105c9958481b5d5cdd08195e1a5cdd608a1b60448201526064016103e7565b811561159157600554604051634a855e0f60e11b8152336004820152611574916001600160a01b03169063950abc1e906024016020604051808303816000875af115801561154a573d6000803e3d6000fd5b505050506040513d601f19601f8201168201806040525081019061156e919061336b565b85611f83565b6000848152600760205260409020600201805460010190556116a4565b61159a83611ff0565b6115e65760405162461bcd60e51b815260206004820152601860248201527f6661696c656420746f206d616b6520636f6e73756d6d6572000000000000000060448201526064016103e7565b600554604051634a855e0f60e11b81523360048201526000916001600160a01b03169063950abc1e906024016020604051808303816000875af1158015611631573d6000803e3d6000fd5b505050506040513d601f19601f82011682018060405250810190611655919061336b565b90506116618186611f83565b60008181526009602090815260409091208681558551611689926003909201918701906128a7565b50506000848152600760205260409020600201805460010190555b6005546040516370a0823160e01b81523360048201526000916001600160a01b0316906370a0823190602401602060405180830381865afa1580156116ed573d6000803e3d6000fd5b505050506040513d601f19601f82011682018060405250810190611711919061336b565b1180156117235750611723338561172b565b949350505050565b6000818152600b602052604081206001600160a01b038416760c16d9a0095928a2775b7053c0f1782938d6f07ddaaf708110611769576117696132b8565b01541561041357506001610413565b6001600160a01b03851633148061179457506117948533610319565b6117b05760405162461bcd60e51b81526004016103e790613269565b6106a985858585856120d6565b60606117c9338461172b565b156118035760405162461bcd60e51b815260206004820152600a60248201526920b63932b0b23c9034b760b11b60448201526064016103e7565b600e548311156118425760405162461bcd60e51b815260206004820152600a602482015269125b9d985b1a5908125960b21b60448201526064016103e7565b82600003611a8457600e54611858906002613353565b336000908152600c6020526040902080546001600160a01b0319166001600160a01b039290921691909117905561188e82612200565b9050600e54600161189f9190613353565b600e8054600090815260086020526040902091909155546118c1906001613353565b600e8054600090815260076020908152604080832094909455825482529083902060040180546001600160a01b0319163317905582518084018452601b81527f68747470733a2f2f706f7461746f2e626f6e642f6170692f76312f000000000081830152915483519182015290910160408051601f198184030181529082905261194e9291602001613384565b60405160208183030381529060405260076000600e54815260200190815260200160002060060190805190602001906119889291906128a7565b50600e8054600090815260076020908152604080832060019081015592548252828220925191926119bb92909101613452565b60405160208183030381529060405290506119da33600060018461242e565b611a1433600e5460016119ed9190613353565b7f00000000000000000000000000000000000000000000000000000000000000008461242e565b600e546000818152600b6020526040902033760c16d9a0095928a2775b7053c0f1782938d6f07ddaaf708110611a4c57611a4c6132b8565b0155600e54604051339082907f91bbf64d368dafdce9806685f9868faf35992c6868e51f975121f7f055a6987490600090a450610413565b336000908152600c6020526040902054611aa7906001600160a01b03168461172b565b15611b8d57611ab582612200565b9050600060076000600e548152602001908152602001600020604051602001611ade9190613452565b60408051601f19818403018152918152600e546000878152600b602052919091209192509033760c16d9a0095928a2775b7053c0f1782938d6f07ddaaf708110611b2a57611b2a6132b8565b0155611b3b336119ed866001613353565b600e5460009081526007602052604081206001010180546001019055600e54604051339086907fba705ae85061064e22cd6afbb0c81e37438d414ad21c5c312be52c7e9857cdcf90600090a450610413565b60405133815283907fc37f9ade541709ddb52e72081772cc4123203c4aebb9ad82fc003ad2708590db9060200160405180910390a260405162461bcd60e51b8152602060048201526009602482015268155b9a5b9d9a5d195960ba1b60448201526064016103e7565b6001600160a01b038281166000908152600c602052604090205416158015611c235750611c23338261172b565b611c2c57600080fd5b6001600160a01b0382166000818152600c602090815260409182902080546001600160a01b031916339081179091559151928352909183917fe4e308cc0fe8693509c974f83d068af567d522dc365223a35524936a9f2e1dc191015b60405180910390a35050565b8151835114611cf65760405162461bcd60e51b815260206004820152602860248201527f455243313135353a2069647320616e6420616d6f756e7473206c656e677468206044820152670dad2e6dac2e8c6d60c31b60648201526084016103e7565b6001600160a01b038416611d1c5760405162461bcd60e51b81526004016103e7906134ee565b3360005b8451811015611e03576000858281518110611d3d57611d3d6132b8565b602002602001015190506000858381518110611d5b57611d5b6132b8565b602090810291909101810151600084815280835260408082206001600160a01b038e168352909352919091205490915081811015611dab5760405162461bcd60e51b81526004016103e790613533565b6000838152602081815260408083206001600160a01b038e8116855292528083208585039055908b16825281208054849290611de8908490613353565b9250508190555050505080611dfc906132e4565b9050611d20565b50846001600160a01b0316866001600160a01b0316826001600160a01b03167f4a39dc06d4c0dbc64b70af90fd698a233a518aa5d07e595d983b8c0526c8f7fb8787604051611e5392919061357d565b60405180910390a4611e6981878787878761247a565b505050505050565b600e805460010190819055604051600091907ff5a6259fd192fc60f871a2214790a1a775ce60764bce7ccc94acc96ea2270e0c908390a290565b816001600160a01b0316836001600160a01b031603611f1e5760405162461bcd60e51b815260206004820152602960248201527f455243313135353a2073657474696e6720617070726f76616c20737461747573604482015268103337b91039b2b63360b91b60648201526084016103e7565b6001600160a01b03838116600081815260016020908152604080832094871680845294825291829020805460ff191686151590811790915591519182527f17307eab39ab6107e8899845ad3d59bd9653f200f220920489ca2b5937696c319101611132565b6000818152600b60205260409020819033760c16d9a0095928a2775b7053c0f1782938d6f07ddaaf708110611fba57611fba6132b8565b0155604051338152819083907fc6cad8547963cf326354c6f786b451353e2b0ee82b0dcc0199157717c6f730d790602001611c88565b600554600e5460405163b74f17fb60e01b81526000926001600160a01b03169163b74f17fb9161202691339187906004016135a2565b600060405180830381600087803b15801561204057600080fd5b505af1158015612054573d6000803e3d6000fd5b50505050612060611e71565b506005546040516370a0823160e01b81523360048201526001600160a01b03909116906370a0823190602401602060405180830381865afa1580156120a9573d6000803e3d6000fd5b505050506040513d601f19601f820116820180604052508101906120cd919061336b565b60011492915050565b6001600160a01b0384166120fc5760405162461bcd60e51b81526004016103e7906134ee565b336000612108856125de565b90506000612115856125de565b90506000868152602081815260408083206001600160a01b038c168452909152902054858110156121585760405162461bcd60e51b81526004016103e790613533565b6000878152602081815260408083206001600160a01b038d8116855292528083208985039055908a16825281208054889290612195908490613353565b909155505060408051888152602081018890526001600160a01b03808b16928c821692918816917fc3d58168c5ae7397731d063d5bbf3d657854427343f4c083240f7aacaa2d0f62910160405180910390a46121f5848a8a8a8a8a612629565b505050505050505050565b600480546040516370a0823160e01b815233928101929092526060916001600160a01b03909116906370a0823190602401602060405180830381865afa15801561224e573d6000803e3d6000fd5b505050506040513d601f19601f82011682018060405250810190612272919061336b565b6000036123ae57612281611e71565b5060048054600e54604051638de6e63360e01b81526001600160a01b0390921692638de6e633926122b892339290918791016135a2565b600060405180830381600087803b1580156122d257600080fd5b505af11580156122e6573d6000803e3d6000fd5b505050506040518060400160405280601b81526020017f68747470733a2f2f706f7461746f2e626f6e642f6170692f76312f0000000000815250600e5460405160200161233591815260200190565b60408051601f19818403018152908290526123539291602001613384565b60408051601f19818403018152918152600e805460009081526008602090815283822060030180546001600160a01b03191633179055915481529190912082519293506123a8926004909101918401906128a7565b50919050565b6040518060400160405280601b81526020017f68747470733a2f2f706f7461746f2e626f6e642f6170692f76312f0000000000815250600e546040516020016123f991815260200190565b60408051601f19818403018152908290526124179291602001613384565b60405160208183030381529060405290505b919050565b826000036124575761243e611e71565b50600e546000818152600d602052604090206001905592505b6000838152600d60205260409020829055612474848484846126e4565b50505050565b6001600160a01b0384163b15611e695760405163bc197c8160e01b81526001600160a01b0385169063bc197c81906124be90899089908890889088906004016135c9565b6020604051808303816000875af19250505080156124f9575060408051601f3d908101601f191682019092526124f691810190613627565b60015b6125a557612505613644565b806308c379a00361253e5750612519613660565b806125245750612540565b8060405162461bcd60e51b81526004016103e79190612a64565b505b60405162461bcd60e51b815260206004820152603460248201527f455243313135353a207472616e7366657220746f206e6f6e20455243313135356044820152732932b1b2b4bb32b91034b6b83632b6b2b73a32b960611b60648201526084016103e7565b6001600160e01b0319811663bc197c8160e01b146125d55760405162461bcd60e51b81526004016103e7906136ea565b50505050505050565b60408051600180825281830190925260609160009190602080830190803683370190505090508281600081518110612618576126186132b8565b602090810291909101015292915050565b6001600160a01b0384163b15611e695760405163f23a6e6160e01b81526001600160a01b0385169063f23a6e619061266d9089908990889088908890600401613732565b6020604051808303816000875af19250505080156126a8575060408051601f3d908101601f191682019092526126a591810190613627565b60015b6126b457612505613644565b6001600160e01b0319811663f23a6e6160e01b146125d55760405162461bcd60e51b81526004016103e7906136ea565b6001600160a01b0384166127445760405162461bcd60e51b815260206004820152602160248201527f455243313135353a206d696e7420746f20746865207a65726f206164647265736044820152607360f81b60648201526084016103e7565b336000612750856125de565b9050600061275d856125de565b90506000868152602081815260408083206001600160a01b038b1684529091528120805487929061278f908490613353565b909155505060408051878152602081018790526001600160a01b03808a1692600092918716917fc3d58168c5ae7397731d063d5bbf3d657854427343f4c083240f7aacaa2d0f62910160405180910390a46125d583600089898989612629565b6040518060c001604052806000815260200161280961292b565b81526000602082018190526040820152606080820181905260809091015290565b6040518060c00160405280600081526020016000815260200160006001600160a01b0316815260200160006001600160a01b0316815260200160006001600160a01b0316815260200161287b612949565b905290565b60405180606001604052806000815260200161289a612949565b8152602001606081525090565b8280546128b3906131e2565b90600052602060002090601f0160209004810192826128d5576000855561291b565b82601f106128ee57805160ff191683800117855561291b565b8280016001018555821561291b579182015b8281111561291b578251825591602001919060010190612900565b50612927929150612967565b5090565b60405180606001604052806003906020820280368337509192915050565b60405180604001604052806002906020820280368337509192915050565b5b808211156129275760008155600101612968565b80356001600160a01b038116811461242957600080fd5b600080604083850312156129a657600080fd5b6129af8361297c565b946020939093013593505050565b6001600160e01b0319811681146129d357600080fd5b50565b6000602082840312156129e857600080fd5b813561065d816129bd565b600060208284031215612a0557600080fd5b5035919050565b60005b83811015612a27578181015183820152602001612a0f565b838111156124745750506000910152565b60008151808452612a50816020860160208601612a0c565b601f01601f19169290920160200192915050565b60208152600061065d6020830184612a38565b600080600060408486031215612a8c57600080fd5b83359250602084013567ffffffffffffffff80821115612aab57600080fd5b818601915086601f830112612abf57600080fd5b813581811115612ace57600080fd5b876020828501011115612ae057600080fd5b6020830194508093505050509250925092565b634e487b7160e01b600052604160045260246000fd5b601f8201601f1916810167ffffffffffffffff81118282101715612b2f57612b2f612af3565b6040525050565b600067ffffffffffffffff821115612b5057612b50612af3565b5060051b60200190565b600082601f830112612b6b57600080fd5b81356020612b7882612b36565b604051612b858282612b09565b83815260059390931b8501820192828101915086841115612ba557600080fd5b8286015b84811015612bc05780358352918301918301612ba9565b509695505050505050565b600082601f830112612bdc57600080fd5b813567ffffffffffffffff811115612bf657612bf6612af3565b604051612c0d601f8301601f191660200182612b09565b818152846020838601011115612c2257600080fd5b816020850160208301376000918101602001919091529392505050565b600080600080600060a08688031215612c5757600080fd5b612c608661297c565b9450612c6e6020870161297c565b9350604086013567ffffffffffffffff80821115612c8b57600080fd5b612c9789838a01612b5a565b94506060880135915080821115612cad57600080fd5b612cb989838a01612b5a565b93506080880135915080821115612ccf57600080fd5b50612cdc88828901612bcb565b9150509295509295909350565b60006101008251845260208084015181860160005b6003811015612d1b57825182529183019190830190600101612cfe565b5050505060408301516001600160a01b03811660808601525060608301516001600160a01b03811660a08601525060808301518160c0860152612d6082860182612a38565b91505060a083015184820360e0860152612d7a8282612a38565b95945050505050565b8060005b6002811015612474578151845260209384019390910190600101612d87565b8051825260006020820151612dbe6020850182612d83565b506040820151608060608501526117236080850182612a38565b80518252602081015160208301526040810151604083015260018060a01b0360608201511660608301526000608082015160a0608085015261172360a0850182612a38565b6000610140808352612e3181840188612ce9565b90508551602084015260208601516040840152604086015160018060a01b0380821660608601528060608901511660808601528060808901511660a0860152505060a0860151612e8460c0850182612d83565b50828103610100840152612e988186612da6565b9050828103610120840152612ead8185612dd8565b979650505050505050565b60008060408385031215612ecb57600080fd5b823567ffffffffffffffff80821115612ee357600080fd5b818501915085601f830112612ef757600080fd5b81356020612f0482612b36565b604051612f118282612b09565b83815260059390931b8501820192828101915089841115612f3157600080fd5b948201945b83861015612f5657612f478661297c565b82529482019490820190612f36565b96505086013592505080821115612f6c57600080fd5b50612f7985828601612b5a565b9150509250929050565b600081518084526020808501945080840160005b83811015612fb357815187529582019590820190600101612f97565b509495945050505050565b60208152600061065d6020830184612f83565b60208152600061065d6020830184612ce9565b600080600080600080600060e0888a031215612fff57600080fd5b87359650602088013595506040880135945061301d6060890161297c565b93506080880135925060a0880135915060c088013567ffffffffffffffff81111561304757600080fd5b6130538a828b01612bcb565b91505092959891949750929550565b80151581146129d357600080fd5b6000806040838503121561308357600080fd5b61308c8361297c565b9150602083013561309c81613062565b809150509250929050565b6000806000606084860312156130bc57600080fd5b6130c58461297c565b92506130d36020850161297c565b91506130e16040850161297c565b90509250925092565b600080604083850312156130fd57600080fd5b8235915061310d6020840161297c565b90509250929050565b6000806040838503121561312957600080fd5b82359150602083013567ffffffffffffffff81111561314757600080fd5b612f7985828601612bcb565b6000806040838503121561316657600080fd5b61316f8361297c565b915061310d6020840161297c565b600080600080600060a0868803121561319557600080fd5b61319e8661297c565b94506131ac6020870161297c565b93506040860135925060608601359150608086013567ffffffffffffffff8111156131d657600080fd5b612cdc88828901612bcb565b600181811c908216806131f657607f821691505b6020821081036123a857634e487b7160e01b600052602260045260246000fd5b83815260406020820152816040820152818360608301376000818301606090810191909152601f909201601f1916010192915050565b60006020828403121561325e57600080fd5b815161065d81613062565b6020808252602f908201527f455243313135353a2063616c6c6572206973206e6f7420746f6b656e206f776e60408201526e195c881b9bdc88185c1c1c9bdd9959608a1b606082015260800190565b634e487b7160e01b600052603260045260246000fd5b634e487b7160e01b600052601160045260246000fd5b6000600182016132f6576132f66132ce565b5060010190565b6000816000190483118215151615613317576133176132ce565b500290565b84815283602082015260018060a01b03831660408201526080606082015260006133496080830184612a38565b9695505050505050565b60008219821115613366576133666132ce565b500190565b60006020828403121561337d57600080fd5b5051919050565b60008351613396818460208801612a0c565b8351908301906133aa818360208801612a0c565b01949350505050565b8054600090600181811c90808316806133cd57607f831692505b602080841082036133ee57634e487b7160e01b600052602260045260246000fd5b83885260208801828015613409576001811461341a57613445565b60ff19871682528282019750613445565b60008981526020902060005b8781101561343f57815484820152908601908401613426565b83019850505b5050505050505092915050565b6000602080835283548184015260016040840181860160005b600381101561348757815483529184019190830190830161346b565b50505050506134a060048401546001600160a01b031690565b6001600160a01b0390811660a084015260058401541660c083015261010060e083018190526134d66101208401600686016133b3565b838103601f190182850152612d7a81600787016133b3565b60208082526025908201527f455243313135353a207472616e7366657220746f20746865207a65726f206164604082015264647265737360d81b606082015260800190565b6020808252602a908201527f455243313135353a20696e73756666696369656e742062616c616e636520666f60408201526939103a3930b739b332b960b11b606082015260800190565b6040815260006135906040830185612f83565b82810360208401526106598185612f83565b60018060a01b0384168152826020820152606060408201526000612d7a6060830184612a38565b6001600160a01b0386811682528516602082015260a0604082018190526000906135f590830186612f83565b82810360608401526136078186612f83565b9050828103608084015261361b8185612a38565b98975050505050505050565b60006020828403121561363957600080fd5b815161065d816129bd565b600060033d111561365d5760046000803e5060005160e01c5b90565b600060443d101561366e5790565b6040516003193d81016004833e81513d67ffffffffffffffff816024840111818411171561369e57505050505090565b82850191508151818111156136b65750505050505090565b843d87010160208285010111156136d05750505050505090565b6136df60208286010187612b09565b509095945050505050565b60208082526028908201527f455243313135353a204552433131353552656365697665722072656a656374656040820152676420746f6b656e7360c01b606082015260800190565b6001600160a01b03868116825285166020820152604081018490526060810183905260a060808201819052600090612ead90830184612a3856fea26469706673582212202cf8fbce7caec398ec32cbf220cf1fe67ee35ce32ebdf6a2e43ddf9ed03f28e264736f6c634300080d0033",
    "linkReferences": {}
  },
  "methodIdentifiers": {
    "balanceOf(address,uint256)": "00fdd58e",
    "balanceOfBatch(address[],uint256[])": "4e1273f4",
    "basketTransferCallBack(uint256,bytes)": "21c1f4c3",
    "becomeFarmer(uint256,string)": "f68a63bc",
    "belongsTo(address,uint256)": "da0225db",
    "changeRulesOfArea(uint256,address)": "c3beb4ea",
    "getAll(uint256)": "3c077a48",
    "getArea(uint256)": "6490c7a8",
    "getAreaMetaData(uint256)": "d6a6cff0",
    "getCurrentGId()": "c17c59ce",
    "getFCB()": "5aaed90e",
    "globalId()": "ca666823",
    "inviteFarmer(address,uint256)": "ff360d96",
    "isApprovedForAll(address,address)": "e985e9c5",
    "joinAsConsumer(uint256,string)": "c81f28a9",
    "mintBaskets(uint256,uint256,uint256,address,uint256,uint256,string)": "84ff92ef",
    "safeBatchTransferFrom(address,address,uint256[],uint256[],bytes)": "2eb2c2d6",
    "safeTransferFrom(address,address,uint256,uint256,bytes)": "f242432a",
    "setApprovalForAll(address,bool)": "a22cb465",
    "setFCB(address,address,address)": "b6d77689",
    "supportsInterface(bytes4)": "01ffc9a7",
    "uri(uint256)": "0e89341c"
  },
  "id": 20
}